{
  "contractName": "Valid",
  "abi": [
    {
      "inputs": [],
      "stateMutability": "nonpayable",
      "type": "constructor"
    },
    {
      "anonymous": false,
      "inputs": [
        {
          "indexed": true,
          "internalType": "address",
          "name": "owner",
          "type": "address"
        },
        {
          "indexed": true,
          "internalType": "address",
          "name": "approved",
          "type": "address"
        },
        {
          "indexed": true,
          "internalType": "uint256",
          "name": "tokenId",
          "type": "uint256"
        }
      ],
      "name": "Approval",
      "type": "event"
    },
    {
      "anonymous": false,
      "inputs": [
        {
          "indexed": true,
          "internalType": "address",
          "name": "owner",
          "type": "address"
        },
        {
          "indexed": true,
          "internalType": "address",
          "name": "operator",
          "type": "address"
        },
        {
          "indexed": false,
          "internalType": "bool",
          "name": "approved",
          "type": "bool"
        }
      ],
      "name": "ApprovalForAll",
      "type": "event"
    },
    {
      "anonymous": false,
      "inputs": [
        {
          "indexed": true,
          "internalType": "address",
          "name": "from",
          "type": "address"
        },
        {
          "indexed": true,
          "internalType": "address",
          "name": "to",
          "type": "address"
        },
        {
          "indexed": true,
          "internalType": "uint256",
          "name": "tokenId",
          "type": "uint256"
        }
      ],
      "name": "Transfer",
      "type": "event"
    },
    {
      "inputs": [
        {
          "internalType": "address",
          "name": "to",
          "type": "address"
        },
        {
          "internalType": "uint256",
          "name": "tokenId",
          "type": "uint256"
        }
      ],
      "name": "approve",
      "outputs": [],
      "stateMutability": "nonpayable",
      "type": "function"
    },
    {
      "inputs": [
        {
          "internalType": "address",
          "name": "owner",
          "type": "address"
        }
      ],
      "name": "balanceOf",
      "outputs": [
        {
          "internalType": "uint256",
          "name": "",
          "type": "uint256"
        }
      ],
      "stateMutability": "view",
      "type": "function"
    },
    {
      "inputs": [],
      "name": "baseURI",
      "outputs": [
        {
          "internalType": "string",
          "name": "",
          "type": "string"
        }
      ],
      "stateMutability": "view",
      "type": "function"
    },
    {
      "inputs": [
        {
          "internalType": "uint256",
          "name": "tokenId",
          "type": "uint256"
        }
      ],
      "name": "getApproved",
      "outputs": [
        {
          "internalType": "address",
          "name": "",
          "type": "address"
        }
      ],
      "stateMutability": "view",
      "type": "function"
    },
    {
      "inputs": [
        {
          "internalType": "address",
          "name": "owner",
          "type": "address"
        },
        {
          "internalType": "address",
          "name": "operator",
          "type": "address"
        }
      ],
      "name": "isApprovedForAll",
      "outputs": [
        {
          "internalType": "bool",
          "name": "",
          "type": "bool"
        }
      ],
      "stateMutability": "view",
      "type": "function"
    },
    {
      "inputs": [],
      "name": "name",
      "outputs": [
        {
          "internalType": "string",
          "name": "",
          "type": "string"
        }
      ],
      "stateMutability": "view",
      "type": "function"
    },
    {
      "inputs": [
        {
          "internalType": "uint256",
          "name": "tokenId",
          "type": "uint256"
        }
      ],
      "name": "ownerOf",
      "outputs": [
        {
          "internalType": "address",
          "name": "",
          "type": "address"
        }
      ],
      "stateMutability": "view",
      "type": "function"
    },
    {
      "inputs": [],
      "name": "ownerbalance",
      "outputs": [
        {
          "internalType": "address payable",
          "name": "",
          "type": "address"
        }
      ],
      "stateMutability": "view",
      "type": "function"
    },
    {
      "inputs": [
        {
          "internalType": "address",
          "name": "from",
          "type": "address"
        },
        {
          "internalType": "address",
          "name": "to",
          "type": "address"
        },
        {
          "internalType": "uint256",
          "name": "tokenId",
          "type": "uint256"
        }
      ],
      "name": "safeTransferFrom",
      "outputs": [],
      "stateMutability": "nonpayable",
      "type": "function"
    },
    {
      "inputs": [
        {
          "internalType": "address",
          "name": "from",
          "type": "address"
        },
        {
          "internalType": "address",
          "name": "to",
          "type": "address"
        },
        {
          "internalType": "uint256",
          "name": "tokenId",
          "type": "uint256"
        },
        {
          "internalType": "bytes",
          "name": "_data",
          "type": "bytes"
        }
      ],
      "name": "safeTransferFrom",
      "outputs": [],
      "stateMutability": "nonpayable",
      "type": "function"
    },
    {
      "inputs": [
        {
          "internalType": "address",
          "name": "operator",
          "type": "address"
        },
        {
          "internalType": "bool",
          "name": "approved",
          "type": "bool"
        }
      ],
      "name": "setApprovalForAll",
      "outputs": [],
      "stateMutability": "nonpayable",
      "type": "function"
    },
    {
      "inputs": [
        {
          "internalType": "bytes4",
          "name": "interfaceId",
          "type": "bytes4"
        }
      ],
      "name": "supportsInterface",
      "outputs": [
        {
          "internalType": "bool",
          "name": "",
          "type": "bool"
        }
      ],
      "stateMutability": "view",
      "type": "function"
    },
    {
      "inputs": [],
      "name": "symbol",
      "outputs": [
        {
          "internalType": "string",
          "name": "",
          "type": "string"
        }
      ],
      "stateMutability": "view",
      "type": "function"
    },
    {
      "inputs": [
        {
          "internalType": "uint256",
          "name": "index",
          "type": "uint256"
        }
      ],
      "name": "tokenByIndex",
      "outputs": [
        {
          "internalType": "uint256",
          "name": "",
          "type": "uint256"
        }
      ],
      "stateMutability": "view",
      "type": "function"
    },
    {
      "inputs": [
        {
          "internalType": "address",
          "name": "owner",
          "type": "address"
        },
        {
          "internalType": "uint256",
          "name": "index",
          "type": "uint256"
        }
      ],
      "name": "tokenOfOwnerByIndex",
      "outputs": [
        {
          "internalType": "uint256",
          "name": "",
          "type": "uint256"
        }
      ],
      "stateMutability": "view",
      "type": "function"
    },
    {
      "inputs": [
        {
          "internalType": "uint256",
          "name": "tokenId",
          "type": "uint256"
        }
      ],
      "name": "tokenURI",
      "outputs": [
        {
          "internalType": "string",
          "name": "",
          "type": "string"
        }
      ],
      "stateMutability": "view",
      "type": "function"
    },
    {
      "inputs": [],
      "name": "totalSupply",
      "outputs": [
        {
          "internalType": "uint256",
          "name": "",
          "type": "uint256"
        }
      ],
      "stateMutability": "view",
      "type": "function"
    },
    {
      "inputs": [
        {
          "internalType": "address",
          "name": "from",
          "type": "address"
        },
        {
          "internalType": "address",
          "name": "to",
          "type": "address"
        },
        {
          "internalType": "uint256",
          "name": "tokenId",
          "type": "uint256"
        }
      ],
      "name": "transferFrom",
      "outputs": [],
      "stateMutability": "nonpayable",
      "type": "function"
    },
    {
      "inputs": [
        {
          "internalType": "string",
          "name": "tokenURI",
          "type": "string"
        }
      ],
      "name": "createItem",
      "outputs": [],
      "stateMutability": "payable",
      "type": "function"
    },
    {
      "inputs": [],
      "name": "smbalance",
      "outputs": [
        {
          "internalType": "uint256",
          "name": "",
          "type": "uint256"
        }
      ],
      "stateMutability": "view",
      "type": "function"
    },
    {
      "inputs": [],
      "name": "withdraw",
      "outputs": [],
      "stateMutability": "nonpayable",
      "type": "function"
    },
    {
      "inputs": [
        {
          "internalType": "string",
          "name": "ipfshash",
          "type": "string"
        }
      ],
      "name": "IsHashed",
      "outputs": [
        {
          "internalType": "bool",
          "name": "hashed",
          "type": "bool"
        }
      ],
      "stateMutability": "view",
      "type": "function"
    },
    {
      "inputs": [
        {
          "internalType": "address",
          "name": "owner",
          "type": "address"
        }
      ],
      "name": "documentsOF",
      "outputs": [
        {
          "components": [
            {
              "internalType": "string",
              "name": "hash",
              "type": "string"
            },
            {
              "internalType": "uint256",
              "name": "tokenid",
              "type": "uint256"
            }
          ],
          "internalType": "struct Valid.documentData[]",
          "name": "documents",
          "type": "tuple[]"
        }
      ],
      "stateMutability": "view",
      "type": "function"
    },
    {
      "inputs": [],
      "name": "getAllHashes",
      "outputs": [
        {
          "internalType": "string[]",
          "name": "tokens",
          "type": "string[]"
        }
      ],
      "stateMutability": "view",
      "type": "function"
    },
    {
      "inputs": [
        {
          "internalType": "address",
          "name": "owner",
          "type": "address"
        }
      ],
      "name": "tokensOf",
      "outputs": [
        {
          "internalType": "uint256[]",
          "name": "tokens",
          "type": "uint256[]"
        },
        {
          "internalType": "bool",
          "name": "success",
          "type": "bool"
        }
      ],
      "stateMutability": "view",
      "type": "function"
    }
  ],
  "bytecode": "0x60806040523480156200001157600080fd5b506040518060400160405280600581526020017f56414c49440000000000000000000000000000000000000000000000000000008152506040518060400160405280600381526020017f564c440000000000000000000000000000000000000000000000000000000000815250620000966301ffc9a760e01b6200015960201b60201c565b8160069080519060200190620000ae92919062000231565b508060079080519060200190620000c792919062000231565b50620000e06380ac58cd60e01b6200015960201b60201c565b620000f8635b5e139f60e01b6200015960201b60201c565b6200011063780e9d6360e01b6200015960201b60201c565b505033600b60006101000a81548173ffffffffffffffffffffffffffffffffffffffff021916908373ffffffffffffffffffffffffffffffffffffffff1602179055506200034c565b63ffffffff60e01b817bffffffffffffffffffffffffffffffffffffffffffffffffffffffff19161415620001c5576040517f08c379a0000000000000000000000000000000000000000000000000000000008152600401620001bc9062000319565b60405180910390fd5b6001600080837bffffffffffffffffffffffffffffffffffffffffffffffffffffffff19167bffffffffffffffffffffffffffffffffffffffffffffffffffffffff1916815260200190815260200160002060006101000a81548160ff02191690831515021790555050565b828054600181600116156101000203166002900490600052602060002090601f016020900481019282601f106200027457805160ff1916838001178555620002a5565b82800160010185558215620002a5579182015b82811115620002a457825182559160200191906001019062000287565b5b509050620002b49190620002b8565b5090565b5b80821115620002d3576000816000905550600101620002b9565b5090565b6000620002e6601c836200033b565b91507f4552433136353a20696e76616c696420696e74657266616365206964000000006000830152602082019050919050565b600060208201905081810360008301526200033481620002d7565b9050919050565b600082825260208201905092915050565b613c3e806200035c6000396000f3fe6080604052600436106101665760003560e01c80635a3f2672116100d1578063b88d4fde1161008a578063e02ddea411610064578063e02ddea414610568578063e985e9c5146105a5578063fa221e66146105e2578063fe99f7421461060d57610166565b8063b88d4fde146104d7578063c38d39a514610500578063c87b56dd1461052b57610166565b80635a3f2672146103a05780636352211e146103de5780636c0360eb1461041b57806370a082311461044657806395d89b4114610483578063a22cb465146104ae57610166565b806323b872dd1161012357806323b872dd146102a15780632f745c59146102ca5780633ccfd60b146103075780633d54eebb1461031e57806342842e0e1461033a5780634f6ccce71461036357610166565b806301ffc9a71461016b57806306fdde03146101a8578063081812fc146101d3578063095ea7b31461021057806318160ddd146102395780631c4d1d3114610264575b600080fd5b34801561017757600080fd5b50610192600480360381019061018d91906129f7565b610638565b60405161019f9190613631565b60405180910390f35b3480156101b457600080fd5b506101bd61069f565b6040516101ca919061364c565b60405180910390f35b3480156101df57600080fd5b506101fa60048036038101906101f59190612acf565b610741565b604051610207919061353b565b60405180910390f35b34801561021c57600080fd5b50610237600480360381019061023291906129bb565b6107c6565b005b34801561024557600080fd5b5061024e6108de565b60405161025b91906138ce565b60405180910390f35b34801561027057600080fd5b5061028b60048036038101906102869190612a8e565b6108ef565b6040516102989190613631565b60405180910390f35b3480156102ad57600080fd5b506102c860048036038101906102c391906128b5565b6109a1565b005b3480156102d657600080fd5b506102f160048036038101906102ec91906129bb565b610a01565b6040516102fe91906138ce565b60405180910390f35b34801561031357600080fd5b5061031c610a5c565b005b61033860048036038101906103339190612a49565b610b21565b005b34801561034657600080fd5b50610361600480360381019061035c91906128b5565b610b99565b005b34801561036f57600080fd5b5061038a60048036038101906103859190612acf565b610bb9565b60405161039791906138ce565b60405180910390f35b3480156103ac57600080fd5b506103c760048036038101906103c29190612850565b610bdc565b6040516103d5929190613601565b60405180910390f35b3480156103ea57600080fd5b5061040560048036038101906104009190612acf565b610d4d565b604051610412919061353b565b60405180910390f35b34801561042757600080fd5b50610430610d84565b60405161043d919061364c565b60405180910390f35b34801561045257600080fd5b5061046d60048036038101906104689190612850565b610e26565b60405161047a91906138ce565b60405180910390f35b34801561048f57600080fd5b50610498610ee5565b6040516104a5919061364c565b60405180910390f35b3480156104ba57600080fd5b506104d560048036038101906104d0919061297f565b610f87565b005b3480156104e357600080fd5b506104fe60048036038101906104f99190612904565b611108565b005b34801561050c57600080fd5b5061051561116a565b6040516105229190613556565b60405180910390f35b34801561053757600080fd5b50610552600480360381019061054d9190612acf565b611190565b60405161055f919061364c565b60405180910390f35b34801561057457600080fd5b5061058f600480360381019061058a9190612850565b611313565b60405161059c91906135df565b60405180910390f35b3480156105b157600080fd5b506105cc60048036038101906105c79190612879565b6114c2565b6040516105d99190613631565b60405180910390f35b3480156105ee57600080fd5b506105f7611556565b60405161060491906138ce565b60405180910390f35b34801561061957600080fd5b5061062261155e565b60405161062f91906135bd565b60405180910390f35b6000806000837bffffffffffffffffffffffffffffffffffffffffffffffffffffffff19167bffffffffffffffffffffffffffffffffffffffffffffffffffffffff1916815260200190815260200160002060009054906101000a900460ff169050919050565b606060068054600181600116156101000203166002900480601f0160208091040260200160405190810160405280929190818152602001828054600181600116156101000203166002900480156107375780601f1061070c57610100808354040283529160200191610737565b820191906000526020600020905b81548152906001019060200180831161071a57829003601f168201915b5050505050905090565b600061074c82611663565b61078b576040517f08c379a0000000000000000000000000000000000000000000000000000000008152600401610782906137ce565b60405180910390fd5b6004600083815260200190815260200160002060009054906101000a900473ffffffffffffffffffffffffffffffffffffffff169050919050565b60006107d182610d4d565b90508073ffffffffffffffffffffffffffffffffffffffff168373ffffffffffffffffffffffffffffffffffffffff161415610842576040517f08c379a00000000000000000000000000000000000000000000000000000000081526004016108399061386e565b60405180910390fd5b8073ffffffffffffffffffffffffffffffffffffffff16610861611680565b73ffffffffffffffffffffffffffffffffffffffff161480610890575061088f8161088a611680565b6114c2565b5b6108cf576040517f08c379a00000000000000000000000000000000000000000000000000000000081526004016108c69061374e565b60405180910390fd5b6108d98383611688565b505050565b60006108ea6002611741565b905090565b6000806108fa6108de565b9050600081141561090f57600091505061099c565b6000805b828110156109955761092c61092782610bb9565b611190565b60405160200161093c9190613500565b60405160208183030381529060405280519060200120856040516020016109639190613500565b6040516020818303038152906040528051906020012014156109885760019150610995565b8080600101915050610913565b5080925050505b919050565b6109b26109ac611680565b82611756565b6109f1576040517f08c379a00000000000000000000000000000000000000000000000000000000081526004016109e89061388e565b60405180910390fd5b6109fc838383611834565b505050565b6000610a5482600160008673ffffffffffffffffffffffffffffffffffffffff1673ffffffffffffffffffffffffffffffffffffffff168152602001908152602001600020611a4b90919063ffffffff16565b905092915050565b600b60009054906101000a900473ffffffffffffffffffffffffffffffffffffffff1673ffffffffffffffffffffffffffffffffffffffff163373ffffffffffffffffffffffffffffffffffffffff1614610ab657600080fd5b600b60009054906101000a900473ffffffffffffffffffffffffffffffffffffffff1673ffffffffffffffffffffffffffffffffffffffff166108fc479081150290604051600060405180830381858888f19350505050158015610b1e573d6000803e3d6000fd5b50565b610b2b600a611a65565b610b3e33610b39600a611a7b565b611a89565b610b95610b4b600a611a7b565b83838080601f016020809104026020016040519081016040528093929190818152602001838380828437600081840152601f19601f82011690508083019250505050505050611c17565b5050565b610bb483838360405180602001604052806000815250611108565b505050565b600080610bd0836002611c8b90919063ffffffff16565b50905080915050919050565b606060008073ffffffffffffffffffffffffffffffffffffffff168373ffffffffffffffffffffffffffffffffffffffff161415610c4f576040517f08c379a0000000000000000000000000000000000000000000000000000000008152600401610c469061382e565b60405180910390fd5b6000610c5a84610e26565b90506000811415610cb8578067ffffffffffffffff81118015610c7c57600080fd5b50604051908082528060200260200182016040528015610cab5781602001602082028036833780820191505090505b5060009250925050610d48565b60608167ffffffffffffffff81118015610cd157600080fd5b50604051908082528060200260200182016040528015610d005781602001602082028036833780820191505090505b50905060005b82811015610d3d57610d188682610a01565b828281518110610d2457fe5b6020026020010181815250508080600101915050610d06565b508060019350935050505b915091565b6000610d7d82604051806060016040528060298152602001613be0602991396002611cb79092919063ffffffff16565b9050919050565b606060098054600181600116156101000203166002900480601f016020809104026020016040519081016040528092919081815260200182805460018160011615610100020316600290048015610e1c5780601f10610df157610100808354040283529160200191610e1c565b820191906000526020600020905b815481529060010190602001808311610dff57829003601f168201915b5050505050905090565b60008073ffffffffffffffffffffffffffffffffffffffff168273ffffffffffffffffffffffffffffffffffffffff161415610e97576040517f08c379a0000000000000000000000000000000000000000000000000000000008152600401610e8e9061376e565b60405180910390fd5b610ede600160008473ffffffffffffffffffffffffffffffffffffffff1673ffffffffffffffffffffffffffffffffffffffff168152602001908152602001600020611cd6565b9050919050565b606060078054600181600116156101000203166002900480601f016020809104026020016040519081016040528092919081815260200182805460018160011615610100020316600290048015610f7d5780601f10610f5257610100808354040283529160200191610f7d565b820191906000526020600020905b815481529060010190602001808311610f6057829003601f168201915b5050505050905090565b610f8f611680565b73ffffffffffffffffffffffffffffffffffffffff168273ffffffffffffffffffffffffffffffffffffffff161415610ffd576040517f08c379a0000000000000000000000000000000000000000000000000000000008152600401610ff4906136ee565b60405180910390fd5b806005600061100a611680565b73ffffffffffffffffffffffffffffffffffffffff1673ffffffffffffffffffffffffffffffffffffffff16815260200190815260200160002060008473ffffffffffffffffffffffffffffffffffffffff1673ffffffffffffffffffffffffffffffffffffffff16815260200190815260200160002060006101000a81548160ff0219169083151502179055508173ffffffffffffffffffffffffffffffffffffffff166110b7611680565b73ffffffffffffffffffffffffffffffffffffffff167f17307eab39ab6107e8899845ad3d59bd9653f200f220920489ca2b5937696c31836040516110fc9190613631565b60405180910390a35050565b611119611113611680565b83611756565b611158576040517f08c379a000000000000000000000000000000000000000000000000000000000815260040161114f9061388e565b60405180910390fd5b61116484848484611ceb565b50505050565b600b60009054906101000a900473ffffffffffffffffffffffffffffffffffffffff1681565b606061119b82611663565b6111da576040517f08c379a00000000000000000000000000000000000000000000000000000000081526004016111d19061384e565b60405180910390fd5b6060600860008481526020019081526020016000208054600181600116156101000203166002900480601f0160208091040260200160405190810160405280929190818152602001828054600181600116156101000203166002900480156112835780601f1061125857610100808354040283529160200191611283565b820191906000526020600020905b81548152906001019060200180831161126657829003601f168201915b505050505090506060611294610d84565b90506000815114156112aa57819250505061130e565b6000825111156112df5780826040516020016112c7929190613517565b6040516020818303038152906040529250505061130e565b806112e985611d47565b6040516020016112fa929190613517565b604051602081830303815290604052925050505b919050565b6060600073ffffffffffffffffffffffffffffffffffffffff168273ffffffffffffffffffffffffffffffffffffffff161415611385576040517f08c379a000000000000000000000000000000000000000000000000000000000815260040161137c9061382e565b60405180910390fd5b600061139083610e26565b905060008114156113f5578067ffffffffffffffff811180156113b257600080fd5b506040519080825280602002602001820160405280156113ec57816020015b6113d961263e565b8152602001906001900390816113d15790505b509150506114bd565b60608167ffffffffffffffff8111801561140e57600080fd5b5060405190808252806020026020018201604052801561144857816020015b61143561263e565b81526020019060019003908161142d5790505b50905060005b828110156114b6576114686114638683610a01565b611190565b82828151811061147457fe5b60200260200101516000018190525061148d8582610a01565b82828151811061149957fe5b60200260200101516020018181525050808060010191505061144e565b5080925050505b919050565b6000600560008473ffffffffffffffffffffffffffffffffffffffff1673ffffffffffffffffffffffffffffffffffffffff16815260200190815260200160002060008373ffffffffffffffffffffffffffffffffffffffff1673ffffffffffffffffffffffffffffffffffffffff16815260200190815260200160002060009054906101000a900460ff16905092915050565b600047905090565b6060600061156a6108de565b905060008114156115c9578067ffffffffffffffff8111801561158c57600080fd5b506040519080825280602002602001820160405280156115c057816020015b60608152602001906001900390816115ab5790505b50915050611660565b60608167ffffffffffffffff811180156115e257600080fd5b5060405190808252806020026020018201604052801561161657816020015b60608152602001906001900390816116015790505b50905060005b828110156116595761163561163082610bb9565b611190565b82828151811061164157fe5b6020026020010181905250808060010191505061161c565b5080925050505b90565b6000611679826002611e8e90919063ffffffff16565b9050919050565b600033905090565b816004600083815260200190815260200160002060006101000a81548173ffffffffffffffffffffffffffffffffffffffff021916908373ffffffffffffffffffffffffffffffffffffffff160217905550808273ffffffffffffffffffffffffffffffffffffffff166116fb83610d4d565b73ffffffffffffffffffffffffffffffffffffffff167f8c5be1e5ebec7d5bd14f71427d1e84f3dd0314c0f7b2291e5b200ac8c7c3b92560405160405180910390a45050565b600061174f82600001611ea8565b9050919050565b600061176182611663565b6117a0576040517f08c379a00000000000000000000000000000000000000000000000000000000081526004016117979061372e565b60405180910390fd5b60006117ab83610d4d565b90508073ffffffffffffffffffffffffffffffffffffffff168473ffffffffffffffffffffffffffffffffffffffff16148061181a57508373ffffffffffffffffffffffffffffffffffffffff1661180284610741565b73ffffffffffffffffffffffffffffffffffffffff16145b8061182b575061182a81856114c2565b5b91505092915050565b8273ffffffffffffffffffffffffffffffffffffffff1661185482610d4d565b73ffffffffffffffffffffffffffffffffffffffff16146118aa576040517f08c379a00000000000000000000000000000000000000000000000000000000081526004016118a19061380e565b60405180910390fd5b600073ffffffffffffffffffffffffffffffffffffffff168273ffffffffffffffffffffffffffffffffffffffff16141561191a576040517f08c379a0000000000000000000000000000000000000000000000000000000008152600401611911906136ce565b60405180910390fd5b611925838383611eb9565b611930600082611688565b61198181600160008673ffffffffffffffffffffffffffffffffffffffff1673ffffffffffffffffffffffffffffffffffffffff168152602001908152602001600020611ebe90919063ffffffff16565b506119d381600160008573ffffffffffffffffffffffffffffffffffffffff1673ffffffffffffffffffffffffffffffffffffffff168152602001908152602001600020611ed890919063ffffffff16565b506119ea81836002611ef29092919063ffffffff16565b50808273ffffffffffffffffffffffffffffffffffffffff168473ffffffffffffffffffffffffffffffffffffffff167fddf252ad1be2c89b69c2b068fc378daa952ba7f163c4a11628f55a4df523b3ef60405160405180910390a4505050565b6000611a5a8360000183611f27565b60001c905092915050565b6001816000016000828254019250508190555050565b600081600001549050919050565b600073ffffffffffffffffffffffffffffffffffffffff168273ffffffffffffffffffffffffffffffffffffffff161415611af9576040517f08c379a0000000000000000000000000000000000000000000000000000000008152600401611af0906137ae565b60405180910390fd5b611b0281611663565b15611b42576040517f08c379a0000000000000000000000000000000000000000000000000000000008152600401611b39906136ae565b60405180910390fd5b611b4e60008383611eb9565b611b9f81600160008573ffffffffffffffffffffffffffffffffffffffff1673ffffffffffffffffffffffffffffffffffffffff168152602001908152602001600020611ed890919063ffffffff16565b50611bb681836002611ef29092919063ffffffff16565b50808273ffffffffffffffffffffffffffffffffffffffff16600073ffffffffffffffffffffffffffffffffffffffff167fddf252ad1be2c89b69c2b068fc378daa952ba7f163c4a11628f55a4df523b3ef60405160405180910390a45050565b611c2082611663565b611c5f576040517f08c379a0000000000000000000000000000000000000000000000000000000008152600401611c56906137ee565b60405180910390fd5b80600860008481526020019081526020016000209080519060200190611c86929190612658565b505050565b600080600080611c9e8660000186611f94565b915091508160001c8160001c9350935050509250929050565b6000611cca846000018460001b84612017565b60001c90509392505050565b6000611ce4826000016120a8565b9050919050565b611cf6848484611834565b611d02848484846120b9565b611d41576040517f08c379a0000000000000000000000000000000000000000000000000000000008152600401611d389061368e565b60405180910390fd5b50505050565b60606000821415611d8f576040518060400160405280600181526020017f30000000000000000000000000000000000000000000000000000000000000008152509050611e89565b600082905060005b60008214611db9578080600101915050600a8281611db157fe5b049150611d97565b60608167ffffffffffffffff81118015611dd257600080fd5b506040519080825280601f01601f191660200182016040528015611e055781602001600182028036833780820191505090505b50905060006001830390508593505b60008414611e8157600a8481611e2657fe5b0660300160f81b82828060019003935081518110611e4057fe5b60200101907effffffffffffffffffffffffffffffffffffffffffffffffffffffffffffff1916908160001a905350600a8481611e7957fe5b049350611e14565b819450505050505b919050565b6000611ea0836000018360001b61221d565b905092915050565b600081600001805490509050919050565b505050565b6000611ed0836000018360001b612240565b905092915050565b6000611eea836000018360001b612328565b905092915050565b6000611f1e846000018460001b8473ffffffffffffffffffffffffffffffffffffffff1660001b612398565b90509392505050565b600081836000018054905011611f72576040517f08c379a0000000000000000000000000000000000000000000000000000000008152600401611f699061366e565b60405180910390fd5b826000018281548110611f8157fe5b9060005260206000200154905092915050565b60008082846000018054905011611fe0576040517f08c379a0000000000000000000000000000000000000000000000000000000008152600401611fd79061378e565b60405180910390fd5b6000846000018481548110611ff157fe5b906000526020600020906002020190508060000154816001015492509250509250929050565b60008084600101600085815260200190815260200160002054905060008114158390612079576040517f08c379a0000000000000000000000000000000000000000000000000000000008152600401612070919061364c565b60405180910390fd5b5084600001600182038154811061208c57fe5b9060005260206000209060020201600101549150509392505050565b600081600001805490509050919050565b60006120da8473ffffffffffffffffffffffffffffffffffffffff16612474565b6120e75760019050612215565b60606121ae63150b7a0260e01b6120fc611680565b8887876040516024016121129493929190613571565b604051602081830303815290604052907bffffffffffffffffffffffffffffffffffffffffffffffffffffffff19166020820180517bffffffffffffffffffffffffffffffffffffffffffffffffffffffff8381831617835250505050604051806060016040528060328152602001613bae603291398773ffffffffffffffffffffffffffffffffffffffff166124879092919063ffffffff16565b90506000818060200190518101906121c69190612a20565b905063150b7a0260e01b7bffffffffffffffffffffffffffffffffffffffffffffffffffffffff1916817bffffffffffffffffffffffffffffffffffffffffffffffffffffffff191614925050505b949350505050565b600080836001016000848152602001908152602001600020541415905092915050565b6000808360010160008481526020019081526020016000205490506000811461231c576000600182039050600060018660000180549050039050600086600001828154811061228b57fe5b90600052602060002001549050808760000184815481106122a857fe5b90600052602060002001819055506001830187600101600083815260200190815260200160002081905550866000018054806122e057fe5b60019003818190600052602060002001600090559055866001016000878152602001908152602001600020600090556001945050505050612322565b60009150505b92915050565b6000612334838361249f565b61238d578260000182908060018154018082558091505060019003906000526020600020016000909190919091505582600001805490508360010160008481526020019081526020016000208190555060019050612392565b600090505b92915050565b600080846001016000858152602001908152602001600020549050600081141561243f5784600001604051806040016040528086815260200185815250908060018154018082558091505060019003906000526020600020906002020160009091909190915060008201518160000155602082015181600101555050846000018054905085600101600086815260200190815260200160002081905550600191505061246d565b8285600001600183038154811061245257fe5b90600052602060002090600202016001018190555060009150505b9392505050565b600080823b905060008111915050919050565b606061249684846000856124c2565b90509392505050565b600080836001016000848152602001908152602001600020541415905092915050565b606082471015612507576040517f08c379a00000000000000000000000000000000000000000000000000000000081526004016124fe9061370e565b60405180910390fd5b61251085612474565b61254f576040517f08c379a0000000000000000000000000000000000000000000000000000000008152600401612546906138ae565b60405180910390fd5b600060608673ffffffffffffffffffffffffffffffffffffffff16858760405161257991906134e9565b60006040518083038185875af1925050503d80600081146125b6576040519150601f19603f3d011682016040523d82523d6000602084013e6125bb565b606091505b50915091506125cb8282866125d7565b92505050949350505050565b606083156125e757829050612637565b6000835111156125fa5782518084602001fd5b816040517f08c379a000000000000000000000000000000000000000000000000000000000815260040161262e919061364c565b60405180910390fd5b9392505050565b604051806040016040528060608152602001600081525090565b828054600181600116156101000203166002900490600052602060002090601f016020900481019282601f1061269957805160ff19168380011785556126c7565b828001600101855582156126c7579182015b828111156126c65782518255916020019190600101906126ab565b5b5090506126d491906126d8565b5090565b5b808211156126f15760008160009055506001016126d9565b5090565b60008135905061270481613b51565b92915050565b60008135905061271981613b68565b92915050565b60008135905061272e81613b7f565b92915050565b60008151905061274381613b7f565b92915050565b600082601f83011261275a57600080fd5b813561276d61276882613916565b6138e9565b9150808252602083016020830185838301111561278957600080fd5b612794838284613afe565b50505092915050565b60008083601f8401126127af57600080fd5b8235905067ffffffffffffffff8111156127c857600080fd5b6020830191508360018202830111156127e057600080fd5b9250929050565b600082601f8301126127f857600080fd5b813561280b61280682613942565b6138e9565b9150808252602083016020830185838301111561282757600080fd5b612832838284613afe565b50505092915050565b60008135905061284a81613b96565b92915050565b60006020828403121561286257600080fd5b6000612870848285016126f5565b91505092915050565b6000806040838503121561288c57600080fd5b600061289a858286016126f5565b92505060206128ab858286016126f5565b9150509250929050565b6000806000606084860312156128ca57600080fd5b60006128d8868287016126f5565b93505060206128e9868287016126f5565b92505060406128fa8682870161283b565b9150509250925092565b6000806000806080858703121561291a57600080fd5b6000612928878288016126f5565b9450506020612939878288016126f5565b935050604061294a8782880161283b565b925050606085013567ffffffffffffffff81111561296757600080fd5b61297387828801612749565b91505092959194509250565b6000806040838503121561299257600080fd5b60006129a0858286016126f5565b92505060206129b18582860161270a565b9150509250929050565b600080604083850312156129ce57600080fd5b60006129dc858286016126f5565b92505060206129ed8582860161283b565b9150509250929050565b600060208284031215612a0957600080fd5b6000612a178482850161271f565b91505092915050565b600060208284031215612a3257600080fd5b6000612a4084828501612734565b91505092915050565b60008060208385031215612a5c57600080fd5b600083013567ffffffffffffffff811115612a7657600080fd5b612a828582860161279d565b92509250509250929050565b600060208284031215612aa057600080fd5b600082013567ffffffffffffffff811115612aba57600080fd5b612ac6848285016127e7565b91505092915050565b600060208284031215612ae157600080fd5b6000612aef8482850161283b565b91505092915050565b6000612b048383612d17565b905092915050565b6000612b18838361348e565b905092915050565b6000612b2c83836134cb565b60208301905092915050565b612b4181613a8a565b82525050565b612b5081613a78565b82525050565b6000612b618261399e565b612b6b81856139fc565b935083602082028501612b7d8561396e565b8060005b85811015612bb95784840389528151612b9a8582612af8565b9450612ba5836139d5565b925060208a01995050600181019050612b81565b50829750879550505050505092915050565b6000612bd6826139a9565b612be08185613a0d565b935083602082028501612bf28561397e565b8060005b85811015612c2e5784840389528151612c0f8582612b0c565b9450612c1a836139e2565b925060208a01995050600181019050612bf6565b50829750879550505050505092915050565b6000612c4b826139b4565b612c558185613a1e565b9350612c608361398e565b8060005b83811015612c91578151612c788882612b20565b9750612c83836139ef565b925050600181019050612c64565b5085935050505092915050565b612ca781613a9c565b82525050565b6000612cb8826139bf565b612cc28185613a2f565b9350612cd2818560208601613b0d565b612cdb81613b40565b840191505092915050565b6000612cf1826139bf565b612cfb8185613a40565b9350612d0b818560208601613b0d565b80840191505092915050565b6000612d22826139ca565b612d2c8185613a4b565b9350612d3c818560208601613b0d565b612d4581613b40565b840191505092915050565b6000612d5b826139ca565b612d658185613a5c565b9350612d75818560208601613b0d565b612d7e81613b40565b840191505092915050565b6000612d94826139ca565b612d9e8185613a6d565b9350612dae818560208601613b0d565b80840191505092915050565b6000612dc7602283613a5c565b91507f456e756d657261626c655365743a20696e646578206f7574206f6620626f756e60008301527f64730000000000000000000000000000000000000000000000000000000000006020830152604082019050919050565b6000612e2d603283613a5c565b91507f4552433732313a207472616e7366657220746f206e6f6e20455243373231526560008301527f63656976657220696d706c656d656e74657200000000000000000000000000006020830152604082019050919050565b6000612e93601c83613a5c565b91507f4552433732313a20746f6b656e20616c7265616479206d696e746564000000006000830152602082019050919050565b6000612ed3602483613a5c565b91507f4552433732313a207472616e7366657220746f20746865207a65726f2061646460008301527f72657373000000000000000000000000000000000000000000000000000000006020830152604082019050919050565b6000612f39601983613a5c565b91507f4552433732313a20617070726f766520746f2063616c6c6572000000000000006000830152602082019050919050565b6000612f79602683613a5c565b91507f416464726573733a20696e73756666696369656e742062616c616e636520666f60008301527f722063616c6c00000000000000000000000000000000000000000000000000006020830152604082019050919050565b6000612fdf602c83613a5c565b91507f4552433732313a206f70657261746f7220717565727920666f72206e6f6e657860008301527f697374656e7420746f6b656e00000000000000000000000000000000000000006020830152604082019050919050565b6000613045603883613a5c565b91507f4552433732313a20617070726f76652063616c6c6572206973206e6f74206f7760008301527f6e6572206e6f7220617070726f76656420666f7220616c6c00000000000000006020830152604082019050919050565b60006130ab602a83613a5c565b91507f4552433732313a2062616c616e636520717565727920666f7220746865207a6560008301527f726f2061646472657373000000000000000000000000000000000000000000006020830152604082019050919050565b6000613111602283613a5c565b91507f456e756d657261626c654d61703a20696e646578206f7574206f6620626f756e60008301527f64730000000000000000000000000000000000000000000000000000000000006020830152604082019050919050565b6000613177602083613a5c565b91507f4552433732313a206d696e7420746f20746865207a65726f20616464726573736000830152602082019050919050565b60006131b7602c83613a5c565b91507f4552433732313a20617070726f76656420717565727920666f72206e6f6e657860008301527f697374656e7420746f6b656e00000000000000000000000000000000000000006020830152604082019050919050565b600061321d602c83613a5c565b91507f4552433732314d657461646174613a2055524920736574206f66206e6f6e657860008301527f697374656e7420746f6b656e00000000000000000000000000000000000000006020830152604082019050919050565b6000613283602983613a5c565b91507f4552433732313a207472616e73666572206f6620746f6b656e2074686174206960008301527f73206e6f74206f776e00000000000000000000000000000000000000000000006020830152604082019050919050565b60006132e9601283613a5c565b91507f4164647265737320696e636f72726563746f00000000000000000000000000006000830152602082019050919050565b6000613329602f83613a5c565b91507f4552433732314d657461646174613a2055524920717565727920666f72206e6f60008301527f6e6578697374656e7420746f6b656e00000000000000000000000000000000006020830152604082019050919050565b600061338f602183613a5c565b91507f4552433732313a20617070726f76616c20746f2063757272656e74206f776e6560008301527f72000000000000000000000000000000000000000000000000000000000000006020830152604082019050919050565b60006133f5603183613a5c565b91507f4552433732313a207472616e736665722063616c6c6572206973206e6f74206f60008301527f776e6572206e6f7220617070726f7665640000000000000000000000000000006020830152604082019050919050565b600061345b601d83613a5c565b91507f416464726573733a2063616c6c20746f206e6f6e2d636f6e74726163740000006000830152602082019050919050565b600060408301600083015184820360008601526134ab8282612d17565b91505060208301516134c060208601826134cb565b508091505092915050565b6134d481613af4565b82525050565b6134e381613af4565b82525050565b60006134f58284612ce6565b915081905092915050565b600061350c8284612d89565b915081905092915050565b60006135238285612d89565b915061352f8284612d89565b91508190509392505050565b60006020820190506135506000830184612b47565b92915050565b600060208201905061356b6000830184612b38565b92915050565b60006080820190506135866000830187612b38565b6135936020830186612b47565b6135a060408301856134da565b81810360608301526135b28184612cad565b905095945050505050565b600060208201905081810360008301526135d78184612b56565b905092915050565b600060208201905081810360008301526135f98184612bcb565b905092915050565b6000604082019050818103600083015261361b8185612c40565b905061362a6020830184612c9e565b9392505050565b60006020820190506136466000830184612c9e565b92915050565b600060208201905081810360008301526136668184612d50565b905092915050565b6000602082019050818103600083015261368781612dba565b9050919050565b600060208201905081810360008301526136a781612e20565b9050919050565b600060208201905081810360008301526136c781612e86565b9050919050565b600060208201905081810360008301526136e781612ec6565b9050919050565b6000602082019050818103600083015261370781612f2c565b9050919050565b6000602082019050818103600083015261372781612f6c565b9050919050565b6000602082019050818103600083015261374781612fd2565b9050919050565b6000602082019050818103600083015261376781613038565b9050919050565b600060208201905081810360008301526137878161309e565b9050919050565b600060208201905081810360008301526137a781613104565b9050919050565b600060208201905081810360008301526137c78161316a565b9050919050565b600060208201905081810360008301526137e7816131aa565b9050919050565b6000602082019050818103600083015261380781613210565b9050919050565b6000602082019050818103600083015261382781613276565b9050919050565b60006020820190508181036000830152613847816132dc565b9050919050565b600060208201905081810360008301526138678161331c565b9050919050565b6000602082019050818103600083015261388781613382565b9050919050565b600060208201905081810360008301526138a7816133e8565b9050919050565b600060208201905081810360008301526138c78161344e565b9050919050565b60006020820190506138e360008301846134da565b92915050565b6000604051905081810181811067ffffffffffffffff8211171561390c57600080fd5b8060405250919050565b600067ffffffffffffffff82111561392d57600080fd5b601f19601f8301169050602081019050919050565b600067ffffffffffffffff82111561395957600080fd5b601f19601f8301169050602081019050919050565b6000819050602082019050919050565b6000819050602082019050919050565b6000819050602082019050919050565b600081519050919050565b600081519050919050565b600081519050919050565b600081519050919050565b600081519050919050565b6000602082019050919050565b6000602082019050919050565b6000602082019050919050565b600082825260208201905092915050565b600082825260208201905092915050565b600082825260208201905092915050565b600082825260208201905092915050565b600081905092915050565b600082825260208201905092915050565b600082825260208201905092915050565b600081905092915050565b6000613a8382613ad4565b9050919050565b6000613a9582613ad4565b9050919050565b60008115159050919050565b60007fffffffff0000000000000000000000000000000000000000000000000000000082169050919050565b600073ffffffffffffffffffffffffffffffffffffffff82169050919050565b6000819050919050565b82818337600083830152505050565b60005b83811015613b2b578082015181840152602081019050613b10565b83811115613b3a576000848401525b50505050565b6000601f19601f8301169050919050565b613b5a81613a78565b8114613b6557600080fd5b50565b613b7181613a9c565b8114613b7c57600080fd5b50565b613b8881613aa8565b8114613b9357600080fd5b50565b613b9f81613af4565b8114613baa57600080fd5b5056fe4552433732313a207472616e7366657220746f206e6f6e20455243373231526563656976657220696d706c656d656e7465724552433732313a206f776e657220717565727920666f72206e6f6e6578697374656e7420746f6b656ea264697066735822122085dafa7f7db7ab7c8701bfc02a0e2e3422fd89cbb0399429cc19a850f3bd3f4b64736f6c634300060c0033",
  "immutableReferences": {},
  "source": "// contracts/GameItem.sol\r\n// SPDX-License-Identifier: MIT\r\npragma solidity <0.9.0;\r\npragma experimental ABIEncoderV2;\r\n\r\nimport \"@openzeppelin/contracts/token/ERC721/ERC721.sol\";\r\nimport \"@openzeppelin/contracts/utils/Counters.sol\";\r\n\r\ncontract Valid is ERC721 {\r\n    using Counters for Counters.Counter;\r\n    Counters.Counter private _tokenIds;\r\n    address payable public ownerbalance;\r\n\r\n    function createItem(string calldata tokenURI) external payable {\r\n        _tokenIds.increment();\r\n        _mint(msg.sender, _tokenIds.current());\r\n        _setTokenURI(_tokenIds.current(), tokenURI);\r\n    }\r\n\r\n    struct documentData {\r\n        string hash;\r\n        uint256 tokenid;\r\n    }\r\n    modifier onlyOwner() {\r\n        require(msg.sender == ownerbalance);\r\n        _;\r\n    }\r\n\r\n    constructor() public ERC721(\"VALID\", \"VLD\") {\r\n        ownerbalance = msg.sender;\r\n    }\r\n\r\n    function smbalance() public view returns (uint256) {\r\n        return address(this).balance;\r\n    }\r\n\r\n    function withdraw() public onlyOwner() {\r\n        ownerbalance.transfer(address(this).balance);\r\n    }\r\n\r\n    function IsHashed(string memory ipfshash)\r\n        public\r\n        view\r\n        returns (bool hashed)\r\n    {\r\n        //obtener cuantos tokens tiene el sm\r\n        uint256 nTokens = totalSupply();\r\n        if (nTokens == 0) {\r\n            return false;\r\n        }\r\n        bool exist = false;\r\n        //buscar si existe ese hash\r\n        for (uint256 i = 0; i < nTokens; i++) {\r\n            if (\r\n                keccak256(abi.encodePacked((ipfshash))) ==\r\n                keccak256(abi.encodePacked(tokenURI(tokenByIndex(i))))\r\n            ) {\r\n                exist = true;\r\n                break;\r\n            }\r\n        }\r\n        return (exist);\r\n    }\r\n\r\n    function documentsOF(address owner)\r\n        public\r\n        view\r\n        returns (documentData[] memory documents)\r\n    {\r\n        //revisar que no sea el address para quemar tokens\r\n        require(owner != address(0), \"Address incorrecto\");\r\n        //numero de tokens\r\n        uint256 nTokens = balanceOf(owner);\r\n        if (nTokens == 0) {\r\n            return (new documentData[](nTokens));\r\n        }\r\n        //arreglo con los documentos\r\n        documentData[] memory dochashes = new documentData[](nTokens);\r\n        for (uint256 i = 0; i < nTokens; i++) {\r\n            dochashes[i].hash = tokenURI(tokenOfOwnerByIndex(owner, i));\r\n            dochashes[i].tokenid = tokenOfOwnerByIndex(owner, i);\r\n        }\r\n        return (dochashes);\r\n    }\r\n\r\n    \r\n\r\n    function getAllHashes() public view returns (string[] memory tokens) {\r\n        //obtener cuantos tokens tiene el sm\r\n        uint256 nTokens = totalSupply();\r\n        if (nTokens == 0) {\r\n            return new string[](nTokens);\r\n        }\r\n        //arreglo con los documentos\r\n        string[] memory dochashes = new string[](nTokens);\r\n        for (uint256 i = 0; i < nTokens; i++) {\r\n            dochashes[i] = tokenURI(tokenByIndex(i));\r\n        }\r\n        return (dochashes);\r\n    }\r\n\r\n    function tokensOf(address owner)\r\n        public\r\n        view\r\n        returns (uint256[] memory tokens, bool success)\r\n    {\r\n        //revisar que no sea el address para quemar tokens\r\n        require(owner != address(0), \"Address incorrecto\");\r\n        //numero de tokens\r\n        uint256 nTokens = balanceOf(owner);\r\n        if (nTokens == 0) {\r\n            return (new uint256[](nTokens), false);\r\n        }\r\n        //require(nTokens != 0, \"no cuentas con tokens\");\r\n        //arreglo de tokens\r\n        uint256[] memory tokensOfowner = new uint256[](nTokens);\r\n        //hacer el arreglo de tokens del owner\r\n        for (uint256 i = 0; i < nTokens; i++) {\r\n            tokensOfowner[i] = tokenOfOwnerByIndex(owner, i);\r\n        }\r\n        return (tokensOfowner, true);\r\n    }\r\n}\r\n",
  "sourcePath": "C:\\Users\\William\\Documents\\cloudMex\\validafy\\validafy\\SContracts\\contracts\\Valid.sol",
  "compiler": {
    "name": "solc",
    "version": "0.6.12+commit.27d51765.Emscripten.clang"
  },
  "schemaVersion": "3.4.3",
  "updatedAt": "2021-09-09T23:29:36.057Z",
  "devdoc": {
    "kind": "dev",
    "methods": {
      "approve(address,uint256)": {
        "details": "See {IERC721-approve}."
      },
      "balanceOf(address)": {
        "details": "See {IERC721-balanceOf}."
      },
      "baseURI()": {
        "details": "Returns the base URI set via {_setBaseURI}. This will be automatically added as a prefix in {tokenURI} to each token's URI, or to the token ID if no specific URI is set for that token ID."
      },
      "getApproved(uint256)": {
        "details": "See {IERC721-getApproved}."
      },
      "isApprovedForAll(address,address)": {
        "details": "See {IERC721-isApprovedForAll}."
      },
      "name()": {
        "details": "See {IERC721Metadata-name}."
      },
      "ownerOf(uint256)": {
        "details": "See {IERC721-ownerOf}."
      },
      "safeTransferFrom(address,address,uint256)": {
        "details": "See {IERC721-safeTransferFrom}."
      },
      "safeTransferFrom(address,address,uint256,bytes)": {
        "details": "See {IERC721-safeTransferFrom}."
      },
      "setApprovalForAll(address,bool)": {
        "details": "See {IERC721-setApprovalForAll}."
      },
      "supportsInterface(bytes4)": {
        "details": "See {IERC165-supportsInterface}. Time complexity O(1), guaranteed to always use less than 30 000 gas."
      },
      "symbol()": {
        "details": "See {IERC721Metadata-symbol}."
      },
      "tokenByIndex(uint256)": {
        "details": "See {IERC721Enumerable-tokenByIndex}."
      },
      "tokenOfOwnerByIndex(address,uint256)": {
        "details": "See {IERC721Enumerable-tokenOfOwnerByIndex}."
      },
      "tokenURI(uint256)": {
        "details": "See {IERC721Metadata-tokenURI}."
      },
      "totalSupply()": {
        "details": "See {IERC721Enumerable-totalSupply}."
      },
      "transferFrom(address,address,uint256)": {
        "details": "See {IERC721-transferFrom}."
      }
    },
    "version": 1
  },
  "userdoc": {
    "kind": "user",
    "methods": {},
    "version": 1
  }
}