{
  "contractName": "Valid",
  "abi": [
    {
      "inputs": [],
      "stateMutability": "nonpayable",
      "type": "constructor"
    },
    {
      "anonymous": false,
      "inputs": [
        {
          "indexed": true,
          "internalType": "address",
          "name": "owner",
          "type": "address"
        },
        {
          "indexed": true,
          "internalType": "address",
          "name": "approved",
          "type": "address"
        },
        {
          "indexed": true,
          "internalType": "uint256",
          "name": "tokenId",
          "type": "uint256"
        }
      ],
      "name": "Approval",
      "type": "event"
    },
    {
      "anonymous": false,
      "inputs": [
        {
          "indexed": true,
          "internalType": "address",
          "name": "owner",
          "type": "address"
        },
        {
          "indexed": true,
          "internalType": "address",
          "name": "operator",
          "type": "address"
        },
        {
          "indexed": false,
          "internalType": "bool",
          "name": "approved",
          "type": "bool"
        }
      ],
      "name": "ApprovalForAll",
      "type": "event"
    },
    {
      "anonymous": false,
      "inputs": [
        {
          "indexed": true,
          "internalType": "address",
          "name": "from",
          "type": "address"
        },
        {
          "indexed": true,
          "internalType": "address",
          "name": "to",
          "type": "address"
        },
        {
          "indexed": true,
          "internalType": "uint256",
          "name": "tokenId",
          "type": "uint256"
        }
      ],
      "name": "Transfer",
      "type": "event"
    },
    {
      "inputs": [
        {
          "internalType": "address",
          "name": "to",
          "type": "address"
        },
        {
          "internalType": "uint256",
          "name": "tokenId",
          "type": "uint256"
        }
      ],
      "name": "approve",
      "outputs": [],
      "stateMutability": "nonpayable",
      "type": "function"
    },
    {
      "inputs": [
        {
          "internalType": "address",
          "name": "owner",
          "type": "address"
        }
      ],
      "name": "balanceOf",
      "outputs": [
        {
          "internalType": "uint256",
          "name": "",
          "type": "uint256"
        }
      ],
      "stateMutability": "view",
      "type": "function",
      "constant": true
    },
    {
      "inputs": [],
      "name": "baseURI",
      "outputs": [
        {
          "internalType": "string",
          "name": "",
          "type": "string"
        }
      ],
      "stateMutability": "view",
      "type": "function",
      "constant": true
    },
    {
      "inputs": [
        {
          "internalType": "uint256",
          "name": "tokenId",
          "type": "uint256"
        }
      ],
      "name": "getApproved",
      "outputs": [
        {
          "internalType": "address",
          "name": "",
          "type": "address"
        }
      ],
      "stateMutability": "view",
      "type": "function",
      "constant": true
    },
    {
      "inputs": [
        {
          "internalType": "address",
          "name": "owner",
          "type": "address"
        },
        {
          "internalType": "address",
          "name": "operator",
          "type": "address"
        }
      ],
      "name": "isApprovedForAll",
      "outputs": [
        {
          "internalType": "bool",
          "name": "",
          "type": "bool"
        }
      ],
      "stateMutability": "view",
      "type": "function",
      "constant": true
    },
    {
      "inputs": [
        {
          "internalType": "uint256",
          "name": "",
          "type": "uint256"
        }
      ],
      "name": "metadata",
      "outputs": [
        {
          "internalType": "string",
          "name": "hash",
          "type": "string"
        },
        {
          "internalType": "uint256",
          "name": "_date",
          "type": "uint256"
        },
        {
          "internalType": "address",
          "name": "_owner",
          "type": "address"
        },
        {
          "internalType": "bytes32",
          "name": "_blockhash",
          "type": "bytes32"
        },
        {
          "internalType": "string",
          "name": "_fileName",
          "type": "string"
        },
        {
          "internalType": "string",
          "name": "_explorerUrl",
          "type": "string"
        },
        {
          "internalType": "uint256",
          "name": "_blocknumber",
          "type": "uint256"
        }
      ],
      "stateMutability": "view",
      "type": "function",
      "constant": true
    },
    {
      "inputs": [],
      "name": "name",
      "outputs": [
        {
          "internalType": "string",
          "name": "",
          "type": "string"
        }
      ],
      "stateMutability": "view",
      "type": "function",
      "constant": true
    },
    {
      "inputs": [
        {
          "internalType": "uint256",
          "name": "tokenId",
          "type": "uint256"
        }
      ],
      "name": "ownerOf",
      "outputs": [
        {
          "internalType": "address",
          "name": "",
          "type": "address"
        }
      ],
      "stateMutability": "view",
      "type": "function",
      "constant": true
    },
    {
      "inputs": [],
      "name": "ownerbalance",
      "outputs": [
        {
          "internalType": "address payable",
          "name": "",
          "type": "address"
        }
      ],
      "stateMutability": "view",
      "type": "function",
      "constant": true
    },
    {
      "inputs": [
        {
          "internalType": "address",
          "name": "from",
          "type": "address"
        },
        {
          "internalType": "address",
          "name": "to",
          "type": "address"
        },
        {
          "internalType": "uint256",
          "name": "tokenId",
          "type": "uint256"
        }
      ],
      "name": "safeTransferFrom",
      "outputs": [],
      "stateMutability": "nonpayable",
      "type": "function"
    },
    {
      "inputs": [
        {
          "internalType": "address",
          "name": "from",
          "type": "address"
        },
        {
          "internalType": "address",
          "name": "to",
          "type": "address"
        },
        {
          "internalType": "uint256",
          "name": "tokenId",
          "type": "uint256"
        },
        {
          "internalType": "bytes",
          "name": "_data",
          "type": "bytes"
        }
      ],
      "name": "safeTransferFrom",
      "outputs": [],
      "stateMutability": "nonpayable",
      "type": "function"
    },
    {
      "inputs": [
        {
          "internalType": "address",
          "name": "operator",
          "type": "address"
        },
        {
          "internalType": "bool",
          "name": "approved",
          "type": "bool"
        }
      ],
      "name": "setApprovalForAll",
      "outputs": [],
      "stateMutability": "nonpayable",
      "type": "function"
    },
    {
      "inputs": [
        {
          "internalType": "bytes4",
          "name": "interfaceId",
          "type": "bytes4"
        }
      ],
      "name": "supportsInterface",
      "outputs": [
        {
          "internalType": "bool",
          "name": "",
          "type": "bool"
        }
      ],
      "stateMutability": "view",
      "type": "function",
      "constant": true
    },
    {
      "inputs": [],
      "name": "symbol",
      "outputs": [
        {
          "internalType": "string",
          "name": "",
          "type": "string"
        }
      ],
      "stateMutability": "view",
      "type": "function",
      "constant": true
    },
    {
      "inputs": [
        {
          "internalType": "uint256",
          "name": "index",
          "type": "uint256"
        }
      ],
      "name": "tokenByIndex",
      "outputs": [
        {
          "internalType": "uint256",
          "name": "",
          "type": "uint256"
        }
      ],
      "stateMutability": "view",
      "type": "function",
      "constant": true
    },
    {
      "inputs": [
        {
          "internalType": "address",
          "name": "owner",
          "type": "address"
        },
        {
          "internalType": "uint256",
          "name": "index",
          "type": "uint256"
        }
      ],
      "name": "tokenOfOwnerByIndex",
      "outputs": [
        {
          "internalType": "uint256",
          "name": "",
          "type": "uint256"
        }
      ],
      "stateMutability": "view",
      "type": "function",
      "constant": true
    },
    {
      "inputs": [
        {
          "internalType": "uint256",
          "name": "tokenId",
          "type": "uint256"
        }
      ],
      "name": "tokenURI",
      "outputs": [
        {
          "internalType": "string",
          "name": "",
          "type": "string"
        }
      ],
      "stateMutability": "view",
      "type": "function",
      "constant": true
    },
    {
      "inputs": [],
      "name": "totalSupply",
      "outputs": [
        {
          "internalType": "uint256",
          "name": "",
          "type": "uint256"
        }
      ],
      "stateMutability": "view",
      "type": "function",
      "constant": true
    },
    {
      "inputs": [
        {
          "internalType": "address",
          "name": "from",
          "type": "address"
        },
        {
          "internalType": "address",
          "name": "to",
          "type": "address"
        },
        {
          "internalType": "uint256",
          "name": "tokenId",
          "type": "uint256"
        }
      ],
      "name": "transferFrom",
      "outputs": [],
      "stateMutability": "nonpayable",
      "type": "function"
    },
    {
      "inputs": [
        {
          "internalType": "string",
          "name": "tokenURI",
          "type": "string"
        },
        {
          "internalType": "string",
          "name": "fileName",
          "type": "string"
        },
        {
          "internalType": "string",
          "name": "explorerUrl",
          "type": "string"
        }
      ],
      "name": "createItem",
      "outputs": [],
      "stateMutability": "payable",
      "type": "function",
      "payable": true
    },
    {
      "inputs": [],
      "name": "smbalance",
      "outputs": [
        {
          "internalType": "uint256",
          "name": "",
          "type": "uint256"
        }
      ],
      "stateMutability": "view",
      "type": "function",
      "constant": true
    },
    {
      "inputs": [],
      "name": "withdraw",
      "outputs": [],
      "stateMutability": "nonpayable",
      "type": "function"
    },
    {
      "inputs": [
        {
          "internalType": "string",
          "name": "ipfshash",
          "type": "string"
        }
      ],
      "name": "IsHashed",
      "outputs": [
        {
          "internalType": "bool",
          "name": "hashed",
          "type": "bool"
        }
      ],
      "stateMutability": "view",
      "type": "function",
      "constant": true
    },
    {
      "inputs": [
        {
          "internalType": "address",
          "name": "owner",
          "type": "address"
        }
      ],
      "name": "documentsOF",
      "outputs": [
        {
          "components": [
            {
              "internalType": "string",
              "name": "hash",
              "type": "string"
            },
            {
              "internalType": "uint256",
              "name": "tokenid",
              "type": "uint256"
            },
            {
              "internalType": "uint256",
              "name": "_date",
              "type": "uint256"
            },
            {
              "internalType": "address",
              "name": "_owner",
              "type": "address"
            },
            {
              "internalType": "bytes32",
              "name": "_blockhash",
              "type": "bytes32"
            },
            {
              "internalType": "string",
              "name": "_fileName",
              "type": "string"
            },
            {
              "internalType": "string",
              "name": "_explorerUrl",
              "type": "string"
            },
            {
              "internalType": "uint256",
              "name": "_blocknumber",
              "type": "uint256"
            }
          ],
          "internalType": "struct Valid.documentData[]",
          "name": "documents",
          "type": "tuple[]"
        }
      ],
      "stateMutability": "view",
      "type": "function",
      "constant": true
    },
    {
      "inputs": [],
      "name": "getAllHashes",
      "outputs": [
        {
          "internalType": "string[]",
          "name": "tokens",
          "type": "string[]"
        }
      ],
      "stateMutability": "view",
      "type": "function",
      "constant": true
    },
    {
      "inputs": [
        {
          "internalType": "address",
          "name": "owner",
          "type": "address"
        }
      ],
      "name": "tokensOf",
      "outputs": [
        {
          "internalType": "uint256[]",
          "name": "tokens",
          "type": "uint256[]"
        },
        {
          "internalType": "bool",
          "name": "success",
          "type": "bool"
        }
      ],
      "stateMutability": "view",
      "type": "function",
      "constant": true
    }
  ],
  "bytecode": "0x60806040523480156200001157600080fd5b506040518060400160405280600581526020017f56414c49440000000000000000000000000000000000000000000000000000008152506040518060400160405280600381526020017f564c440000000000000000000000000000000000000000000000000000000000815250620000966301ffc9a760e01b6200015960201b60201c565b8160069080519060200190620000ae92919062000262565b508060079080519060200190620000c792919062000262565b50620000e06380ac58cd60e01b6200015960201b60201c565b620000f8635b5e139f60e01b6200015960201b60201c565b6200011063780e9d6360e01b6200015960201b60201c565b505033600b60006101000a81548173ffffffffffffffffffffffffffffffffffffffff021916908373ffffffffffffffffffffffffffffffffffffffff16021790555062000318565b63ffffffff60e01b817bffffffffffffffffffffffffffffffffffffffffffffffffffffffff19161415620001f6576040517f08c379a000000000000000000000000000000000000000000000000000000000815260040180806020018281038252601c8152602001807f4552433136353a20696e76616c696420696e746572666163652069640000000081525060200191505060405180910390fd5b6001600080837bffffffffffffffffffffffffffffffffffffffffffffffffffffffff19167bffffffffffffffffffffffffffffffffffffffffffffffffffffffff1916815260200190815260200160002060006101000a81548160ff02191690831515021790555050565b828054600181600116156101000203166002900490600052602060002090601f0160209004810192826200029a5760008555620002e6565b82601f10620002b557805160ff1916838001178555620002e6565b82800160010185558215620002e6579182015b82811115620002e5578251825591602001919060010190620002c8565b5b509050620002f59190620002f9565b5090565b5b8082111562000314576000816000905550600101620002fa565b5090565b61434680620003286000396000f3fe6080604052600436106101815760003560e01c80636c0360eb116100d1578063c38d39a51161008a578063e3684e3911610064578063e3684e39146105c0578063e985e9c514610603578063fa221e6614610640578063fe99f7421461066b57610181565b8063c38d39a51461051b578063c87b56dd14610546578063e02ddea41461058357610181565b80636c0360eb1461041a57806370a0823114610445578063876ab02b1461048257806395d89b411461049e578063a22cb465146104c9578063b88d4fde146104f257610181565b806323b872dd1161013e57806342842e0e1161011857806342842e0e146103395780634f6ccce7146103625780635a3f26721461039f5780636352211e146103dd57610181565b806323b872dd146102bc5780632f745c59146102e55780633ccfd60b1461032257610181565b806301ffc9a71461018657806306fdde03146101c3578063081812fc146101ee578063095ea7b31461022b57806318160ddd146102545780631c4d1d311461027f575b600080fd5b34801561019257600080fd5b506101ad60048036038101906101a8919061374d565b610696565b6040516101ba9190613ce6565b60405180910390f35b3480156101cf57600080fd5b506101d86106fd565b6040516101e59190613d01565b60405180910390f35b3480156101fa57600080fd5b506102156004803603810190610210919061385b565b61079f565b6040516102229190613c3c565b60405180910390f35b34801561023757600080fd5b50610252600480360381019061024d9190613711565b61083a565b005b34801561026057600080fd5b5061026961097e565b6040516102769190613dc7565b60405180910390f35b34801561028b57600080fd5b506102a660048036038101906102a1919061381a565b61098f565b6040516102b39190613ce6565b60405180910390f35b3480156102c857600080fd5b506102e360048036038101906102de919061360b565b610a41565b005b3480156102f157600080fd5b5061030c60048036038101906103079190613711565b610ab7565b6040516103199190613dc7565b60405180910390f35b34801561032e57600080fd5b50610337610b12565b005b34801561034557600080fd5b50610360600480360381019061035b919061360b565b610bd7565b005b34801561036e57600080fd5b506103896004803603810190610384919061385b565b610bf7565b6040516103969190613dc7565b60405180910390f35b3480156103ab57600080fd5b506103c660048036038101906103c191906135a6565b610c1a565b6040516103d4929190613cb6565b60405180910390f35b3480156103e957600080fd5b5061040460048036038101906103ff919061385b565b610d8b565b6040516104119190613c3c565b60405180910390f35b34801561042657600080fd5b5061042f610dc2565b60405161043c9190613d01565b60405180910390f35b34801561045157600080fd5b5061046c600480360381019061046791906135a6565b610e64565b6040516104799190613dc7565b60405180910390f35b61049c60048036038101906104979190613776565b610f39565b005b3480156104aa57600080fd5b506104b36111c9565b6040516104c09190613d01565b60405180910390f35b3480156104d557600080fd5b506104f060048036038101906104eb91906136d5565b61126b565b005b3480156104fe57600080fd5b506105196004803603810190610514919061365a565b611421565b005b34801561052757600080fd5b50610530611499565b60405161053d9190613c57565b60405180910390f35b34801561055257600080fd5b5061056d6004803603810190610568919061385b565b6114bf565b60405161057a9190613d01565b60405180910390f35b34801561058f57600080fd5b506105aa60048036038101906105a591906135a6565b611790565b6040516105b79190613c94565b60405180910390f35b3480156105cc57600080fd5b506105e760048036038101906105e2919061385b565b611c77565b6040516105fa9796959493929190613d23565b60405180910390f35b34801561060f57600080fd5b5061062a600480360381019061062591906135cf565b611ea1565b6040516106379190613ce6565b60405180910390f35b34801561064c57600080fd5b50610655611f35565b6040516106629190613dc7565b60405180910390f35b34801561067757600080fd5b50610680611f3d565b60405161068d9190613c72565b60405180910390f35b6000806000837bffffffffffffffffffffffffffffffffffffffffffffffffffffffff19167bffffffffffffffffffffffffffffffffffffffffffffffffffffffff1916815260200190815260200160002060009054906101000a900460ff169050919050565b606060068054600181600116156101000203166002900480601f0160208091040260200160405190810160405280929190818152602001828054600181600116156101000203166002900480156107955780601f1061076a57610100808354040283529160200191610795565b820191906000526020600020905b81548152906001019060200180831161077857829003601f168201915b5050505050905090565b60006107aa82612042565b6107ff576040517f08c379a000000000000000000000000000000000000000000000000000000000815260040180806020018281038252602c81526020018061420f602c913960400191505060405180910390fd5b6004600083815260200190815260200160002060009054906101000a900473ffffffffffffffffffffffffffffffffffffffff169050919050565b600061084582610d8b565b90508073ffffffffffffffffffffffffffffffffffffffff168373ffffffffffffffffffffffffffffffffffffffff1614156108cc576040517f08c379a00000000000000000000000000000000000000000000000000000000081526004018080602001828103825260218152602001806142bf6021913960400191505060405180910390fd5b8073ffffffffffffffffffffffffffffffffffffffff166108eb61205f565b73ffffffffffffffffffffffffffffffffffffffff16148061091a57506109198161091461205f565b611ea1565b5b61096f576040517f08c379a00000000000000000000000000000000000000000000000000000000081526004018080602001828103825260388152602001806141626038913960400191505060405180910390fd5b6109798383612067565b505050565b600061098a6002612120565b905090565b60008061099a61097e565b905060008114156109af576000915050610a3c565b6000805b82811015610a35576109cc6109c782610bf7565b6114bf565b6040516020016109dc9190613c25565b6040516020818303038152906040528051906020012085604051602001610a039190613c25565b604051602081830303815290604052805190602001201415610a285760019150610a35565b80806001019150506109b3565b5080925050505b919050565b610a52610a4c61205f565b82612135565b610aa7576040517f08c379a00000000000000000000000000000000000000000000000000000000081526004018080602001828103825260318152602001806142e06031913960400191505060405180910390fd5b610ab2838383612229565b505050565b6000610b0a82600160008673ffffffffffffffffffffffffffffffffffffffff1673ffffffffffffffffffffffffffffffffffffffff16815260200190815260200160002061246c90919063ffffffff16565b905092915050565b600b60009054906101000a900473ffffffffffffffffffffffffffffffffffffffff1673ffffffffffffffffffffffffffffffffffffffff163373ffffffffffffffffffffffffffffffffffffffff1614610b6c57600080fd5b600b60009054906101000a900473ffffffffffffffffffffffffffffffffffffffff1673ffffffffffffffffffffffffffffffffffffffff166108fc479081150290604051600060405180830381858888f19350505050158015610bd4573d6000803e3d6000fd5b50565b610bf283838360405180602001604052806000815250611421565b505050565b600080610c0e83600261248690919063ffffffff16565b50905080915050919050565b606060008073ffffffffffffffffffffffffffffffffffffffff168373ffffffffffffffffffffffffffffffffffffffff161415610c8d576040517f08c379a0000000000000000000000000000000000000000000000000000000008152600401610c8490613da7565b60405180910390fd5b6000610c9884610e64565b90506000811415610cf6578067ffffffffffffffff81118015610cba57600080fd5b50604051908082528060200260200182016040528015610ce95781602001602082028036833780820191505090505b5060009250925050610d86565b60008167ffffffffffffffff81118015610d0f57600080fd5b50604051908082528060200260200182016040528015610d3e5781602001602082028036833780820191505090505b50905060005b82811015610d7b57610d568682610ab7565b828281518110610d6257fe5b6020026020010181815250508080600101915050610d44565b508060019350935050505b915091565b6000610dbb826040518060600160405280602981526020016141c46029913960026124b29092919063ffffffff16565b9050919050565b606060098054600181600116156101000203166002900480601f016020809104026020016040519081016040528092919081815260200182805460018160011615610100020316600290048015610e5a5780601f10610e2f57610100808354040283529160200191610e5a565b820191906000526020600020905b815481529060010190602001808311610e3d57829003601f168201915b5050505050905090565b60008073ffffffffffffffffffffffffffffffffffffffff168273ffffffffffffffffffffffffffffffffffffffff161415610eeb576040517f08c379a000000000000000000000000000000000000000000000000000000000815260040180806020018281038252602a81526020018061419a602a913960400191505060405180910390fd5b610f32600160008473ffffffffffffffffffffffffffffffffffffffff1673ffffffffffffffffffffffffffffffffffffffff1681526020019081526020016000206124d1565b9050919050565b610f43600a6124e6565b610f5633610f51600a6124fc565b61250a565b610fad610f63600a6124fc565b87878080601f016020809104026020016040519081016040528093929190818152602001838380828437600081840152601f19601f820116905080830192505050505050506126fe565b6040518060e0016040528087878080601f016020809104026020016040519081016040528093929190818152602001838380828437600081840152601f19601f820116905080830192505050505050508152602001428152602001600b60009054906101000a900473ffffffffffffffffffffffffffffffffffffffff1673ffffffffffffffffffffffffffffffffffffffff168152602001600040815260200185858080601f016020809104026020016040519081016040528093929190818152602001838380828437600081840152601f19601f82011690508083019250505050505050815260200183838080601f016020809104026020016040519081016040528093929190818152602001838380828437600081840152601f19601f82011690508083019250505050505050815260200143815250600c60006110f4600a6124fc565b8152602001908152602001600020600082015181600001908051906020019061111e92919061332f565b506020820151816001015560408201518160020160006101000a81548173ffffffffffffffffffffffffffffffffffffffff021916908373ffffffffffffffffffffffffffffffffffffffff16021790555060608201518160030155608082015181600401908051906020019061119692919061332f565b5060a08201518160050190805190602001906111b392919061332f565b5060c08201518160060155905050505050505050565b606060078054600181600116156101000203166002900480601f0160208091040260200160405190810160405280929190818152602001828054600181600116156101000203166002900480156112615780601f1061123657610100808354040283529160200191611261565b820191906000526020600020905b81548152906001019060200180831161124457829003601f168201915b5050505050905090565b61127361205f565b73ffffffffffffffffffffffffffffffffffffffff168273ffffffffffffffffffffffffffffffffffffffff161415611314576040517f08c379a00000000000000000000000000000000000000000000000000000000081526004018080602001828103825260198152602001807f4552433732313a20617070726f766520746f2063616c6c65720000000000000081525060200191505060405180910390fd5b806005600061132161205f565b73ffffffffffffffffffffffffffffffffffffffff1673ffffffffffffffffffffffffffffffffffffffff16815260200190815260200160002060008473ffffffffffffffffffffffffffffffffffffffff1673ffffffffffffffffffffffffffffffffffffffff16815260200190815260200160002060006101000a81548160ff0219169083151502179055508173ffffffffffffffffffffffffffffffffffffffff166113ce61205f565b73ffffffffffffffffffffffffffffffffffffffff167f17307eab39ab6107e8899845ad3d59bd9653f200f220920489ca2b5937696c318360405180821515815260200191505060405180910390a35050565b61143261142c61205f565b83612135565b611487576040517f08c379a00000000000000000000000000000000000000000000000000000000081526004018080602001828103825260318152602001806142e06031913960400191505060405180910390fd5b61149384848484612788565b50505050565b600b60009054906101000a900473ffffffffffffffffffffffffffffffffffffffff1681565b60606114ca82612042565b61151f576040517f08c379a000000000000000000000000000000000000000000000000000000000815260040180806020018281038252602f815260200180614290602f913960400191505060405180910390fd5b6000600860008481526020019081526020016000208054600181600116156101000203166002900480601f0160208091040260200160405190810160405280929190818152602001828054600181600116156101000203166002900480156115c85780601f1061159d576101008083540402835291602001916115c8565b820191906000526020600020905b8154815290600101906020018083116115ab57829003601f168201915b5050505050905060006115d9610dc2565b90506000815114156115ef57819250505061178b565b6000825111156116c05780826040516020018083805190602001908083835b60208310611631578051825260208201915060208101905060208303925061160e565b6001836020036101000a03801982511681845116808217855250505050505090500182805190602001908083835b60208310611682578051825260208201915060208101905060208303925061165f565b6001836020036101000a038019825116818451168082178552505050505050905001925050506040516020818303038152906040529250505061178b565b806116ca856127fa565b6040516020018083805190602001908083835b6020831061170057805182526020820191506020810190506020830392506116dd565b6001836020036101000a03801982511681845116808217855250505050505090500182805190602001908083835b60208310611751578051825260208201915060208101905060208303925061172e565b6001836020036101000a03801982511681845116808217855250505050505090500192505050604051602081830303815290604052925050505b919050565b6060600073ffffffffffffffffffffffffffffffffffffffff168273ffffffffffffffffffffffffffffffffffffffff161415611802576040517f08c379a00000000000000000000000000000000000000000000000000000000081526004016117f990613da7565b60405180910390fd5b600061180d83610e64565b90506000811415611872578067ffffffffffffffff8111801561182f57600080fd5b5060405190808252806020026020018201604052801561186957816020015b6118566133bd565b81526020019060019003908161184e5790505b50915050611c72565b60008167ffffffffffffffff8111801561188b57600080fd5b506040519080825280602002602001820160405280156118c557816020015b6118b26133bd565b8152602001906001900390816118aa5790505b50905060005b82811015611c6b576118e56118e08683610ab7565b6114bf565b8282815181106118f157fe5b60200260200101516000018190525061190a8582610ab7565b82828151811061191657fe5b60200260200101516020018181525050600c600083838151811061193657fe5b60200260200101516020015181526020019081526020016000206001015482828151811061196057fe5b60200260200101516040018181525050600c600083838151811061198057fe5b602002602001015160200151815260200190815260200160002060020160009054906101000a900473ffffffffffffffffffffffffffffffffffffffff168282815181106119ca57fe5b60200260200101516060019073ffffffffffffffffffffffffffffffffffffffff16908173ffffffffffffffffffffffffffffffffffffffff1681525050600c6000838381518110611a1857fe5b60200260200101516020015181526020019081526020016000206004018054600181600116156101000203166002900480601f016020809104026020016040519081016040528092919081815260200182805460018160011615610100020316600290048015611ac95780601f10611a9e57610100808354040283529160200191611ac9565b820191906000526020600020905b815481529060010190602001808311611aac57829003601f168201915b5050505050828281518110611ada57fe5b602002602001015160a00181905250600c6000838381518110611af957fe5b60200260200101516020015181526020019081526020016000206005018054600181600116156101000203166002900480601f016020809104026020016040519081016040528092919081815260200182805460018160011615610100020316600290048015611baa5780601f10611b7f57610100808354040283529160200191611baa565b820191906000526020600020905b815481529060010190602001808311611b8d57829003601f168201915b5050505050828281518110611bbb57fe5b602002602001015160c00181905250600c6000838381518110611bda57fe5b602002602001015160200151815260200190815260200160002060030154828281518110611c0457fe5b60200260200101516080018181525050600c6000838381518110611c2457fe5b602002602001015160200151815260200190815260200160002060060154828281518110611c4e57fe5b602002602001015160e001818152505080806001019150506118cb565b5080925050505b919050565b600c602052806000526040600020600091509050806000018054600181600116156101000203166002900480601f016020809104026020016040519081016040528092919081815260200182805460018160011615610100020316600290048015611d235780601f10611cf857610100808354040283529160200191611d23565b820191906000526020600020905b815481529060010190602001808311611d0657829003601f168201915b5050505050908060010154908060020160009054906101000a900473ffffffffffffffffffffffffffffffffffffffff1690806003015490806004018054600181600116156101000203166002900480601f016020809104026020016040519081016040528092919081815260200182805460018160011615610100020316600290048015611df35780601f10611dc857610100808354040283529160200191611df3565b820191906000526020600020905b815481529060010190602001808311611dd657829003601f168201915b505050505090806005018054600181600116156101000203166002900480601f016020809104026020016040519081016040528092919081815260200182805460018160011615610100020316600290048015611e915780601f10611e6657610100808354040283529160200191611e91565b820191906000526020600020905b815481529060010190602001808311611e7457829003601f168201915b5050505050908060060154905087565b6000600560008473ffffffffffffffffffffffffffffffffffffffff1673ffffffffffffffffffffffffffffffffffffffff16815260200190815260200160002060008373ffffffffffffffffffffffffffffffffffffffff1673ffffffffffffffffffffffffffffffffffffffff16815260200190815260200160002060009054906101000a900460ff16905092915050565b600047905090565b60606000611f4961097e565b90506000811415611fa8578067ffffffffffffffff81118015611f6b57600080fd5b50604051908082528060200260200182016040528015611f9f57816020015b6060815260200190600190039081611f8a5790505b5091505061203f565b60008167ffffffffffffffff81118015611fc157600080fd5b50604051908082528060200260200182016040528015611ff557816020015b6060815260200190600190039081611fe05790505b50905060005b828110156120385761201461200f82610bf7565b6114bf565b82828151811061202057fe5b60200260200101819052508080600101915050611ffb565b5080925050505b90565b600061205882600261294190919063ffffffff16565b9050919050565b600033905090565b816004600083815260200190815260200160002060006101000a81548173ffffffffffffffffffffffffffffffffffffffff021916908373ffffffffffffffffffffffffffffffffffffffff160217905550808273ffffffffffffffffffffffffffffffffffffffff166120da83610d8b565b73ffffffffffffffffffffffffffffffffffffffff167f8c5be1e5ebec7d5bd14f71427d1e84f3dd0314c0f7b2291e5b200ac8c7c3b92560405160405180910390a45050565b600061212e8260000161295b565b9050919050565b600061214082612042565b612195576040517f08c379a000000000000000000000000000000000000000000000000000000000815260040180806020018281038252602c815260200180614136602c913960400191505060405180910390fd5b60006121a083610d8b565b90508073ffffffffffffffffffffffffffffffffffffffff168473ffffffffffffffffffffffffffffffffffffffff16148061220f57508373ffffffffffffffffffffffffffffffffffffffff166121f78461079f565b73ffffffffffffffffffffffffffffffffffffffff16145b80612220575061221f8185611ea1565b5b91505092915050565b8273ffffffffffffffffffffffffffffffffffffffff1661224982610d8b565b73ffffffffffffffffffffffffffffffffffffffff16146122b5576040517f08c379a00000000000000000000000000000000000000000000000000000000081526004018080602001828103825260298152602001806142676029913960400191505060405180910390fd5b600073ffffffffffffffffffffffffffffffffffffffff168273ffffffffffffffffffffffffffffffffffffffff16141561233b576040517f08c379a00000000000000000000000000000000000000000000000000000000081526004018080602001828103825260248152602001806140ec6024913960400191505060405180910390fd5b61234683838361296c565b612351600082612067565b6123a281600160008673ffffffffffffffffffffffffffffffffffffffff1673ffffffffffffffffffffffffffffffffffffffff16815260200190815260200160002061297190919063ffffffff16565b506123f481600160008573ffffffffffffffffffffffffffffffffffffffff1673ffffffffffffffffffffffffffffffffffffffff16815260200190815260200160002061298b90919063ffffffff16565b5061240b818360026129a59092919063ffffffff16565b50808273ffffffffffffffffffffffffffffffffffffffff168473ffffffffffffffffffffffffffffffffffffffff167fddf252ad1be2c89b69c2b068fc378daa952ba7f163c4a11628f55a4df523b3ef60405160405180910390a4505050565b600061247b83600001836129da565b60001c905092915050565b6000806000806124998660000186612a5d565b915091508160001c8160001c9350935050509250929050565b60006124c5846000018460001b84612af6565b60001c90509392505050565b60006124df82600001612bec565b9050919050565b6001816000016000828254019250508190555050565b600081600001549050919050565b600073ffffffffffffffffffffffffffffffffffffffff168273ffffffffffffffffffffffffffffffffffffffff1614156125ad576040517f08c379a00000000000000000000000000000000000000000000000000000000081526004018080602001828103825260208152602001807f4552433732313a206d696e7420746f20746865207a65726f206164647265737381525060200191505060405180910390fd5b6125b681612042565b15612629576040517f08c379a000000000000000000000000000000000000000000000000000000000815260040180806020018281038252601c8152602001807f4552433732313a20746f6b656e20616c7265616479206d696e7465640000000081525060200191505060405180910390fd5b6126356000838361296c565b61268681600160008573ffffffffffffffffffffffffffffffffffffffff1673ffffffffffffffffffffffffffffffffffffffff16815260200190815260200160002061298b90919063ffffffff16565b5061269d818360026129a59092919063ffffffff16565b50808273ffffffffffffffffffffffffffffffffffffffff16600073ffffffffffffffffffffffffffffffffffffffff167fddf252ad1be2c89b69c2b068fc378daa952ba7f163c4a11628f55a4df523b3ef60405160405180910390a45050565b61270782612042565b61275c576040517f08c379a000000000000000000000000000000000000000000000000000000000815260040180806020018281038252602c81526020018061423b602c913960400191505060405180910390fd5b8060086000848152602001908152602001600020908051906020019061278392919061332f565b505050565b612793848484612229565b61279f84848484612bfd565b6127f4576040517f08c379a00000000000000000000000000000000000000000000000000000000081526004018080602001828103825260328152602001806140ba6032913960400191505060405180910390fd5b50505050565b60606000821415612842576040518060400160405280600181526020017f3000000000000000000000000000000000000000000000000000000000000000815250905061293c565b600082905060005b6000821461286c578080600101915050600a828161286457fe5b04915061284a565b60008167ffffffffffffffff8111801561288557600080fd5b506040519080825280601f01601f1916602001820160405280156128b85781602001600182028036833780820191505090505b50905060006001830390508593505b6000841461293457600a84816128d957fe5b0660300160f81b828280600190039350815181106128f357fe5b60200101907effffffffffffffffffffffffffffffffffffffffffffffffffffffffffffff1916908160001a905350600a848161292c57fe5b0493506128c7565b819450505050505b919050565b6000612953836000018360001b612e16565b905092915050565b600081600001805490509050919050565b505050565b6000612983836000018360001b612e39565b905092915050565b600061299d836000018360001b612f21565b905092915050565b60006129d1846000018460001b8473ffffffffffffffffffffffffffffffffffffffff1660001b612f91565b90509392505050565b600081836000018054905011612a3b576040517f08c379a00000000000000000000000000000000000000000000000000000000081526004018080602001828103825260228152602001806140986022913960400191505060405180910390fd5b826000018281548110612a4a57fe5b9060005260206000200154905092915050565b60008082846000018054905011612abf576040517f08c379a00000000000000000000000000000000000000000000000000000000081526004018080602001828103825260228152602001806141ed6022913960400191505060405180910390fd5b6000846000018481548110612ad057fe5b906000526020600020906002020190508060000154816001015492509250509250929050565b60008084600101600085815260200190815260200160002054905060008114158390612bbd576040517f08c379a00000000000000000000000000000000000000000000000000000000081526004018080602001828103825283818151815260200191508051906020019080838360005b83811015612b82578082015181840152602081019050612b67565b50505050905090810190601f168015612baf5780820380516001836020036101000a031916815260200191505b509250505060405180910390fd5b50846000016001820381548110612bd057fe5b9060005260206000209060020201600101549150509392505050565b600081600001805490509050919050565b6000612c1e8473ffffffffffffffffffffffffffffffffffffffff1661306d565b612c2b5760019050612e0e565b6000612d9563150b7a0260e01b612c4061205f565b888787604051602401808573ffffffffffffffffffffffffffffffffffffffff1681526020018473ffffffffffffffffffffffffffffffffffffffff16815260200183815260200180602001828103825283818151815260200191508051906020019080838360005b83811015612cc4578082015181840152602081019050612ca9565b50505050905090810190601f168015612cf15780820380516001836020036101000a031916815260200191505b5095505050505050604051602081830303815290604052907bffffffffffffffffffffffffffffffffffffffffffffffffffffffff19166020820180517bffffffffffffffffffffffffffffffffffffffffffffffffffffffff83818316178352505050506040518060600160405280603281526020016140ba603291398773ffffffffffffffffffffffffffffffffffffffff166130809092919063ffffffff16565b90506000818060200190516020811015612dae57600080fd5b8101908080519060200190929190505050905063150b7a0260e01b7bffffffffffffffffffffffffffffffffffffffffffffffffffffffff1916817bffffffffffffffffffffffffffffffffffffffffffffffffffffffff191614925050505b949350505050565b600080836001016000848152602001908152602001600020541415905092915050565b60008083600101600084815260200190815260200160002054905060008114612f155760006001820390506000600186600001805490500390506000866000018281548110612e8457fe5b9060005260206000200154905080876000018481548110612ea157fe5b9060005260206000200181905550600183018760010160008381526020019081526020016000208190555086600001805480612ed957fe5b60019003818190600052602060002001600090559055866001016000878152602001908152602001600020600090556001945050505050612f1b565b60009150505b92915050565b6000612f2d8383613098565b612f86578260000182908060018154018082558091505060019003906000526020600020016000909190919091505582600001805490508360010160008481526020019081526020016000208190555060019050612f8b565b600090505b92915050565b600080846001016000858152602001908152602001600020549050600081141561303857846000016040518060400160405280868152602001858152509080600181540180825580915050600190039060005260206000209060020201600090919091909150600082015181600001556020820151816001015550508460000180549050856001016000868152602001908152602001600020819055506001915050613066565b8285600001600183038154811061304b57fe5b90600052602060002090600202016001018190555060009150505b9392505050565b600080823b905060008111915050919050565b606061308f84846000856130bb565b90509392505050565b600080836001016000848152602001908152602001600020541415905092915050565b606082471015613116576040517f08c379a00000000000000000000000000000000000000000000000000000000081526004018080602001828103825260268152602001806141106026913960400191505060405180910390fd5b61311f8561306d565b613191576040517f08c379a000000000000000000000000000000000000000000000000000000000815260040180806020018281038252601d8152602001807f416464726573733a2063616c6c20746f206e6f6e2d636f6e747261637400000081525060200191505060405180910390fd5b6000808673ffffffffffffffffffffffffffffffffffffffff1685876040518082805190602001908083835b602083106131e057805182526020820191506020810190506020830392506131bd565b6001836020036101000a03801982511681845116808217855250505050505090500191505060006040518083038185875af1925050503d8060008114613242576040519150601f19603f3d011682016040523d82523d6000602084013e613247565b606091505b5091509150613257828286613263565b92505050949350505050565b6060831561327357829050613328565b6000835111156132865782518084602001fd5b816040517f08c379a00000000000000000000000000000000000000000000000000000000081526004018080602001828103825283818151815260200191508051906020019080838360005b838110156132ed5780820151818401526020810190506132d2565b50505050905090810190601f16801561331a5780820380516001836020036101000a031916815260200191505b509250505060405180910390fd5b9392505050565b828054600181600116156101000203166002900490600052602060002090601f01602090048101928261336557600085556133ac565b82601f1061337e57805160ff19168380011785556133ac565b828001600101855582156133ac579182015b828111156133ab578251825591602001919060010190613390565b5b5090506133b9919061341b565b5090565b604051806101000160405280606081526020016000815260200160008152602001600073ffffffffffffffffffffffffffffffffffffffff168152602001600080191681526020016060815260200160608152602001600081525090565b5b8082111561343457600081600090555060010161341c565b5090565b600061344b61344684613e13565b613de2565b90508281526020810184848401111561346357600080fd5b61346e848285613fe6565b509392505050565b600061348961348484613e43565b613de2565b9050828152602081018484840111156134a157600080fd5b6134ac848285613fe6565b509392505050565b6000813590506134c38161403b565b92915050565b6000813590506134d881614052565b92915050565b6000813590506134ed81614069565b92915050565b600082601f83011261350457600080fd5b8135613514848260208601613438565b91505092915050565b60008083601f84011261352f57600080fd5b8235905067ffffffffffffffff81111561354857600080fd5b60208301915083600182028301111561356057600080fd5b9250929050565b600082601f83011261357857600080fd5b8135613588848260208601613476565b91505092915050565b6000813590506135a081614080565b92915050565b6000602082840312156135b857600080fd5b60006135c6848285016134b4565b91505092915050565b600080604083850312156135e257600080fd5b60006135f0858286016134b4565b9250506020613601858286016134b4565b9150509250929050565b60008060006060848603121561362057600080fd5b600061362e868287016134b4565b935050602061363f868287016134b4565b925050604061365086828701613591565b9150509250925092565b6000806000806080858703121561367057600080fd5b600061367e878288016134b4565b945050602061368f878288016134b4565b93505060406136a087828801613591565b925050606085013567ffffffffffffffff8111156136bd57600080fd5b6136c9878288016134f3565b91505092959194509250565b600080604083850312156136e857600080fd5b60006136f6858286016134b4565b9250506020613707858286016134c9565b9150509250929050565b6000806040838503121561372457600080fd5b6000613732858286016134b4565b925050602061374385828601613591565b9150509250929050565b60006020828403121561375f57600080fd5b600061376d848285016134de565b91505092915050565b6000806000806000806060878903121561378f57600080fd5b600087013567ffffffffffffffff8111156137a957600080fd5b6137b589828a0161351d565b9650965050602087013567ffffffffffffffff8111156137d457600080fd5b6137e089828a0161351d565b9450945050604087013567ffffffffffffffff8111156137ff57600080fd5b61380b89828a0161351d565b92509250509295509295509295565b60006020828403121561382c57600080fd5b600082013567ffffffffffffffff81111561384657600080fd5b61385284828501613567565b91505092915050565b60006020828403121561386d57600080fd5b600061387b84828501613591565b91505092915050565b60006138908383613a66565b905092915050565b60006138a48383613b49565b905092915050565b60006138b88383613c07565b60208301905092915050565b6138cd81613f68565b82525050565b6138dc81613f56565b82525050565b6138eb81613f56565b82525050565b60006138fc82613ea3565b6139068185613ef6565b93508360208202850161391885613e73565b8060005b8581101561395457848403895281516139358582613884565b945061394083613ecf565b925060208a0199505060018101905061391c565b50829750879550505050505092915050565b600061397182613eae565b61397b8185613f07565b93508360208202850161398d85613e83565b8060005b858110156139c957848403895281516139aa8582613898565b94506139b583613edc565b925060208a01995050600181019050613991565b50829750879550505050505092915050565b60006139e682613eb9565b6139f08185613f18565b93506139fb83613e93565b8060005b83811015613a2c578151613a1388826138ac565b9750613a1e83613ee9565b9250506001810190506139ff565b5085935050505092915050565b613a4281613f7a565b82525050565b613a5181613f86565b82525050565b613a6081613f86565b82525050565b6000613a7182613ec4565b613a7b8185613f29565b9350613a8b818560208601613ff5565b613a948161402a565b840191505092915050565b6000613aaa82613ec4565b613ab48185613f3a565b9350613ac4818560208601613ff5565b613acd8161402a565b840191505092915050565b6000613ae382613ec4565b613aed8185613f4b565b9350613afd818560208601613ff5565b80840191505092915050565b6000613b16601283613f3a565b91507f4164647265737320696e636f72726563746f00000000000000000000000000006000830152602082019050919050565b6000610100830160008301518482036000860152613b678282613a66565b9150506020830151613b7c6020860182613c07565b506040830151613b8f6040860182613c07565b506060830151613ba260608601826138d3565b506080830151613bb56080860182613a48565b5060a083015184820360a0860152613bcd8282613a66565b91505060c083015184820360c0860152613be78282613a66565b91505060e0830151613bfc60e0860182613c07565b508091505092915050565b613c1081613fdc565b82525050565b613c1f81613fdc565b82525050565b6000613c318284613ad8565b915081905092915050565b6000602082019050613c5160008301846138e2565b92915050565b6000602082019050613c6c60008301846138c4565b92915050565b60006020820190508181036000830152613c8c81846138f1565b905092915050565b60006020820190508181036000830152613cae8184613966565b905092915050565b60006040820190508181036000830152613cd081856139db565b9050613cdf6020830184613a39565b9392505050565b6000602082019050613cfb6000830184613a39565b92915050565b60006020820190508181036000830152613d1b8184613a9f565b905092915050565b600060e0820190508181036000830152613d3d818a613a9f565b9050613d4c6020830189613c16565b613d5960408301886138e2565b613d666060830187613a57565b8181036080830152613d788186613a9f565b905081810360a0830152613d8c8185613a9f565b9050613d9b60c0830184613c16565b98975050505050505050565b60006020820190508181036000830152613dc081613b09565b9050919050565b6000602082019050613ddc6000830184613c16565b92915050565b6000604051905081810181811067ffffffffffffffff82111715613e0957613e08614028565b5b8060405250919050565b600067ffffffffffffffff821115613e2e57613e2d614028565b5b601f19601f8301169050602081019050919050565b600067ffffffffffffffff821115613e5e57613e5d614028565b5b601f19601f8301169050602081019050919050565b6000819050602082019050919050565b6000819050602082019050919050565b6000819050602082019050919050565b600081519050919050565b600081519050919050565b600081519050919050565b600081519050919050565b6000602082019050919050565b6000602082019050919050565b6000602082019050919050565b600082825260208201905092915050565b600082825260208201905092915050565b600082825260208201905092915050565b600082825260208201905092915050565b600082825260208201905092915050565b600081905092915050565b6000613f6182613fbc565b9050919050565b6000613f7382613fbc565b9050919050565b60008115159050919050565b6000819050919050565b60007fffffffff0000000000000000000000000000000000000000000000000000000082169050919050565b600073ffffffffffffffffffffffffffffffffffffffff82169050919050565b6000819050919050565b82818337600083830152505050565b60005b83811015614013578082015181840152602081019050613ff8565b83811115614022576000848401525b50505050565bfe5b6000601f19601f8301169050919050565b61404481613f56565b811461404f57600080fd5b50565b61405b81613f7a565b811461406657600080fd5b50565b61407281613f90565b811461407d57600080fd5b50565b61408981613fdc565b811461409457600080fd5b5056fe456e756d657261626c655365743a20696e646578206f7574206f6620626f756e64734552433732313a207472616e7366657220746f206e6f6e20455243373231526563656976657220696d706c656d656e7465724552433732313a207472616e7366657220746f20746865207a65726f2061646472657373416464726573733a20696e73756666696369656e742062616c616e636520666f722063616c6c4552433732313a206f70657261746f7220717565727920666f72206e6f6e6578697374656e7420746f6b656e4552433732313a20617070726f76652063616c6c6572206973206e6f74206f776e6572206e6f7220617070726f76656420666f7220616c6c4552433732313a2062616c616e636520717565727920666f7220746865207a65726f20616464726573734552433732313a206f776e657220717565727920666f72206e6f6e6578697374656e7420746f6b656e456e756d657261626c654d61703a20696e646578206f7574206f6620626f756e64734552433732313a20617070726f76656420717565727920666f72206e6f6e6578697374656e7420746f6b656e4552433732314d657461646174613a2055524920736574206f66206e6f6e6578697374656e7420746f6b656e4552433732313a207472616e73666572206f6620746f6b656e2074686174206973206e6f74206f776e4552433732314d657461646174613a2055524920717565727920666f72206e6f6e6578697374656e7420746f6b656e4552433732313a20617070726f76616c20746f2063757272656e74206f776e65724552433732313a207472616e736665722063616c6c6572206973206e6f74206f776e6572206e6f7220617070726f766564a26469706673582212206b1552dd20f1dd2995e1c165a133e79d393bafdbe3efa3e6f274e62962e45ee364736f6c63430007060033",
  "immutableReferences": {},
  "source": "// contracts/GameItem.sol\r\n// SPDX-License-Identifier: MIT\r\npragma solidity  >=0.6.0 <0.8.0;\r\npragma experimental ABIEncoderV2;\r\n\r\nimport \"@openzeppelin/contracts/token/ERC721/ERC721.sol\";\r\nimport \"@openzeppelin/contracts/utils/Counters.sol\";\r\n\r\ncontract Valid is ERC721 {\r\n    using Counters for Counters.Counter;\r\n    Counters.Counter private _tokenIds;\r\n    address payable public ownerbalance;\r\n   \r\n    mapping(uint => Metadata) public metadata;\r\n    \r\n    struct Metadata {\r\n        string hash;\r\n        uint _date;\r\n        address _owner;\r\n        bytes32 _blockhash;\r\n        string _fileName;\r\n        string _explorerUrl;\r\n        uint _blocknumber;\r\n    }\r\n\r\n\r\n    function createItem(string calldata tokenURI, string calldata fileName, string calldata explorerUrl) external payable {\r\n        _tokenIds.increment();\r\n        _mint(msg.sender, _tokenIds.current());\r\n        _setTokenURI(_tokenIds.current(), tokenURI);\r\n        metadata[_tokenIds.current()] = Metadata(\r\n            tokenURI, //hash\r\n            block.timestamp, // time\r\n            ownerbalance, // owner\r\n            blockhash(0), \r\n            fileName, \r\n            explorerUrl, \r\n            block.number\r\n            );\r\n    }\r\n\r\n    struct documentData {\r\n        string hash;\r\n        uint256 tokenid;\r\n        uint _date;\r\n        address _owner;\r\n        bytes32 _blockhash;\r\n        string _fileName;\r\n        string _explorerUrl;\r\n        uint _blocknumber;\r\n    }\r\n\r\n    modifier onlyOwner() {\r\n        require(msg.sender == ownerbalance);\r\n        _;\r\n    }\r\n\r\n    constructor() public ERC721(\"VALID\", \"VLD\") {\r\n        ownerbalance = msg.sender;\r\n    }\r\n\r\n    function smbalance() public view returns (uint256) {\r\n        return address(this).balance;\r\n    }\r\n\r\n    function withdraw() public onlyOwner() {\r\n        ownerbalance.transfer(address(this).balance);\r\n    }\r\n\r\n    function IsHashed(string memory ipfshash)\r\n        public\r\n        view\r\n        returns (bool hashed)\r\n    {\r\n        //obtener cuantos tokens tiene el sm\r\n        uint256 nTokens = totalSupply();\r\n        if (nTokens == 0) {\r\n            return false;\r\n        }\r\n        bool exist = false;\r\n        //buscar si existe ese hash\r\n        for (uint256 i = 0; i < nTokens; i++) {\r\n            if (\r\n                keccak256(abi.encodePacked((ipfshash))) ==\r\n                keccak256(abi.encodePacked(tokenURI(tokenByIndex(i))))\r\n            ) {\r\n                exist = true;\r\n                break;\r\n            }\r\n        }\r\n        return (exist);\r\n    }\r\n\r\n    function documentsOF(address owner)\r\n        public\r\n        view\r\n        returns (documentData[] memory documents)\r\n    {\r\n        //revisar que no sea el address para quemar tokens\r\n        require(owner != address(0), \"Address incorrecto\");\r\n        //numero de tokens\r\n        uint256 nTokens = balanceOf(owner);\r\n        if (nTokens == 0) {\r\n            return (new documentData[](nTokens));\r\n        }\r\n        //arreglo con los documentos 2\r\n        documentData[] memory dochashes = new documentData[](nTokens);\r\n        for (uint256 i = 0; i < nTokens; i++) {\r\n            dochashes[i].hash = tokenURI(tokenOfOwnerByIndex(owner, i));\r\n            dochashes[i].tokenid = tokenOfOwnerByIndex(owner, i);\r\n\r\n            dochashes[i]._date = metadata[dochashes[i].tokenid]._date;\r\n            dochashes[i]._owner = metadata[dochashes[i].tokenid]._owner;\r\n            dochashes[i]._fileName = metadata[dochashes[i].tokenid]._fileName;\r\n            dochashes[i]._explorerUrl = metadata[dochashes[i].tokenid]._explorerUrl;\r\n            dochashes[i]._blockhash = metadata[dochashes[i].tokenid]._blockhash;\r\n            dochashes[i]._blocknumber = metadata[dochashes[i].tokenid]._blocknumber;\r\n        }\r\n        return (dochashes);\r\n    }\r\n\r\n    \r\n\r\n    function getAllHashes() public view returns (string[] memory tokens) {\r\n        //obtener cuantos tokens tiene el sm\r\n        uint256 nTokens = totalSupply();\r\n        if (nTokens == 0) {\r\n            return new string[](nTokens);\r\n        }\r\n        //arreglo con los documentos\r\n        string[] memory dochashes = new string[](nTokens);\r\n        for (uint256 i = 0; i < nTokens; i++) {\r\n            dochashes[i] = tokenURI(tokenByIndex(i));\r\n        }\r\n        return (dochashes);\r\n    }\r\n\r\n    function tokensOf(address owner)\r\n        public\r\n        view\r\n        returns (uint256[] memory tokens, bool success)\r\n    {\r\n        //revisar que no sea el address para quemar tokens\r\n        require(owner != address(0), \"Address incorrecto\");\r\n        //numero de tokens\r\n        uint256 nTokens = balanceOf(owner);\r\n        if (nTokens == 0) {\r\n            return (new uint256[](nTokens), false);\r\n        }\r\n        //require(nTokens != 0, \"no cuentas con tokens\");\r\n        //arreglo de tokens\r\n        uint256[] memory tokensOfowner = new uint256[](nTokens);\r\n        //hacer el arreglo de tokens del owner\r\n        for (uint256 i = 0; i < nTokens; i++) {\r\n            tokensOfowner[i] = tokenOfOwnerByIndex(owner, i);\r\n        }\r\n        return (tokensOfowner, true);\r\n    }\r\n}\r\n",
  "sourcePath": "C:\\Users\\William\\Documents\\cloudMex\\validafy\\validafy\\SContracts\\contracts\\Valid.sol",
  "compiler": {
    "name": "solc",
    "version": "0.7.6+commit.7338295f.Emscripten.clang"
  },
  "schemaVersion": "3.4.3",
  "updatedAt": "2021-09-17T20:39:39.834Z",
  "networkType": "ethereum",
  "devdoc": {
    "kind": "dev",
    "methods": {
      "approve(address,uint256)": {
        "details": "See {IERC721-approve}."
      },
      "balanceOf(address)": {
        "details": "See {IERC721-balanceOf}."
      },
      "baseURI()": {
        "details": "Returns the base URI set via {_setBaseURI}. This will be automatically added as a prefix in {tokenURI} to each token's URI, or to the token ID if no specific URI is set for that token ID."
      },
      "getApproved(uint256)": {
        "details": "See {IERC721-getApproved}."
      },
      "isApprovedForAll(address,address)": {
        "details": "See {IERC721-isApprovedForAll}."
      },
      "name()": {
        "details": "See {IERC721Metadata-name}."
      },
      "ownerOf(uint256)": {
        "details": "See {IERC721-ownerOf}."
      },
      "safeTransferFrom(address,address,uint256)": {
        "details": "See {IERC721-safeTransferFrom}."
      },
      "safeTransferFrom(address,address,uint256,bytes)": {
        "details": "See {IERC721-safeTransferFrom}."
      },
      "setApprovalForAll(address,bool)": {
        "details": "See {IERC721-setApprovalForAll}."
      },
      "supportsInterface(bytes4)": {
        "details": "See {IERC165-supportsInterface}. Time complexity O(1), guaranteed to always use less than 30 000 gas."
      },
      "symbol()": {
        "details": "See {IERC721Metadata-symbol}."
      },
      "tokenByIndex(uint256)": {
        "details": "See {IERC721Enumerable-tokenByIndex}."
      },
      "tokenOfOwnerByIndex(address,uint256)": {
        "details": "See {IERC721Enumerable-tokenOfOwnerByIndex}."
      },
      "tokenURI(uint256)": {
        "details": "See {IERC721Metadata-tokenURI}."
      },
      "totalSupply()": {
        "details": "See {IERC721Enumerable-totalSupply}."
      },
      "transferFrom(address,address,uint256)": {
        "details": "See {IERC721-transferFrom}."
      }
    },
    "version": 1
  },
  "userdoc": {
    "kind": "user",
    "methods": {},
    "version": 1
  }
}