{
  "contractName": "Valid",
  "abi": [
    {
      "inputs": [],
      "stateMutability": "nonpayable",
      "type": "constructor"
    },
    {
      "anonymous": false,
      "inputs": [
        {
          "indexed": true,
          "internalType": "address",
          "name": "owner",
          "type": "address"
        },
        {
          "indexed": true,
          "internalType": "address",
          "name": "approved",
          "type": "address"
        },
        {
          "indexed": true,
          "internalType": "uint256",
          "name": "tokenId",
          "type": "uint256"
        }
      ],
      "name": "Approval",
      "type": "event"
    },
    {
      "anonymous": false,
      "inputs": [
        {
          "indexed": true,
          "internalType": "address",
          "name": "owner",
          "type": "address"
        },
        {
          "indexed": true,
          "internalType": "address",
          "name": "operator",
          "type": "address"
        },
        {
          "indexed": false,
          "internalType": "bool",
          "name": "approved",
          "type": "bool"
        }
      ],
      "name": "ApprovalForAll",
      "type": "event"
    },
    {
      "anonymous": false,
      "inputs": [
        {
          "indexed": true,
          "internalType": "address",
          "name": "from",
          "type": "address"
        },
        {
          "indexed": true,
          "internalType": "address",
          "name": "to",
          "type": "address"
        },
        {
          "indexed": true,
          "internalType": "uint256",
          "name": "tokenId",
          "type": "uint256"
        }
      ],
      "name": "Transfer",
      "type": "event"
    },
    {
      "inputs": [
        {
          "internalType": "address",
          "name": "to",
          "type": "address"
        },
        {
          "internalType": "uint256",
          "name": "tokenId",
          "type": "uint256"
        }
      ],
      "name": "approve",
      "outputs": [],
      "stateMutability": "nonpayable",
      "type": "function"
    },
    {
      "inputs": [
        {
          "internalType": "address",
          "name": "owner",
          "type": "address"
        }
      ],
      "name": "balanceOf",
      "outputs": [
        {
          "internalType": "uint256",
          "name": "",
          "type": "uint256"
        }
      ],
      "stateMutability": "view",
      "type": "function",
      "constant": true
    },
    {
      "inputs": [],
      "name": "baseURI",
      "outputs": [
        {
          "internalType": "string",
          "name": "",
          "type": "string"
        }
      ],
      "stateMutability": "view",
      "type": "function",
      "constant": true
    },
    {
      "inputs": [
        {
          "internalType": "uint256",
          "name": "tokenId",
          "type": "uint256"
        }
      ],
      "name": "getApproved",
      "outputs": [
        {
          "internalType": "address",
          "name": "",
          "type": "address"
        }
      ],
      "stateMutability": "view",
      "type": "function",
      "constant": true
    },
    {
      "inputs": [
        {
          "internalType": "address",
          "name": "owner",
          "type": "address"
        },
        {
          "internalType": "address",
          "name": "operator",
          "type": "address"
        }
      ],
      "name": "isApprovedForAll",
      "outputs": [
        {
          "internalType": "bool",
          "name": "",
          "type": "bool"
        }
      ],
      "stateMutability": "view",
      "type": "function",
      "constant": true
    },
    {
      "inputs": [],
      "name": "name",
      "outputs": [
        {
          "internalType": "string",
          "name": "",
          "type": "string"
        }
      ],
      "stateMutability": "view",
      "type": "function",
      "constant": true
    },
    {
      "inputs": [
        {
          "internalType": "uint256",
          "name": "tokenId",
          "type": "uint256"
        }
      ],
      "name": "ownerOf",
      "outputs": [
        {
          "internalType": "address",
          "name": "",
          "type": "address"
        }
      ],
      "stateMutability": "view",
      "type": "function",
      "constant": true
    },
    {
      "inputs": [
        {
          "internalType": "address",
          "name": "from",
          "type": "address"
        },
        {
          "internalType": "address",
          "name": "to",
          "type": "address"
        },
        {
          "internalType": "uint256",
          "name": "tokenId",
          "type": "uint256"
        }
      ],
      "name": "safeTransferFrom",
      "outputs": [],
      "stateMutability": "nonpayable",
      "type": "function"
    },
    {
      "inputs": [
        {
          "internalType": "address",
          "name": "from",
          "type": "address"
        },
        {
          "internalType": "address",
          "name": "to",
          "type": "address"
        },
        {
          "internalType": "uint256",
          "name": "tokenId",
          "type": "uint256"
        },
        {
          "internalType": "bytes",
          "name": "_data",
          "type": "bytes"
        }
      ],
      "name": "safeTransferFrom",
      "outputs": [],
      "stateMutability": "nonpayable",
      "type": "function"
    },
    {
      "inputs": [
        {
          "internalType": "address",
          "name": "operator",
          "type": "address"
        },
        {
          "internalType": "bool",
          "name": "approved",
          "type": "bool"
        }
      ],
      "name": "setApprovalForAll",
      "outputs": [],
      "stateMutability": "nonpayable",
      "type": "function"
    },
    {
      "inputs": [
        {
          "internalType": "bytes4",
          "name": "interfaceId",
          "type": "bytes4"
        }
      ],
      "name": "supportsInterface",
      "outputs": [
        {
          "internalType": "bool",
          "name": "",
          "type": "bool"
        }
      ],
      "stateMutability": "view",
      "type": "function",
      "constant": true
    },
    {
      "inputs": [],
      "name": "symbol",
      "outputs": [
        {
          "internalType": "string",
          "name": "",
          "type": "string"
        }
      ],
      "stateMutability": "view",
      "type": "function",
      "constant": true
    },
    {
      "inputs": [
        {
          "internalType": "uint256",
          "name": "index",
          "type": "uint256"
        }
      ],
      "name": "tokenByIndex",
      "outputs": [
        {
          "internalType": "uint256",
          "name": "",
          "type": "uint256"
        }
      ],
      "stateMutability": "view",
      "type": "function",
      "constant": true
    },
    {
      "inputs": [
        {
          "internalType": "address",
          "name": "owner",
          "type": "address"
        },
        {
          "internalType": "uint256",
          "name": "index",
          "type": "uint256"
        }
      ],
      "name": "tokenOfOwnerByIndex",
      "outputs": [
        {
          "internalType": "uint256",
          "name": "",
          "type": "uint256"
        }
      ],
      "stateMutability": "view",
      "type": "function",
      "constant": true
    },
    {
      "inputs": [
        {
          "internalType": "uint256",
          "name": "tokenId",
          "type": "uint256"
        }
      ],
      "name": "tokenURI",
      "outputs": [
        {
          "internalType": "string",
          "name": "",
          "type": "string"
        }
      ],
      "stateMutability": "view",
      "type": "function",
      "constant": true
    },
    {
      "inputs": [],
      "name": "totalSupply",
      "outputs": [
        {
          "internalType": "uint256",
          "name": "",
          "type": "uint256"
        }
      ],
      "stateMutability": "view",
      "type": "function",
      "constant": true
    },
    {
      "inputs": [
        {
          "internalType": "address",
          "name": "from",
          "type": "address"
        },
        {
          "internalType": "address",
          "name": "to",
          "type": "address"
        },
        {
          "internalType": "uint256",
          "name": "tokenId",
          "type": "uint256"
        }
      ],
      "name": "transferFrom",
      "outputs": [],
      "stateMutability": "nonpayable",
      "type": "function"
    },
    {
      "inputs": [
        {
          "internalType": "address",
          "name": "owner",
          "type": "address"
        },
        {
          "internalType": "string",
          "name": "tokenURI",
          "type": "string"
        }
      ],
      "name": "createItem",
      "outputs": [
        {
          "internalType": "uint256",
          "name": "",
          "type": "uint256"
        }
      ],
      "stateMutability": "nonpayable",
      "type": "function"
    },
    {
      "inputs": [
        {
          "internalType": "string",
          "name": "ipfshash",
          "type": "string"
        }
      ],
      "name": "IsHashed",
      "outputs": [
        {
          "internalType": "bool",
          "name": "hashed",
          "type": "bool"
        }
      ],
      "stateMutability": "view",
      "type": "function",
      "constant": true
    },
    {
      "inputs": [],
      "name": "getAllHashes",
      "outputs": [
        {
          "internalType": "string[]",
          "name": "tokens",
          "type": "string[]"
        }
      ],
      "stateMutability": "view",
      "type": "function",
      "constant": true
    },
    {
      "inputs": [
        {
          "internalType": "address",
          "name": "owner",
          "type": "address"
        }
      ],
      "name": "tokensOf",
      "outputs": [
        {
          "internalType": "uint256[]",
          "name": "tokens",
          "type": "uint256[]"
        },
        {
          "internalType": "bool",
          "name": "success",
          "type": "bool"
        }
      ],
      "stateMutability": "view",
      "type": "function",
      "constant": true
    }
  ],
  "bytecode": "0x60806040523480156200001157600080fd5b506040518060400160405280600581526020017f56414c49440000000000000000000000000000000000000000000000000000008152506040518060400160405280600381526020017f564c440000000000000000000000000000000000000000000000000000000000815250620000966301ffc9a760e01b6200011860201b60201c565b8160069080519060200190620000ae929190620001f0565b508060079080519060200190620000c7929190620001f0565b50620000e06380ac58cd60e01b6200011860201b60201c565b620000f8635b5e139f60e01b6200011860201b60201c565b6200011063780e9d6360e01b6200011860201b60201c565b50506200030b565b63ffffffff60e01b817bffffffffffffffffffffffffffffffffffffffffffffffffffffffff1916141562000184576040517f08c379a00000000000000000000000000000000000000000000000000000000081526004016200017b90620002d8565b60405180910390fd5b6001600080837bffffffffffffffffffffffffffffffffffffffffffffffffffffffff19167bffffffffffffffffffffffffffffffffffffffffffffffffffffffff1916815260200190815260200160002060006101000a81548160ff02191690831515021790555050565b828054600181600116156101000203166002900490600052602060002090601f016020900481019282601f106200023357805160ff191683800117855562000264565b8280016001018555821562000264579182015b828111156200026357825182559160200191906001019062000246565b5b50905062000273919062000277565b5090565b5b808211156200029257600081600090555060010162000278565b5090565b6000620002a5601c83620002fa565b91507f4552433136353a20696e76616c696420696e74657266616365206964000000006000830152602082019050919050565b60006020820190508181036000830152620002f38162000296565b9050919050565b600082825260208201905092915050565b613602806200031b6000396000f3fe608060405234801561001057600080fd5b50600436106101375760003560e01c80634f6ccce7116100b857806395d89b411161007c57806395d89b411461039b578063a22cb465146103b9578063b88d4fde146103d5578063c87b56dd146103f1578063e985e9c514610421578063fe99f7421461045157610137565b80634f6ccce7146102bc5780635a3f2672146102ec5780636352211e1461031d5780636c0360eb1461034d57806370a082311461036b57610137565b80631c4d1d31116100ff5780631c4d1d31146101f457806323b872dd1461022457806326fb76c2146102405780632f745c591461027057806342842e0e146102a057610137565b806301ffc9a71461013c57806306fdde031461016c578063081812fc1461018a578063095ea7b3146101ba57806318160ddd146101d6575b600080fd5b6101566004803603810190610151919061253c565b61046f565b604051610163919061302e565b60405180910390f35b6101746104d6565b6040516101819190613049565b60405180910390f35b6101a4600480360381019061019f91906125cf565b610578565b6040516101b19190612f75565b60405180910390f35b6101d460048036038101906101cf9190612500565b6105fd565b005b6101de610715565b6040516101eb91906132cb565b60405180910390f35b61020e6004803603810190610209919061258e565b610726565b60405161021b919061302e565b60405180910390f35b61023e600480360381019061023991906123a6565b6107d8565b005b61025a600480360381019061025591906124ac565b610838565b60405161026791906132cb565b60405180910390f35b61028a60048036038101906102859190612500565b610870565b60405161029791906132cb565b60405180910390f35b6102ba60048036038101906102b591906123a6565b6108cb565b005b6102d660048036038101906102d191906125cf565b6108eb565b6040516102e391906132cb565b60405180910390f35b61030660048036038101906103019190612341565b61090e565b604051610314929190612ffe565b60405180910390f35b610337600480360381019061033291906125cf565b610a7f565b6040516103449190612f75565b60405180910390f35b610355610ab6565b6040516103629190613049565b60405180910390f35b61038560048036038101906103809190612341565b610b58565b60405161039291906132cb565b60405180910390f35b6103a3610c17565b6040516103b09190613049565b60405180910390f35b6103d360048036038101906103ce9190612470565b610cb9565b005b6103ef60048036038101906103ea91906123f5565b610e3a565b005b61040b600480360381019061040691906125cf565b610e9c565b6040516104189190613049565b60405180910390f35b61043b6004803603810190610436919061236a565b61101f565b604051610448919061302e565b60405180910390f35b6104596110b3565b6040516104669190612fdc565b60405180910390f35b6000806000837bffffffffffffffffffffffffffffffffffffffffffffffffffffffff19167bffffffffffffffffffffffffffffffffffffffffffffffffffffffff1916815260200190815260200160002060009054906101000a900460ff169050919050565b606060068054600181600116156101000203166002900480601f01602080910402602001604051908101604052809291908181526020018280546001816001161561010002031660029004801561056e5780601f106105435761010080835404028352916020019161056e565b820191906000526020600020905b81548152906001019060200180831161055157829003601f168201915b5050505050905090565b6000610583826111b8565b6105c2576040517f08c379a00000000000000000000000000000000000000000000000000000000081526004016105b9906131cb565b60405180910390fd5b6004600083815260200190815260200160002060009054906101000a900473ffffffffffffffffffffffffffffffffffffffff169050919050565b600061060882610a7f565b90508073ffffffffffffffffffffffffffffffffffffffff168373ffffffffffffffffffffffffffffffffffffffff161415610679576040517f08c379a00000000000000000000000000000000000000000000000000000000081526004016106709061326b565b60405180910390fd5b8073ffffffffffffffffffffffffffffffffffffffff166106986111d5565b73ffffffffffffffffffffffffffffffffffffffff1614806106c757506106c6816106c16111d5565b61101f565b5b610706576040517f08c379a00000000000000000000000000000000000000000000000000000000081526004016106fd9061314b565b60405180910390fd5b61071083836111dd565b505050565b60006107216002611296565b905090565b600080610731610715565b905060008114156107465760009150506107d3565b6000805b828110156107cc5761076361075e826108eb565b610e9c565b6040516020016107739190612f3a565b604051602081830303815290604052805190602001208560405160200161079a9190612f3a565b6040516020818303038152906040528051906020012014156107bf57600191506107cc565b808060010191505061074a565b5080925050505b919050565b6107e96107e36111d5565b826112ab565b610828576040517f08c379a000000000000000000000000000000000000000000000000000000000815260040161081f9061328b565b60405180910390fd5b610833838383611389565b505050565b6000610844600a6115a0565b6000610850600a6115b6565b905061085c84826115c4565b6108668184611752565b8091505092915050565b60006108c382600160008673ffffffffffffffffffffffffffffffffffffffff1673ffffffffffffffffffffffffffffffffffffffff1681526020019081526020016000206117c690919063ffffffff16565b905092915050565b6108e683838360405180602001604052806000815250610e3a565b505050565b6000806109028360026117e090919063ffffffff16565b50905080915050919050565b606060008073ffffffffffffffffffffffffffffffffffffffff168373ffffffffffffffffffffffffffffffffffffffff161415610981576040517f08c379a00000000000000000000000000000000000000000000000000000000081526004016109789061322b565b60405180910390fd5b600061098c84610b58565b905060008114156109ea578067ffffffffffffffff811180156109ae57600080fd5b506040519080825280602002602001820160405280156109dd5781602001602082028036833780820191505090505b5060009250925050610a7a565b60608167ffffffffffffffff81118015610a0357600080fd5b50604051908082528060200260200182016040528015610a325781602001602082028036833780820191505090505b50905060005b82811015610a6f57610a4a8682610870565b828281518110610a5657fe5b6020026020010181815250508080600101915050610a38565b508060019350935050505b915091565b6000610aaf826040518060600160405280602981526020016135a460299139600261180c9092919063ffffffff16565b9050919050565b606060098054600181600116156101000203166002900480601f016020809104026020016040519081016040528092919081815260200182805460018160011615610100020316600290048015610b4e5780601f10610b2357610100808354040283529160200191610b4e565b820191906000526020600020905b815481529060010190602001808311610b3157829003601f168201915b5050505050905090565b60008073ffffffffffffffffffffffffffffffffffffffff168273ffffffffffffffffffffffffffffffffffffffff161415610bc9576040517f08c379a0000000000000000000000000000000000000000000000000000000008152600401610bc09061316b565b60405180910390fd5b610c10600160008473ffffffffffffffffffffffffffffffffffffffff1673ffffffffffffffffffffffffffffffffffffffff16815260200190815260200160002061182b565b9050919050565b606060078054600181600116156101000203166002900480601f016020809104026020016040519081016040528092919081815260200182805460018160011615610100020316600290048015610caf5780601f10610c8457610100808354040283529160200191610caf565b820191906000526020600020905b815481529060010190602001808311610c9257829003601f168201915b5050505050905090565b610cc16111d5565b73ffffffffffffffffffffffffffffffffffffffff168273ffffffffffffffffffffffffffffffffffffffff161415610d2f576040517f08c379a0000000000000000000000000000000000000000000000000000000008152600401610d26906130eb565b60405180910390fd5b8060056000610d3c6111d5565b73ffffffffffffffffffffffffffffffffffffffff1673ffffffffffffffffffffffffffffffffffffffff16815260200190815260200160002060008473ffffffffffffffffffffffffffffffffffffffff1673ffffffffffffffffffffffffffffffffffffffff16815260200190815260200160002060006101000a81548160ff0219169083151502179055508173ffffffffffffffffffffffffffffffffffffffff16610de96111d5565b73ffffffffffffffffffffffffffffffffffffffff167f17307eab39ab6107e8899845ad3d59bd9653f200f220920489ca2b5937696c3183604051610e2e919061302e565b60405180910390a35050565b610e4b610e456111d5565b836112ab565b610e8a576040517f08c379a0000000000000000000000000000000000000000000000000000000008152600401610e819061328b565b60405180910390fd5b610e9684848484611840565b50505050565b6060610ea7826111b8565b610ee6576040517f08c379a0000000000000000000000000000000000000000000000000000000008152600401610edd9061324b565b60405180910390fd5b6060600860008481526020019081526020016000208054600181600116156101000203166002900480601f016020809104026020016040519081016040528092919081815260200182805460018160011615610100020316600290048015610f8f5780601f10610f6457610100808354040283529160200191610f8f565b820191906000526020600020905b815481529060010190602001808311610f7257829003601f168201915b505050505090506060610fa0610ab6565b9050600081511415610fb657819250505061101a565b600082511115610feb578082604051602001610fd3929190612f51565b6040516020818303038152906040529250505061101a565b80610ff58561189c565b604051602001611006929190612f51565b604051602081830303815290604052925050505b919050565b6000600560008473ffffffffffffffffffffffffffffffffffffffff1673ffffffffffffffffffffffffffffffffffffffff16815260200190815260200160002060008373ffffffffffffffffffffffffffffffffffffffff1673ffffffffffffffffffffffffffffffffffffffff16815260200190815260200160002060009054906101000a900460ff16905092915050565b606060006110bf610715565b9050600081141561111e578067ffffffffffffffff811180156110e157600080fd5b5060405190808252806020026020018201604052801561111557816020015b60608152602001906001900390816111005790505b509150506111b5565b60608167ffffffffffffffff8111801561113757600080fd5b5060405190808252806020026020018201604052801561116b57816020015b60608152602001906001900390816111565790505b50905060005b828110156111ae5761118a611185826108eb565b610e9c565b82828151811061119657fe5b60200260200101819052508080600101915050611171565b5080925050505b90565b60006111ce8260026119e390919063ffffffff16565b9050919050565b600033905090565b816004600083815260200190815260200160002060006101000a81548173ffffffffffffffffffffffffffffffffffffffff021916908373ffffffffffffffffffffffffffffffffffffffff160217905550808273ffffffffffffffffffffffffffffffffffffffff1661125083610a7f565b73ffffffffffffffffffffffffffffffffffffffff167f8c5be1e5ebec7d5bd14f71427d1e84f3dd0314c0f7b2291e5b200ac8c7c3b92560405160405180910390a45050565b60006112a4826000016119fd565b9050919050565b60006112b6826111b8565b6112f5576040517f08c379a00000000000000000000000000000000000000000000000000000000081526004016112ec9061312b565b60405180910390fd5b600061130083610a7f565b90508073ffffffffffffffffffffffffffffffffffffffff168473ffffffffffffffffffffffffffffffffffffffff16148061136f57508373ffffffffffffffffffffffffffffffffffffffff1661135784610578565b73ffffffffffffffffffffffffffffffffffffffff16145b80611380575061137f818561101f565b5b91505092915050565b8273ffffffffffffffffffffffffffffffffffffffff166113a982610a7f565b73ffffffffffffffffffffffffffffffffffffffff16146113ff576040517f08c379a00000000000000000000000000000000000000000000000000000000081526004016113f69061320b565b60405180910390fd5b600073ffffffffffffffffffffffffffffffffffffffff168273ffffffffffffffffffffffffffffffffffffffff16141561146f576040517f08c379a0000000000000000000000000000000000000000000000000000000008152600401611466906130cb565b60405180910390fd5b61147a838383611a0e565b6114856000826111dd565b6114d681600160008673ffffffffffffffffffffffffffffffffffffffff1673ffffffffffffffffffffffffffffffffffffffff168152602001908152602001600020611a1390919063ffffffff16565b5061152881600160008573ffffffffffffffffffffffffffffffffffffffff1673ffffffffffffffffffffffffffffffffffffffff168152602001908152602001600020611a2d90919063ffffffff16565b5061153f81836002611a479092919063ffffffff16565b50808273ffffffffffffffffffffffffffffffffffffffff168473ffffffffffffffffffffffffffffffffffffffff167fddf252ad1be2c89b69c2b068fc378daa952ba7f163c4a11628f55a4df523b3ef60405160405180910390a4505050565b6001816000016000828254019250508190555050565b600081600001549050919050565b600073ffffffffffffffffffffffffffffffffffffffff168273ffffffffffffffffffffffffffffffffffffffff161415611634576040517f08c379a000000000000000000000000000000000000000000000000000000000815260040161162b906131ab565b60405180910390fd5b61163d816111b8565b1561167d576040517f08c379a0000000000000000000000000000000000000000000000000000000008152600401611674906130ab565b60405180910390fd5b61168960008383611a0e565b6116da81600160008573ffffffffffffffffffffffffffffffffffffffff1673ffffffffffffffffffffffffffffffffffffffff168152602001908152602001600020611a2d90919063ffffffff16565b506116f181836002611a479092919063ffffffff16565b50808273ffffffffffffffffffffffffffffffffffffffff16600073ffffffffffffffffffffffffffffffffffffffff167fddf252ad1be2c89b69c2b068fc378daa952ba7f163c4a11628f55a4df523b3ef60405160405180910390a45050565b61175b826111b8565b61179a576040517f08c379a0000000000000000000000000000000000000000000000000000000008152600401611791906131eb565b60405180910390fd5b806008600084815260200190815260200160002090805190602001906117c1929190612193565b505050565b60006117d58360000183611a7c565b60001c905092915050565b6000806000806117f38660000186611ae9565b915091508160001c8160001c9350935050509250929050565b600061181f846000018460001b84611b6c565b60001c90509392505050565b600061183982600001611bfd565b9050919050565b61184b848484611389565b61185784848484611c0e565b611896576040517f08c379a000000000000000000000000000000000000000000000000000000000815260040161188d9061308b565b60405180910390fd5b50505050565b606060008214156118e4576040518060400160405280600181526020017f300000000000000000000000000000000000000000000000000000000000000081525090506119de565b600082905060005b6000821461190e578080600101915050600a828161190657fe5b0491506118ec565b60608167ffffffffffffffff8111801561192757600080fd5b506040519080825280601f01601f19166020018201604052801561195a5781602001600182028036833780820191505090505b50905060006001830390508593505b600084146119d657600a848161197b57fe5b0660300160f81b8282806001900393508151811061199557fe5b60200101907effffffffffffffffffffffffffffffffffffffffffffffffffffffffffffff1916908160001a905350600a84816119ce57fe5b049350611969565b819450505050505b919050565b60006119f5836000018360001b611d72565b905092915050565b600081600001805490509050919050565b505050565b6000611a25836000018360001b611d95565b905092915050565b6000611a3f836000018360001b611e7d565b905092915050565b6000611a73846000018460001b8473ffffffffffffffffffffffffffffffffffffffff1660001b611eed565b90509392505050565b600081836000018054905011611ac7576040517f08c379a0000000000000000000000000000000000000000000000000000000008152600401611abe9061306b565b60405180910390fd5b826000018281548110611ad657fe5b9060005260206000200154905092915050565b60008082846000018054905011611b35576040517f08c379a0000000000000000000000000000000000000000000000000000000008152600401611b2c9061318b565b60405180910390fd5b6000846000018481548110611b4657fe5b906000526020600020906002020190508060000154816001015492509250509250929050565b60008084600101600085815260200190815260200160002054905060008114158390611bce576040517f08c379a0000000000000000000000000000000000000000000000000000000008152600401611bc59190613049565b60405180910390fd5b50846000016001820381548110611be157fe5b9060005260206000209060020201600101549150509392505050565b600081600001805490509050919050565b6000611c2f8473ffffffffffffffffffffffffffffffffffffffff16611fc9565b611c3c5760019050611d6a565b6060611d0363150b7a0260e01b611c516111d5565b888787604051602401611c679493929190612f90565b604051602081830303815290604052907bffffffffffffffffffffffffffffffffffffffffffffffffffffffff19166020820180517bffffffffffffffffffffffffffffffffffffffffffffffffffffffff8381831617835250505050604051806060016040528060328152602001613572603291398773ffffffffffffffffffffffffffffffffffffffff16611fdc9092919063ffffffff16565b9050600081806020019051810190611d1b9190612565565b905063150b7a0260e01b7bffffffffffffffffffffffffffffffffffffffffffffffffffffffff1916817bffffffffffffffffffffffffffffffffffffffffffffffffffffffff191614925050505b949350505050565b600080836001016000848152602001908152602001600020541415905092915050565b60008083600101600084815260200190815260200160002054905060008114611e715760006001820390506000600186600001805490500390506000866000018281548110611de057fe5b9060005260206000200154905080876000018481548110611dfd57fe5b9060005260206000200181905550600183018760010160008381526020019081526020016000208190555086600001805480611e3557fe5b60019003818190600052602060002001600090559055866001016000878152602001908152602001600020600090556001945050505050611e77565b60009150505b92915050565b6000611e898383611ff4565b611ee2578260000182908060018154018082558091505060019003906000526020600020016000909190919091505582600001805490508360010160008481526020019081526020016000208190555060019050611ee7565b600090505b92915050565b6000808460010160008581526020019081526020016000205490506000811415611f9457846000016040518060400160405280868152602001858152509080600181540180825580915050600190039060005260206000209060020201600090919091909150600082015181600001556020820151816001015550508460000180549050856001016000868152602001908152602001600020819055506001915050611fc2565b82856000016001830381548110611fa757fe5b90600052602060002090600202016001018190555060009150505b9392505050565b600080823b905060008111915050919050565b6060611feb8484600085612017565b90509392505050565b600080836001016000848152602001908152602001600020541415905092915050565b60608247101561205c576040517f08c379a00000000000000000000000000000000000000000000000000000000081526004016120539061310b565b60405180910390fd5b61206585611fc9565b6120a4576040517f08c379a000000000000000000000000000000000000000000000000000000000815260040161209b906132ab565b60405180910390fd5b600060608673ffffffffffffffffffffffffffffffffffffffff1685876040516120ce9190612f23565b60006040518083038185875af1925050503d806000811461210b576040519150601f19603f3d011682016040523d82523d6000602084013e612110565b606091505b509150915061212082828661212c565b92505050949350505050565b6060831561213c5782905061218c565b60008351111561214f5782518084602001fd5b816040517f08c379a00000000000000000000000000000000000000000000000000000000081526004016121839190613049565b60405180910390fd5b9392505050565b828054600181600116156101000203166002900490600052602060002090601f016020900481019282601f106121d457805160ff1916838001178555612202565b82800160010185558215612202579182015b828111156122015782518255916020019190600101906121e6565b5b50905061220f9190612213565b5090565b5b8082111561222c576000816000905550600101612214565b5090565b60008135905061223f81613515565b92915050565b6000813590506122548161352c565b92915050565b60008135905061226981613543565b92915050565b60008151905061227e81613543565b92915050565b600082601f83011261229557600080fd5b81356122a86122a382613313565b6132e6565b915080825260208301602083018583830111156122c457600080fd5b6122cf8382846134c2565b50505092915050565b600082601f8301126122e957600080fd5b81356122fc6122f78261333f565b6132e6565b9150808252602083016020830185838301111561231857600080fd5b6123238382846134c2565b50505092915050565b60008135905061233b8161355a565b92915050565b60006020828403121561235357600080fd5b600061236184828501612230565b91505092915050565b6000806040838503121561237d57600080fd5b600061238b85828601612230565b925050602061239c85828601612230565b9150509250929050565b6000806000606084860312156123bb57600080fd5b60006123c986828701612230565b93505060206123da86828701612230565b92505060406123eb8682870161232c565b9150509250925092565b6000806000806080858703121561240b57600080fd5b600061241987828801612230565b945050602061242a87828801612230565b935050604061243b8782880161232c565b925050606085013567ffffffffffffffff81111561245857600080fd5b61246487828801612284565b91505092959194509250565b6000806040838503121561248357600080fd5b600061249185828601612230565b92505060206124a285828601612245565b9150509250929050565b600080604083850312156124bf57600080fd5b60006124cd85828601612230565b925050602083013567ffffffffffffffff8111156124ea57600080fd5b6124f6858286016122d8565b9150509250929050565b6000806040838503121561251357600080fd5b600061252185828601612230565b92505060206125328582860161232c565b9150509250929050565b60006020828403121561254e57600080fd5b600061255c8482850161225a565b91505092915050565b60006020828403121561257757600080fd5b60006125858482850161226f565b91505092915050565b6000602082840312156125a057600080fd5b600082013567ffffffffffffffff8111156125ba57600080fd5b6125c6848285016122d8565b91505092915050565b6000602082840312156125e157600080fd5b60006125ef8482850161232c565b91505092915050565b6000612604838361278e565b905092915050565b60006126188383612f05565b60208301905092915050565b61262d8161344e565b82525050565b61263c8161343c565b82525050565b600061264d8261338b565b61265781856133d1565b9350836020820285016126698561336b565b8060005b858110156126a5578484038952815161268685826125f8565b9450612691836133b7565b925060208a0199505060018101905061266d565b50829750879550505050505092915050565b60006126c282613396565b6126cc81856133e2565b93506126d78361337b565b8060005b838110156127085781516126ef888261260c565b97506126fa836133c4565b9250506001810190506126db565b5085935050505092915050565b61271e81613460565b82525050565b600061272f826133a1565b61273981856133f3565b93506127498185602086016134d1565b61275281613504565b840191505092915050565b6000612768826133a1565b6127728185613404565b93506127828185602086016134d1565b80840191505092915050565b6000612799826133ac565b6127a3818561340f565b93506127b38185602086016134d1565b6127bc81613504565b840191505092915050565b60006127d2826133ac565b6127dc8185613420565b93506127ec8185602086016134d1565b6127f581613504565b840191505092915050565b600061280b826133ac565b6128158185613431565b93506128258185602086016134d1565b80840191505092915050565b600061283e602283613420565b91507f456e756d657261626c655365743a20696e646578206f7574206f6620626f756e60008301527f64730000000000000000000000000000000000000000000000000000000000006020830152604082019050919050565b60006128a4603283613420565b91507f4552433732313a207472616e7366657220746f206e6f6e20455243373231526560008301527f63656976657220696d706c656d656e74657200000000000000000000000000006020830152604082019050919050565b600061290a601c83613420565b91507f4552433732313a20746f6b656e20616c7265616479206d696e746564000000006000830152602082019050919050565b600061294a602483613420565b91507f4552433732313a207472616e7366657220746f20746865207a65726f2061646460008301527f72657373000000000000000000000000000000000000000000000000000000006020830152604082019050919050565b60006129b0601983613420565b91507f4552433732313a20617070726f766520746f2063616c6c6572000000000000006000830152602082019050919050565b60006129f0602683613420565b91507f416464726573733a20696e73756666696369656e742062616c616e636520666f60008301527f722063616c6c00000000000000000000000000000000000000000000000000006020830152604082019050919050565b6000612a56602c83613420565b91507f4552433732313a206f70657261746f7220717565727920666f72206e6f6e657860008301527f697374656e7420746f6b656e00000000000000000000000000000000000000006020830152604082019050919050565b6000612abc603883613420565b91507f4552433732313a20617070726f76652063616c6c6572206973206e6f74206f7760008301527f6e6572206e6f7220617070726f76656420666f7220616c6c00000000000000006020830152604082019050919050565b6000612b22602a83613420565b91507f4552433732313a2062616c616e636520717565727920666f7220746865207a6560008301527f726f2061646472657373000000000000000000000000000000000000000000006020830152604082019050919050565b6000612b88602283613420565b91507f456e756d657261626c654d61703a20696e646578206f7574206f6620626f756e60008301527f64730000000000000000000000000000000000000000000000000000000000006020830152604082019050919050565b6000612bee602083613420565b91507f4552433732313a206d696e7420746f20746865207a65726f20616464726573736000830152602082019050919050565b6000612c2e602c83613420565b91507f4552433732313a20617070726f76656420717565727920666f72206e6f6e657860008301527f697374656e7420746f6b656e00000000000000000000000000000000000000006020830152604082019050919050565b6000612c94602c83613420565b91507f4552433732314d657461646174613a2055524920736574206f66206e6f6e657860008301527f697374656e7420746f6b656e00000000000000000000000000000000000000006020830152604082019050919050565b6000612cfa602983613420565b91507f4552433732313a207472616e73666572206f6620746f6b656e2074686174206960008301527f73206e6f74206f776e00000000000000000000000000000000000000000000006020830152604082019050919050565b6000612d60601283613420565b91507f4164647265737320696e636f72726563746f00000000000000000000000000006000830152602082019050919050565b6000612da0602f83613420565b91507f4552433732314d657461646174613a2055524920717565727920666f72206e6f60008301527f6e6578697374656e7420746f6b656e00000000000000000000000000000000006020830152604082019050919050565b6000612e06602183613420565b91507f4552433732313a20617070726f76616c20746f2063757272656e74206f776e6560008301527f72000000000000000000000000000000000000000000000000000000000000006020830152604082019050919050565b6000612e6c603183613420565b91507f4552433732313a207472616e736665722063616c6c6572206973206e6f74206f60008301527f776e6572206e6f7220617070726f7665640000000000000000000000000000006020830152604082019050919050565b6000612ed2601d83613420565b91507f416464726573733a2063616c6c20746f206e6f6e2d636f6e74726163740000006000830152602082019050919050565b612f0e816134b8565b82525050565b612f1d816134b8565b82525050565b6000612f2f828461275d565b915081905092915050565b6000612f468284612800565b915081905092915050565b6000612f5d8285612800565b9150612f698284612800565b91508190509392505050565b6000602082019050612f8a6000830184612633565b92915050565b6000608082019050612fa56000830187612624565b612fb26020830186612633565b612fbf6040830185612f14565b8181036060830152612fd18184612724565b905095945050505050565b60006020820190508181036000830152612ff68184612642565b905092915050565b6000604082019050818103600083015261301881856126b7565b90506130276020830184612715565b9392505050565b60006020820190506130436000830184612715565b92915050565b6000602082019050818103600083015261306381846127c7565b905092915050565b6000602082019050818103600083015261308481612831565b9050919050565b600060208201905081810360008301526130a481612897565b9050919050565b600060208201905081810360008301526130c4816128fd565b9050919050565b600060208201905081810360008301526130e48161293d565b9050919050565b60006020820190508181036000830152613104816129a3565b9050919050565b60006020820190508181036000830152613124816129e3565b9050919050565b6000602082019050818103600083015261314481612a49565b9050919050565b6000602082019050818103600083015261316481612aaf565b9050919050565b6000602082019050818103600083015261318481612b15565b9050919050565b600060208201905081810360008301526131a481612b7b565b9050919050565b600060208201905081810360008301526131c481612be1565b9050919050565b600060208201905081810360008301526131e481612c21565b9050919050565b6000602082019050818103600083015261320481612c87565b9050919050565b6000602082019050818103600083015261322481612ced565b9050919050565b6000602082019050818103600083015261324481612d53565b9050919050565b6000602082019050818103600083015261326481612d93565b9050919050565b6000602082019050818103600083015261328481612df9565b9050919050565b600060208201905081810360008301526132a481612e5f565b9050919050565b600060208201905081810360008301526132c481612ec5565b9050919050565b60006020820190506132e06000830184612f14565b92915050565b6000604051905081810181811067ffffffffffffffff8211171561330957600080fd5b8060405250919050565b600067ffffffffffffffff82111561332a57600080fd5b601f19601f8301169050602081019050919050565b600067ffffffffffffffff82111561335657600080fd5b601f19601f8301169050602081019050919050565b6000819050602082019050919050565b6000819050602082019050919050565b600081519050919050565b600081519050919050565b600081519050919050565b600081519050919050565b6000602082019050919050565b6000602082019050919050565b600082825260208201905092915050565b600082825260208201905092915050565b600082825260208201905092915050565b600081905092915050565b600082825260208201905092915050565b600082825260208201905092915050565b600081905092915050565b600061344782613498565b9050919050565b600061345982613498565b9050919050565b60008115159050919050565b60007fffffffff0000000000000000000000000000000000000000000000000000000082169050919050565b600073ffffffffffffffffffffffffffffffffffffffff82169050919050565b6000819050919050565b82818337600083830152505050565b60005b838110156134ef5780820151818401526020810190506134d4565b838111156134fe576000848401525b50505050565b6000601f19601f8301169050919050565b61351e8161343c565b811461352957600080fd5b50565b61353581613460565b811461354057600080fd5b50565b61354c8161346c565b811461355757600080fd5b50565b613563816134b8565b811461356e57600080fd5b5056fe4552433732313a207472616e7366657220746f206e6f6e20455243373231526563656976657220696d706c656d656e7465724552433732313a206f776e657220717565727920666f72206e6f6e6578697374656e7420746f6b656ea26469706673582212204b2086dc65b9c2bc15ff75f66c8f6a9190c1861ce2a3a76ffa6b5f3d8256a26864736f6c634300060c0033",
  "immutableReferences": {},
  "source": "// contracts/GameItem.sol\r\n// SPDX-License-Identifier: MIT\r\npragma solidity <0.9.0;\r\npragma experimental ABIEncoderV2;\r\n\r\nimport \"@openzeppelin/contracts/token/ERC721/ERC721.sol\";\r\nimport \"@openzeppelin/contracts/utils/Counters.sol\";\r\n\r\ncontract Valid is ERC721 {\r\n    using Counters for Counters.Counter;\r\n    Counters.Counter private _tokenIds;\r\n\r\n    constructor() public ERC721(\"VALID\", \"VLD\") {}\r\n\r\n    function createItem(address owner, string memory tokenURI)\r\n        public\r\n        returns (uint256)\r\n    {\r\n        _tokenIds.increment();\r\n\r\n        uint256 newItemId = _tokenIds.current();\r\n        _mint(owner, newItemId);\r\n        _setTokenURI(newItemId, tokenURI);\r\n\r\n        return newItemId;\r\n    }\r\n\r\n    function IsHashed(string memory ipfshash)\r\n        public\r\n        view\r\n        returns (bool hashed)\r\n    {\r\n        //obtener cuantos tokens tiene el sm\r\n        uint256 nTokens = totalSupply();\r\n        if (nTokens == 0) {\r\n            return false;\r\n        }\r\n        bool exist = false;\r\n        //buscar si existe ese hash\r\n        for (uint256 i = 0; i < nTokens; i++) {\r\n            if (\r\n                keccak256(abi.encodePacked((ipfshash))) ==\r\n                keccak256(abi.encodePacked(tokenURI(tokenByIndex(i))))\r\n            ) {\r\n                exist = true;\r\n                break;\r\n            }\r\n        }\r\n        return (exist);\r\n    }\r\n\r\n    function getAllHashes() public view returns (string[] memory tokens) {\r\n        //obtener cuantos tokens tiene el sm\r\n        uint256 nTokens = totalSupply();\r\n        if (nTokens == 0) {\r\n            return new string[](nTokens);\r\n        }\r\n        //arreglo con los documentos\r\n        string[] memory dochashes = new string[](nTokens);\r\n        for (uint256 i = 0; i < nTokens; i++) {\r\n            dochashes[i] = tokenURI(tokenByIndex(i));\r\n        }\r\n        return (dochashes);\r\n    }\r\n\r\n    function tokensOf(address owner)\r\n        public\r\n        view\r\n        returns (uint256[] memory tokens, bool success)\r\n    {\r\n        //revisar que no sea el address para quemar tokens\r\n        require(owner != address(0), \"Address incorrecto\");\r\n        //numero de tokens\r\n        uint256 nTokens = balanceOf(owner);\r\n        if (nTokens == 0) {\r\n            return (new uint256[](nTokens), false);\r\n        }\r\n        //require(nTokens != 0, \"no cuentas con tokens\");\r\n        //arreglo de tokens\r\n        uint256[] memory tokensOfowner = new uint256[](nTokens);\r\n        //hacer el arreglo de tokens del owner\r\n        for (uint256 i = 0; i < nTokens; i++) {\r\n            tokensOfowner[i] = tokenOfOwnerByIndex(owner, i);\r\n        }\r\n        return (tokensOfowner, true);\r\n    }\r\n\r\n    function uint2str(uint256 _i)\r\n        internal\r\n        pure\r\n        returns (string memory _uintAsString)\r\n    {\r\n        if (_i == 0) {\r\n            return \"0\";\r\n        }\r\n        uint256 j = _i;\r\n        uint256 len;\r\n        while (j != 0) {\r\n            len++;\r\n            j /= 10;\r\n        }\r\n        bytes memory bstr = new bytes(len);\r\n        uint256 k = len - 1;\r\n        while (_i != 0) {\r\n            bstr[k--] = bytes1(uint8(48 + (_i % 10)));\r\n            _i /= 10;\r\n        }\r\n        return string(bstr);\r\n    }\r\n}\r\n",
  "sourcePath": "C:/Users/yeyei/OneDrive/Documentos/estampado/validafy-frontend/SContracts/contracts/Valid.sol",
  "compiler": {
    "name": "solc",
    "version": "0.6.12+commit.27d51765.Emscripten.clang"
  },
  "schemaVersion": "3.3.3",
  "updatedAt": "2021-05-06T00:20:43.746Z",
  "networkType": "ethereum",
  "devdoc": {
    "kind": "dev",
    "methods": {
      "approve(address,uint256)": {
        "details": "See {IERC721-approve}."
      },
      "balanceOf(address)": {
        "details": "See {IERC721-balanceOf}."
      },
      "baseURI()": {
        "details": "Returns the base URI set via {_setBaseURI}. This will be automatically added as a prefix in {tokenURI} to each token's URI, or to the token ID if no specific URI is set for that token ID."
      },
      "getApproved(uint256)": {
        "details": "See {IERC721-getApproved}."
      },
      "isApprovedForAll(address,address)": {
        "details": "See {IERC721-isApprovedForAll}."
      },
      "name()": {
        "details": "See {IERC721Metadata-name}."
      },
      "ownerOf(uint256)": {
        "details": "See {IERC721-ownerOf}."
      },
      "safeTransferFrom(address,address,uint256)": {
        "details": "See {IERC721-safeTransferFrom}."
      },
      "safeTransferFrom(address,address,uint256,bytes)": {
        "details": "See {IERC721-safeTransferFrom}."
      },
      "setApprovalForAll(address,bool)": {
        "details": "See {IERC721-setApprovalForAll}."
      },
      "supportsInterface(bytes4)": {
        "details": "See {IERC165-supportsInterface}. Time complexity O(1), guaranteed to always use less than 30 000 gas."
      },
      "symbol()": {
        "details": "See {IERC721Metadata-symbol}."
      },
      "tokenByIndex(uint256)": {
        "details": "See {IERC721Enumerable-tokenByIndex}."
      },
      "tokenOfOwnerByIndex(address,uint256)": {
        "details": "See {IERC721Enumerable-tokenOfOwnerByIndex}."
      },
      "tokenURI(uint256)": {
        "details": "See {IERC721Metadata-tokenURI}."
      },
      "totalSupply()": {
        "details": "See {IERC721Enumerable-totalSupply}."
      },
      "transferFrom(address,address,uint256)": {
        "details": "See {IERC721-transferFrom}."
      }
    },
    "version": 1
  },
  "userdoc": {
    "kind": "user",
    "methods": {},
    "version": 1
  }
}