{
  "contractName": "Valid",
  "abi": [
    {
      "inputs": [],
      "stateMutability": "nonpayable",
      "type": "constructor"
    },
    {
      "anonymous": false,
      "inputs": [
        {
          "indexed": true,
          "internalType": "address",
          "name": "owner",
          "type": "address"
        },
        {
          "indexed": true,
          "internalType": "address",
          "name": "approved",
          "type": "address"
        },
        {
          "indexed": true,
          "internalType": "uint256",
          "name": "tokenId",
          "type": "uint256"
        }
      ],
      "name": "Approval",
      "type": "event"
    },
    {
      "anonymous": false,
      "inputs": [
        {
          "indexed": true,
          "internalType": "address",
          "name": "owner",
          "type": "address"
        },
        {
          "indexed": true,
          "internalType": "address",
          "name": "operator",
          "type": "address"
        },
        {
          "indexed": false,
          "internalType": "bool",
          "name": "approved",
          "type": "bool"
        }
      ],
      "name": "ApprovalForAll",
      "type": "event"
    },
    {
      "anonymous": false,
      "inputs": [
        {
          "indexed": true,
          "internalType": "address",
          "name": "from",
          "type": "address"
        },
        {
          "indexed": true,
          "internalType": "address",
          "name": "to",
          "type": "address"
        },
        {
          "indexed": true,
          "internalType": "uint256",
          "name": "tokenId",
          "type": "uint256"
        }
      ],
      "name": "Transfer",
      "type": "event"
    },
    {
      "inputs": [
        {
          "internalType": "address",
          "name": "to",
          "type": "address"
        },
        {
          "internalType": "uint256",
          "name": "tokenId",
          "type": "uint256"
        }
      ],
      "name": "approve",
      "outputs": [],
      "stateMutability": "nonpayable",
      "type": "function"
    },
    {
      "inputs": [
        {
          "internalType": "address",
          "name": "owner",
          "type": "address"
        }
      ],
      "name": "balanceOf",
      "outputs": [
        {
          "internalType": "uint256",
          "name": "",
          "type": "uint256"
        }
      ],
      "stateMutability": "view",
      "type": "function",
      "constant": true
    },
    {
      "inputs": [],
      "name": "baseURI",
      "outputs": [
        {
          "internalType": "string",
          "name": "",
          "type": "string"
        }
      ],
      "stateMutability": "view",
      "type": "function",
      "constant": true
    },
    {
      "inputs": [
        {
          "internalType": "uint256",
          "name": "tokenId",
          "type": "uint256"
        }
      ],
      "name": "getApproved",
      "outputs": [
        {
          "internalType": "address",
          "name": "",
          "type": "address"
        }
      ],
      "stateMutability": "view",
      "type": "function",
      "constant": true
    },
    {
      "inputs": [
        {
          "internalType": "address",
          "name": "owner",
          "type": "address"
        },
        {
          "internalType": "address",
          "name": "operator",
          "type": "address"
        }
      ],
      "name": "isApprovedForAll",
      "outputs": [
        {
          "internalType": "bool",
          "name": "",
          "type": "bool"
        }
      ],
      "stateMutability": "view",
      "type": "function",
      "constant": true
    },
    {
      "inputs": [
        {
          "internalType": "uint256",
          "name": "",
          "type": "uint256"
        }
      ],
      "name": "metadata",
      "outputs": [
        {
          "internalType": "string",
          "name": "hash",
          "type": "string"
        },
        {
          "internalType": "uint256",
          "name": "_date",
          "type": "uint256"
        },
        {
          "internalType": "address",
          "name": "_owner",
          "type": "address"
        },
        {
          "internalType": "bytes32",
          "name": "_blockhash",
          "type": "bytes32"
        },
        {
          "internalType": "string",
          "name": "_fileName",
          "type": "string"
        },
        {
          "internalType": "string",
          "name": "_explorerUrl",
          "type": "string"
        },
        {
          "internalType": "uint256",
          "name": "_blocknumber",
          "type": "uint256"
        }
      ],
      "stateMutability": "view",
      "type": "function",
      "constant": true
    },
    {
      "inputs": [],
      "name": "name",
      "outputs": [
        {
          "internalType": "string",
          "name": "",
          "type": "string"
        }
      ],
      "stateMutability": "view",
      "type": "function",
      "constant": true
    },
    {
      "inputs": [
        {
          "internalType": "uint256",
          "name": "tokenId",
          "type": "uint256"
        }
      ],
      "name": "ownerOf",
      "outputs": [
        {
          "internalType": "address",
          "name": "",
          "type": "address"
        }
      ],
      "stateMutability": "view",
      "type": "function",
      "constant": true
    },
    {
      "inputs": [],
      "name": "ownerbalance",
      "outputs": [
        {
          "internalType": "address payable",
          "name": "",
          "type": "address"
        }
      ],
      "stateMutability": "view",
      "type": "function",
      "constant": true
    },
    {
      "inputs": [
        {
          "internalType": "address",
          "name": "from",
          "type": "address"
        },
        {
          "internalType": "address",
          "name": "to",
          "type": "address"
        },
        {
          "internalType": "uint256",
          "name": "tokenId",
          "type": "uint256"
        }
      ],
      "name": "safeTransferFrom",
      "outputs": [],
      "stateMutability": "nonpayable",
      "type": "function"
    },
    {
      "inputs": [
        {
          "internalType": "address",
          "name": "from",
          "type": "address"
        },
        {
          "internalType": "address",
          "name": "to",
          "type": "address"
        },
        {
          "internalType": "uint256",
          "name": "tokenId",
          "type": "uint256"
        },
        {
          "internalType": "bytes",
          "name": "_data",
          "type": "bytes"
        }
      ],
      "name": "safeTransferFrom",
      "outputs": [],
      "stateMutability": "nonpayable",
      "type": "function"
    },
    {
      "inputs": [
        {
          "internalType": "address",
          "name": "operator",
          "type": "address"
        },
        {
          "internalType": "bool",
          "name": "approved",
          "type": "bool"
        }
      ],
      "name": "setApprovalForAll",
      "outputs": [],
      "stateMutability": "nonpayable",
      "type": "function"
    },
    {
      "inputs": [
        {
          "internalType": "bytes4",
          "name": "interfaceId",
          "type": "bytes4"
        }
      ],
      "name": "supportsInterface",
      "outputs": [
        {
          "internalType": "bool",
          "name": "",
          "type": "bool"
        }
      ],
      "stateMutability": "view",
      "type": "function",
      "constant": true
    },
    {
      "inputs": [],
      "name": "symbol",
      "outputs": [
        {
          "internalType": "string",
          "name": "",
          "type": "string"
        }
      ],
      "stateMutability": "view",
      "type": "function",
      "constant": true
    },
    {
      "inputs": [
        {
          "internalType": "uint256",
          "name": "index",
          "type": "uint256"
        }
      ],
      "name": "tokenByIndex",
      "outputs": [
        {
          "internalType": "uint256",
          "name": "",
          "type": "uint256"
        }
      ],
      "stateMutability": "view",
      "type": "function",
      "constant": true
    },
    {
      "inputs": [
        {
          "internalType": "address",
          "name": "owner",
          "type": "address"
        },
        {
          "internalType": "uint256",
          "name": "index",
          "type": "uint256"
        }
      ],
      "name": "tokenOfOwnerByIndex",
      "outputs": [
        {
          "internalType": "uint256",
          "name": "",
          "type": "uint256"
        }
      ],
      "stateMutability": "view",
      "type": "function",
      "constant": true
    },
    {
      "inputs": [
        {
          "internalType": "uint256",
          "name": "tokenId",
          "type": "uint256"
        }
      ],
      "name": "tokenURI",
      "outputs": [
        {
          "internalType": "string",
          "name": "",
          "type": "string"
        }
      ],
      "stateMutability": "view",
      "type": "function",
      "constant": true
    },
    {
      "inputs": [],
      "name": "totalSupply",
      "outputs": [
        {
          "internalType": "uint256",
          "name": "",
          "type": "uint256"
        }
      ],
      "stateMutability": "view",
      "type": "function",
      "constant": true
    },
    {
      "inputs": [
        {
          "internalType": "address",
          "name": "from",
          "type": "address"
        },
        {
          "internalType": "address",
          "name": "to",
          "type": "address"
        },
        {
          "internalType": "uint256",
          "name": "tokenId",
          "type": "uint256"
        }
      ],
      "name": "transferFrom",
      "outputs": [],
      "stateMutability": "nonpayable",
      "type": "function"
    },
    {
      "inputs": [
        {
          "internalType": "string",
          "name": "tokenURI",
          "type": "string"
        },
        {
          "internalType": "string",
          "name": "fileName",
          "type": "string"
        },
        {
          "internalType": "string",
          "name": "explorerUrl",
          "type": "string"
        }
      ],
      "name": "createItem",
      "outputs": [],
      "stateMutability": "payable",
      "type": "function",
      "payable": true
    },
    {
      "inputs": [],
      "name": "smbalance",
      "outputs": [
        {
          "internalType": "uint256",
          "name": "",
          "type": "uint256"
        }
      ],
      "stateMutability": "view",
      "type": "function",
      "constant": true
    },
    {
      "inputs": [],
      "name": "withdraw",
      "outputs": [],
      "stateMutability": "nonpayable",
      "type": "function"
    },
    {
      "inputs": [
        {
          "internalType": "string",
          "name": "ipfshash",
          "type": "string"
        }
      ],
      "name": "IsHashed",
      "outputs": [
        {
          "internalType": "bool",
          "name": "hashed",
          "type": "bool"
        }
      ],
      "stateMutability": "view",
      "type": "function",
      "constant": true
    },
    {
      "inputs": [
        {
          "internalType": "address",
          "name": "owner",
          "type": "address"
        }
      ],
      "name": "documentsOF",
      "outputs": [
        {
          "components": [
            {
              "internalType": "string",
              "name": "hash",
              "type": "string"
            },
            {
              "internalType": "uint256",
              "name": "tokenid",
              "type": "uint256"
            },
            {
              "internalType": "uint256",
              "name": "_date",
              "type": "uint256"
            },
            {
              "internalType": "address",
              "name": "_owner",
              "type": "address"
            },
            {
              "internalType": "bytes32",
              "name": "_blockhash",
              "type": "bytes32"
            },
            {
              "internalType": "string",
              "name": "_fileName",
              "type": "string"
            },
            {
              "internalType": "string",
              "name": "_explorerUrl",
              "type": "string"
            },
            {
              "internalType": "uint256",
              "name": "_blocknumber",
              "type": "uint256"
            }
          ],
          "internalType": "struct Valid.documentData[]",
          "name": "documents",
          "type": "tuple[]"
        }
      ],
      "stateMutability": "view",
      "type": "function",
      "constant": true
    },
    {
      "inputs": [],
      "name": "getAllHashes",
      "outputs": [
        {
          "internalType": "string[]",
          "name": "tokens",
          "type": "string[]"
        }
      ],
      "stateMutability": "view",
      "type": "function",
      "constant": true
    },
    {
      "inputs": [
        {
          "internalType": "address",
          "name": "owner",
          "type": "address"
        }
      ],
      "name": "tokensOf",
      "outputs": [
        {
          "internalType": "uint256[]",
          "name": "tokens",
          "type": "uint256[]"
        },
        {
          "internalType": "bool",
          "name": "success",
          "type": "bool"
        }
      ],
      "stateMutability": "view",
      "type": "function",
      "constant": true
    }
  ],
  "bytecode": "0x60806040523480156200001157600080fd5b506040518060400160405280600581526020017f56414c49440000000000000000000000000000000000000000000000000000008152506040518060400160405280600381526020017f564c440000000000000000000000000000000000000000000000000000000000815250620000966301ffc9a760e01b6200015960201b60201c565b8160069080519060200190620000ae92919062000231565b508060079080519060200190620000c792919062000231565b50620000e06380ac58cd60e01b6200015960201b60201c565b620000f8635b5e139f60e01b6200015960201b60201c565b6200011063780e9d6360e01b6200015960201b60201c565b505033600b60006101000a81548173ffffffffffffffffffffffffffffffffffffffff021916908373ffffffffffffffffffffffffffffffffffffffff1602179055506200034c565b63ffffffff60e01b817bffffffffffffffffffffffffffffffffffffffffffffffffffffffff19161415620001c5576040517f08c379a0000000000000000000000000000000000000000000000000000000008152600401620001bc9062000319565b60405180910390fd5b6001600080837bffffffffffffffffffffffffffffffffffffffffffffffffffffffff19167bffffffffffffffffffffffffffffffffffffffffffffffffffffffff1916815260200190815260200160002060006101000a81548160ff02191690831515021790555050565b828054600181600116156101000203166002900490600052602060002090601f016020900481019282601f106200027457805160ff1916838001178555620002a5565b82800160010185558215620002a5579182015b82811115620002a457825182559160200191906001019062000287565b5b509050620002b49190620002b8565b5090565b5b80821115620002d3576000816000905550600101620002b9565b5090565b6000620002e6601c836200033b565b91507f4552433136353a20696e76616c696420696e74657266616365206964000000006000830152602082019050919050565b600060208201905081810360008301526200033481620002d7565b9050919050565b600082825260208201905092915050565b6145f5806200035c6000396000f3fe6080604052600436106101815760003560e01c80636c0360eb116100d1578063c38d39a51161008a578063e3684e3911610064578063e3684e39146105c0578063e985e9c514610603578063fa221e6614610640578063fe99f7421461066b57610181565b8063c38d39a51461051b578063c87b56dd14610546578063e02ddea41461058357610181565b80636c0360eb1461041a57806370a0823114610445578063876ab02b1461048257806395d89b411461049e578063a22cb465146104c9578063b88d4fde146104f257610181565b806323b872dd1161013e57806342842e0e1161011857806342842e0e146103395780634f6ccce7146103625780635a3f26721461039f5780636352211e146103dd57610181565b806323b872dd146102bc5780632f745c59146102e55780633ccfd60b1461032257610181565b806301ffc9a71461018657806306fdde03146101c3578063081812fc146101ee578063095ea7b31461022b57806318160ddd146102545780631c4d1d311461027f575b600080fd5b34801561019257600080fd5b506101ad60048036038101906101a89190613213565b610696565b6040516101ba9190613f5a565b60405180910390f35b3480156101cf57600080fd5b506101d86106fd565b6040516101e59190613f75565b60405180910390f35b3480156101fa57600080fd5b506102156004803603810190610210919061334a565b61079f565b6040516102229190613e64565b60405180910390f35b34801561023757600080fd5b50610252600480360381019061024d91906131d7565b610824565b005b34801561026057600080fd5b5061026961093c565b604051610276919061427b565b60405180910390f35b34801561028b57600080fd5b506102a660048036038101906102a19190613309565b61094d565b6040516102b39190613f5a565b60405180910390f35b3480156102c857600080fd5b506102e360048036038101906102de91906130d1565b6109ff565b005b3480156102f157600080fd5b5061030c600480360381019061030791906131d7565b610a5f565b604051610319919061427b565b60405180910390f35b34801561032e57600080fd5b50610337610aba565b005b34801561034557600080fd5b50610360600480360381019061035b91906130d1565b610b7f565b005b34801561036e57600080fd5b506103896004803603810190610384919061334a565b610b9f565b604051610396919061427b565b60405180910390f35b3480156103ab57600080fd5b506103c660048036038101906103c1919061306c565b610bc2565b6040516103d4929190613f2a565b60405180910390f35b3480156103e957600080fd5b5061040460048036038101906103ff919061334a565b610d33565b6040516104119190613e64565b60405180910390f35b34801561042657600080fd5b5061042f610d6a565b60405161043c9190613f75565b60405180910390f35b34801561045157600080fd5b5061046c6004803603810190610467919061306c565b610e0c565b604051610479919061427b565b60405180910390f35b61049c60048036038101906104979190613265565b610ecb565b005b3480156104aa57600080fd5b506104b361115b565b6040516104c09190613f75565b60405180910390f35b3480156104d557600080fd5b506104f060048036038101906104eb919061319b565b6111fd565b005b3480156104fe57600080fd5b5061051960048036038101906105149190613120565b61137e565b005b34801561052757600080fd5b506105306113e0565b60405161053d9190613e7f565b60405180910390f35b34801561055257600080fd5b5061056d6004803603810190610568919061334a565b611406565b60405161057a9190613f75565b60405180910390f35b34801561058f57600080fd5b506105aa60048036038101906105a5919061306c565b611589565b6040516105b79190613f08565b60405180910390f35b3480156105cc57600080fd5b506105e760048036038101906105e2919061334a565b611a70565b6040516105fa9796959493929190613f97565b60405180910390f35b34801561060f57600080fd5b5061062a60048036038101906106259190613095565b611c9a565b6040516106379190613f5a565b60405180910390f35b34801561064c57600080fd5b50610655611d2e565b604051610662919061427b565b60405180910390f35b34801561067757600080fd5b50610680611d36565b60405161068d9190613ee6565b60405180910390f35b6000806000837bffffffffffffffffffffffffffffffffffffffffffffffffffffffff19167bffffffffffffffffffffffffffffffffffffffffffffffffffffffff1916815260200190815260200160002060009054906101000a900460ff169050919050565b606060068054600181600116156101000203166002900480601f0160208091040260200160405190810160405280929190818152602001828054600181600116156101000203166002900480156107955780601f1061076a57610100808354040283529160200191610795565b820191906000526020600020905b81548152906001019060200180831161077857829003601f168201915b5050505050905090565b60006107aa82611e3b565b6107e9576040517f08c379a00000000000000000000000000000000000000000000000000000000081526004016107e09061417b565b60405180910390fd5b6004600083815260200190815260200160002060009054906101000a900473ffffffffffffffffffffffffffffffffffffffff169050919050565b600061082f82610d33565b90508073ffffffffffffffffffffffffffffffffffffffff168373ffffffffffffffffffffffffffffffffffffffff1614156108a0576040517f08c379a00000000000000000000000000000000000000000000000000000000081526004016108979061421b565b60405180910390fd5b8073ffffffffffffffffffffffffffffffffffffffff166108bf611e58565b73ffffffffffffffffffffffffffffffffffffffff1614806108ee57506108ed816108e8611e58565b611c9a565b5b61092d576040517f08c379a0000000000000000000000000000000000000000000000000000000008152600401610924906140fb565b60405180910390fd5b6109378383611e60565b505050565b60006109486002611f19565b905090565b60008061095861093c565b9050600081141561096d5760009150506109fa565b6000805b828110156109f35761098a61098582610b9f565b611406565b60405160200161099a9190613e29565b60405160208183030381529060405280519060200120856040516020016109c19190613e29565b6040516020818303038152906040528051906020012014156109e657600191506109f3565b8080600101915050610971565b5080925050505b919050565b610a10610a0a611e58565b82611f2e565b610a4f576040517f08c379a0000000000000000000000000000000000000000000000000000000008152600401610a469061423b565b60405180910390fd5b610a5a83838361200c565b505050565b6000610ab282600160008673ffffffffffffffffffffffffffffffffffffffff1673ffffffffffffffffffffffffffffffffffffffff16815260200190815260200160002061222390919063ffffffff16565b905092915050565b600b60009054906101000a900473ffffffffffffffffffffffffffffffffffffffff1673ffffffffffffffffffffffffffffffffffffffff163373ffffffffffffffffffffffffffffffffffffffff1614610b1457600080fd5b600b60009054906101000a900473ffffffffffffffffffffffffffffffffffffffff1673ffffffffffffffffffffffffffffffffffffffff166108fc479081150290604051600060405180830381858888f19350505050158015610b7c573d6000803e3d6000fd5b50565b610b9a8383836040518060200160405280600081525061137e565b505050565b600080610bb683600261223d90919063ffffffff16565b50905080915050919050565b606060008073ffffffffffffffffffffffffffffffffffffffff168373ffffffffffffffffffffffffffffffffffffffff161415610c35576040517f08c379a0000000000000000000000000000000000000000000000000000000008152600401610c2c906141db565b60405180910390fd5b6000610c4084610e0c565b90506000811415610c9e578067ffffffffffffffff81118015610c6257600080fd5b50604051908082528060200260200182016040528015610c915781602001602082028036833780820191505090505b5060009250925050610d2e565b60608167ffffffffffffffff81118015610cb757600080fd5b50604051908082528060200260200182016040528015610ce65781602001602082028036833780820191505090505b50905060005b82811015610d2357610cfe8682610a5f565b828281518110610d0a57fe5b6020026020010181815250508080600101915050610cec565b508060019350935050505b915091565b6000610d63826040518060600160405280602981526020016145976029913960026122699092919063ffffffff16565b9050919050565b606060098054600181600116156101000203166002900480601f016020809104026020016040519081016040528092919081815260200182805460018160011615610100020316600290048015610e025780601f10610dd757610100808354040283529160200191610e02565b820191906000526020600020905b815481529060010190602001808311610de557829003601f168201915b5050505050905090565b60008073ffffffffffffffffffffffffffffffffffffffff168273ffffffffffffffffffffffffffffffffffffffff161415610e7d576040517f08c379a0000000000000000000000000000000000000000000000000000000008152600401610e749061411b565b60405180910390fd5b610ec4600160008473ffffffffffffffffffffffffffffffffffffffff1673ffffffffffffffffffffffffffffffffffffffff168152602001908152602001600020612288565b9050919050565b610ed5600a61229d565b610ee833610ee3600a6122b3565b6122c1565b610f3f610ef5600a6122b3565b87878080601f016020809104026020016040519081016040528093929190818152602001838380828437600081840152601f19601f8201169050808301925050505050505061244f565b6040518060e0016040528087878080601f016020809104026020016040519081016040528093929190818152602001838380828437600081840152601f19601f820116905080830192505050505050508152602001428152602001600b60009054906101000a900473ffffffffffffffffffffffffffffffffffffffff1673ffffffffffffffffffffffffffffffffffffffff168152602001600040815260200185858080601f016020809104026020016040519081016040528093929190818152602001838380828437600081840152601f19601f82011690508083019250505050505050815260200183838080601f016020809104026020016040519081016040528093929190818152602001838380828437600081840152601f19601f82011690508083019250505050505050815260200143815250600c6000611086600a6122b3565b815260200190815260200160002060008201518160000190805190602001906110b0929190612e16565b506020820151816001015560408201518160020160006101000a81548173ffffffffffffffffffffffffffffffffffffffff021916908373ffffffffffffffffffffffffffffffffffffffff160217905550606082015181600301556080820151816004019080519060200190611128929190612e16565b5060a0820151816005019080519060200190611145929190612e16565b5060c08201518160060155905050505050505050565b606060078054600181600116156101000203166002900480601f0160208091040260200160405190810160405280929190818152602001828054600181600116156101000203166002900480156111f35780601f106111c8576101008083540402835291602001916111f3565b820191906000526020600020905b8154815290600101906020018083116111d657829003601f168201915b5050505050905090565b611205611e58565b73ffffffffffffffffffffffffffffffffffffffff168273ffffffffffffffffffffffffffffffffffffffff161415611273576040517f08c379a000000000000000000000000000000000000000000000000000000000815260040161126a9061409b565b60405180910390fd5b8060056000611280611e58565b73ffffffffffffffffffffffffffffffffffffffff1673ffffffffffffffffffffffffffffffffffffffff16815260200190815260200160002060008473ffffffffffffffffffffffffffffffffffffffff1673ffffffffffffffffffffffffffffffffffffffff16815260200190815260200160002060006101000a81548160ff0219169083151502179055508173ffffffffffffffffffffffffffffffffffffffff1661132d611e58565b73ffffffffffffffffffffffffffffffffffffffff167f17307eab39ab6107e8899845ad3d59bd9653f200f220920489ca2b5937696c31836040516113729190613f5a565b60405180910390a35050565b61138f611389611e58565b83611f2e565b6113ce576040517f08c379a00000000000000000000000000000000000000000000000000000000081526004016113c59061423b565b60405180910390fd5b6113da848484846124c3565b50505050565b600b60009054906101000a900473ffffffffffffffffffffffffffffffffffffffff1681565b606061141182611e3b565b611450576040517f08c379a0000000000000000000000000000000000000000000000000000000008152600401611447906141fb565b60405180910390fd5b6060600860008481526020019081526020016000208054600181600116156101000203166002900480601f0160208091040260200160405190810160405280929190818152602001828054600181600116156101000203166002900480156114f95780601f106114ce576101008083540402835291602001916114f9565b820191906000526020600020905b8154815290600101906020018083116114dc57829003601f168201915b50505050509050606061150a610d6a565b9050600081511415611520578192505050611584565b60008251111561155557808260405160200161153d929190613e40565b60405160208183030381529060405292505050611584565b8061155f8561251f565b604051602001611570929190613e40565b604051602081830303815290604052925050505b919050565b6060600073ffffffffffffffffffffffffffffffffffffffff168273ffffffffffffffffffffffffffffffffffffffff1614156115fb576040517f08c379a00000000000000000000000000000000000000000000000000000000081526004016115f2906141db565b60405180910390fd5b600061160683610e0c565b9050600081141561166b578067ffffffffffffffff8111801561162857600080fd5b5060405190808252806020026020018201604052801561166257816020015b61164f612e96565b8152602001906001900390816116475790505b50915050611a6b565b60608167ffffffffffffffff8111801561168457600080fd5b506040519080825280602002602001820160405280156116be57816020015b6116ab612e96565b8152602001906001900390816116a35790505b50905060005b82811015611a64576116de6116d98683610a5f565b611406565b8282815181106116ea57fe5b6020026020010151600001819052506117038582610a5f565b82828151811061170f57fe5b60200260200101516020018181525050600c600083838151811061172f57fe5b60200260200101516020015181526020019081526020016000206001015482828151811061175957fe5b60200260200101516040018181525050600c600083838151811061177957fe5b602002602001015160200151815260200190815260200160002060020160009054906101000a900473ffffffffffffffffffffffffffffffffffffffff168282815181106117c357fe5b60200260200101516060019073ffffffffffffffffffffffffffffffffffffffff16908173ffffffffffffffffffffffffffffffffffffffff1681525050600c600083838151811061181157fe5b60200260200101516020015181526020019081526020016000206004018054600181600116156101000203166002900480601f0160208091040260200160405190810160405280929190818152602001828054600181600116156101000203166002900480156118c25780601f10611897576101008083540402835291602001916118c2565b820191906000526020600020905b8154815290600101906020018083116118a557829003601f168201915b50505050508282815181106118d357fe5b602002602001015160a00181905250600c60008383815181106118f257fe5b60200260200101516020015181526020019081526020016000206005018054600181600116156101000203166002900480601f0160208091040260200160405190810160405280929190818152602001828054600181600116156101000203166002900480156119a35780601f10611978576101008083540402835291602001916119a3565b820191906000526020600020905b81548152906001019060200180831161198657829003601f168201915b50505050508282815181106119b457fe5b602002602001015160c00181905250600c60008383815181106119d357fe5b6020026020010151602001518152602001908152602001600020600301548282815181106119fd57fe5b60200260200101516080018181525050600c6000838381518110611a1d57fe5b602002602001015160200151815260200190815260200160002060060154828281518110611a4757fe5b602002602001015160e001818152505080806001019150506116c4565b5080925050505b919050565b600c602052806000526040600020600091509050806000018054600181600116156101000203166002900480601f016020809104026020016040519081016040528092919081815260200182805460018160011615610100020316600290048015611b1c5780601f10611af157610100808354040283529160200191611b1c565b820191906000526020600020905b815481529060010190602001808311611aff57829003601f168201915b5050505050908060010154908060020160009054906101000a900473ffffffffffffffffffffffffffffffffffffffff1690806003015490806004018054600181600116156101000203166002900480601f016020809104026020016040519081016040528092919081815260200182805460018160011615610100020316600290048015611bec5780601f10611bc157610100808354040283529160200191611bec565b820191906000526020600020905b815481529060010190602001808311611bcf57829003601f168201915b505050505090806005018054600181600116156101000203166002900480601f016020809104026020016040519081016040528092919081815260200182805460018160011615610100020316600290048015611c8a5780601f10611c5f57610100808354040283529160200191611c8a565b820191906000526020600020905b815481529060010190602001808311611c6d57829003601f168201915b5050505050908060060154905087565b6000600560008473ffffffffffffffffffffffffffffffffffffffff1673ffffffffffffffffffffffffffffffffffffffff16815260200190815260200160002060008373ffffffffffffffffffffffffffffffffffffffff1673ffffffffffffffffffffffffffffffffffffffff16815260200190815260200160002060009054906101000a900460ff16905092915050565b600047905090565b60606000611d4261093c565b90506000811415611da1578067ffffffffffffffff81118015611d6457600080fd5b50604051908082528060200260200182016040528015611d9857816020015b6060815260200190600190039081611d835790505b50915050611e38565b60608167ffffffffffffffff81118015611dba57600080fd5b50604051908082528060200260200182016040528015611dee57816020015b6060815260200190600190039081611dd95790505b50905060005b82811015611e3157611e0d611e0882610b9f565b611406565b828281518110611e1957fe5b60200260200101819052508080600101915050611df4565b5080925050505b90565b6000611e5182600261266690919063ffffffff16565b9050919050565b600033905090565b816004600083815260200190815260200160002060006101000a81548173ffffffffffffffffffffffffffffffffffffffff021916908373ffffffffffffffffffffffffffffffffffffffff160217905550808273ffffffffffffffffffffffffffffffffffffffff16611ed383610d33565b73ffffffffffffffffffffffffffffffffffffffff167f8c5be1e5ebec7d5bd14f71427d1e84f3dd0314c0f7b2291e5b200ac8c7c3b92560405160405180910390a45050565b6000611f2782600001612680565b9050919050565b6000611f3982611e3b565b611f78576040517f08c379a0000000000000000000000000000000000000000000000000000000008152600401611f6f906140db565b60405180910390fd5b6000611f8383610d33565b90508073ffffffffffffffffffffffffffffffffffffffff168473ffffffffffffffffffffffffffffffffffffffff161480611ff257508373ffffffffffffffffffffffffffffffffffffffff16611fda8461079f565b73ffffffffffffffffffffffffffffffffffffffff16145b8061200357506120028185611c9a565b5b91505092915050565b8273ffffffffffffffffffffffffffffffffffffffff1661202c82610d33565b73ffffffffffffffffffffffffffffffffffffffff1614612082576040517f08c379a0000000000000000000000000000000000000000000000000000000008152600401612079906141bb565b60405180910390fd5b600073ffffffffffffffffffffffffffffffffffffffff168273ffffffffffffffffffffffffffffffffffffffff1614156120f2576040517f08c379a00000000000000000000000000000000000000000000000000000000081526004016120e99061407b565b60405180910390fd5b6120fd838383612691565b612108600082611e60565b61215981600160008673ffffffffffffffffffffffffffffffffffffffff1673ffffffffffffffffffffffffffffffffffffffff16815260200190815260200160002061269690919063ffffffff16565b506121ab81600160008573ffffffffffffffffffffffffffffffffffffffff1673ffffffffffffffffffffffffffffffffffffffff1681526020019081526020016000206126b090919063ffffffff16565b506121c2818360026126ca9092919063ffffffff16565b50808273ffffffffffffffffffffffffffffffffffffffff168473ffffffffffffffffffffffffffffffffffffffff167fddf252ad1be2c89b69c2b068fc378daa952ba7f163c4a11628f55a4df523b3ef60405160405180910390a4505050565b600061223283600001836126ff565b60001c905092915050565b600080600080612250866000018661276c565b915091508160001c8160001c9350935050509250929050565b600061227c846000018460001b846127ef565b60001c90509392505050565b600061229682600001612880565b9050919050565b6001816000016000828254019250508190555050565b600081600001549050919050565b600073ffffffffffffffffffffffffffffffffffffffff168273ffffffffffffffffffffffffffffffffffffffff161415612331576040517f08c379a00000000000000000000000000000000000000000000000000000000081526004016123289061415b565b60405180910390fd5b61233a81611e3b565b1561237a576040517f08c379a00000000000000000000000000000000000000000000000000000000081526004016123719061405b565b60405180910390fd5b61238660008383612691565b6123d781600160008573ffffffffffffffffffffffffffffffffffffffff1673ffffffffffffffffffffffffffffffffffffffff1681526020019081526020016000206126b090919063ffffffff16565b506123ee818360026126ca9092919063ffffffff16565b50808273ffffffffffffffffffffffffffffffffffffffff16600073ffffffffffffffffffffffffffffffffffffffff167fddf252ad1be2c89b69c2b068fc378daa952ba7f163c4a11628f55a4df523b3ef60405160405180910390a45050565b61245882611e3b565b612497576040517f08c379a000000000000000000000000000000000000000000000000000000000815260040161248e9061419b565b60405180910390fd5b806008600084815260200190815260200160002090805190602001906124be929190612e16565b505050565b6124ce84848461200c565b6124da84848484612891565b612519576040517f08c379a00000000000000000000000000000000000000000000000000000000081526004016125109061403b565b60405180910390fd5b50505050565b60606000821415612567576040518060400160405280600181526020017f30000000000000000000000000000000000000000000000000000000000000008152509050612661565b600082905060005b60008214612591578080600101915050600a828161258957fe5b04915061256f565b60608167ffffffffffffffff811180156125aa57600080fd5b506040519080825280601f01601f1916602001820160405280156125dd5781602001600182028036833780820191505090505b50905060006001830390508593505b6000841461265957600a84816125fe57fe5b0660300160f81b8282806001900393508151811061261857fe5b60200101907effffffffffffffffffffffffffffffffffffffffffffffffffffffffffffff1916908160001a905350600a848161265157fe5b0493506125ec565b819450505050505b919050565b6000612678836000018360001b6129f5565b905092915050565b600081600001805490509050919050565b505050565b60006126a8836000018360001b612a18565b905092915050565b60006126c2836000018360001b612b00565b905092915050565b60006126f6846000018460001b8473ffffffffffffffffffffffffffffffffffffffff1660001b612b70565b90509392505050565b60008183600001805490501161274a576040517f08c379a00000000000000000000000000000000000000000000000000000000081526004016127419061401b565b60405180910390fd5b82600001828154811061275957fe5b9060005260206000200154905092915050565b600080828460000180549050116127b8576040517f08c379a00000000000000000000000000000000000000000000000000000000081526004016127af9061413b565b60405180910390fd5b60008460000184815481106127c957fe5b906000526020600020906002020190508060000154816001015492509250509250929050565b60008084600101600085815260200190815260200160002054905060008114158390612851576040517f08c379a00000000000000000000000000000000000000000000000000000000081526004016128489190613f75565b60405180910390fd5b5084600001600182038154811061286457fe5b9060005260206000209060020201600101549150509392505050565b600081600001805490509050919050565b60006128b28473ffffffffffffffffffffffffffffffffffffffff16612c4c565b6128bf57600190506129ed565b606061298663150b7a0260e01b6128d4611e58565b8887876040516024016128ea9493929190613e9a565b604051602081830303815290604052907bffffffffffffffffffffffffffffffffffffffffffffffffffffffff19166020820180517bffffffffffffffffffffffffffffffffffffffffffffffffffffffff8381831617835250505050604051806060016040528060328152602001614565603291398773ffffffffffffffffffffffffffffffffffffffff16612c5f9092919063ffffffff16565b905060008180602001905181019061299e919061323c565b905063150b7a0260e01b7bffffffffffffffffffffffffffffffffffffffffffffffffffffffff1916817bffffffffffffffffffffffffffffffffffffffffffffffffffffffff191614925050505b949350505050565b600080836001016000848152602001908152602001600020541415905092915050565b60008083600101600084815260200190815260200160002054905060008114612af45760006001820390506000600186600001805490500390506000866000018281548110612a6357fe5b9060005260206000200154905080876000018481548110612a8057fe5b9060005260206000200181905550600183018760010160008381526020019081526020016000208190555086600001805480612ab857fe5b60019003818190600052602060002001600090559055866001016000878152602001908152602001600020600090556001945050505050612afa565b60009150505b92915050565b6000612b0c8383612c77565b612b65578260000182908060018154018082558091505060019003906000526020600020016000909190919091505582600001805490508360010160008481526020019081526020016000208190555060019050612b6a565b600090505b92915050565b6000808460010160008581526020019081526020016000205490506000811415612c1757846000016040518060400160405280868152602001858152509080600181540180825580915050600190039060005260206000209060020201600090919091909150600082015181600001556020820151816001015550508460000180549050856001016000868152602001908152602001600020819055506001915050612c45565b82856000016001830381548110612c2a57fe5b90600052602060002090600202016001018190555060009150505b9392505050565b600080823b905060008111915050919050565b6060612c6e8484600085612c9a565b90509392505050565b600080836001016000848152602001908152602001600020541415905092915050565b606082471015612cdf576040517f08c379a0000000000000000000000000000000000000000000000000000000008152600401612cd6906140bb565b60405180910390fd5b612ce885612c4c565b612d27576040517f08c379a0000000000000000000000000000000000000000000000000000000008152600401612d1e9061425b565b60405180910390fd5b600060608673ffffffffffffffffffffffffffffffffffffffff168587604051612d519190613e12565b60006040518083038185875af1925050503d8060008114612d8e576040519150601f19603f3d011682016040523d82523d6000602084013e612d93565b606091505b5091509150612da3828286612daf565b92505050949350505050565b60608315612dbf57829050612e0f565b600083511115612dd25782518084602001fd5b816040517f08c379a0000000000000000000000000000000000000000000000000000000008152600401612e069190613f75565b60405180910390fd5b9392505050565b828054600181600116156101000203166002900490600052602060002090601f016020900481019282601f10612e5757805160ff1916838001178555612e85565b82800160010185558215612e85579182015b82811115612e84578251825591602001919060010190612e69565b5b509050612e929190612ef4565b5090565b604051806101000160405280606081526020016000815260200160008152602001600073ffffffffffffffffffffffffffffffffffffffff168152602001600080191681526020016060815260200160608152602001600081525090565b5b80821115612f0d576000816000905550600101612ef5565b5090565b600081359050612f2081614508565b92915050565b600081359050612f358161451f565b92915050565b600081359050612f4a81614536565b92915050565b600081519050612f5f81614536565b92915050565b600082601f830112612f7657600080fd5b8135612f89612f84826142c3565b614296565b91508082526020830160208301858383011115612fa557600080fd5b612fb08382846144b5565b50505092915050565b60008083601f840112612fcb57600080fd5b8235905067ffffffffffffffff811115612fe457600080fd5b602083019150836001820283011115612ffc57600080fd5b9250929050565b600082601f83011261301457600080fd5b8135613027613022826142ef565b614296565b9150808252602083016020830185838301111561304357600080fd5b61304e8382846144b5565b50505092915050565b6000813590506130668161454d565b92915050565b60006020828403121561307e57600080fd5b600061308c84828501612f11565b91505092915050565b600080604083850312156130a857600080fd5b60006130b685828601612f11565b92505060206130c785828601612f11565b9150509250929050565b6000806000606084860312156130e657600080fd5b60006130f486828701612f11565b935050602061310586828701612f11565b925050604061311686828701613057565b9150509250925092565b6000806000806080858703121561313657600080fd5b600061314487828801612f11565b945050602061315587828801612f11565b935050604061316687828801613057565b925050606085013567ffffffffffffffff81111561318357600080fd5b61318f87828801612f65565b91505092959194509250565b600080604083850312156131ae57600080fd5b60006131bc85828601612f11565b92505060206131cd85828601612f26565b9150509250929050565b600080604083850312156131ea57600080fd5b60006131f885828601612f11565b925050602061320985828601613057565b9150509250929050565b60006020828403121561322557600080fd5b600061323384828501612f3b565b91505092915050565b60006020828403121561324e57600080fd5b600061325c84828501612f50565b91505092915050565b6000806000806000806060878903121561327e57600080fd5b600087013567ffffffffffffffff81111561329857600080fd5b6132a489828a01612fb9565b9650965050602087013567ffffffffffffffff8111156132c357600080fd5b6132cf89828a01612fb9565b9450945050604087013567ffffffffffffffff8111156132ee57600080fd5b6132fa89828a01612fb9565b92509250509295509295509295565b60006020828403121561331b57600080fd5b600082013567ffffffffffffffff81111561333557600080fd5b61334184828501613003565b91505092915050565b60006020828403121561335c57600080fd5b600061336a84828501613057565b91505092915050565b600061337f83836135bf565b905092915050565b60006133938383613d36565b905092915050565b60006133a78383613df4565b60208301905092915050565b6133bc81614437565b82525050565b6133cb81614425565b82525050565b6133da81614425565b82525050565b60006133eb8261434b565b6133f581856143a9565b9350836020820285016134078561431b565b8060005b8581101561344357848403895281516134248582613373565b945061342f83614382565b925060208a0199505060018101905061340b565b50829750879550505050505092915050565b600061346082614356565b61346a81856143ba565b93508360208202850161347c8561432b565b8060005b858110156134b857848403895281516134998582613387565b94506134a48361438f565b925060208a01995050600181019050613480565b50829750879550505050505092915050565b60006134d582614361565b6134df81856143cb565b93506134ea8361433b565b8060005b8381101561351b578151613502888261339b565b975061350d8361439c565b9250506001810190506134ee565b5085935050505092915050565b61353181614449565b82525050565b61354081614455565b82525050565b61354f81614455565b82525050565b60006135608261436c565b61356a81856143dc565b935061357a8185602086016144c4565b613583816144f7565b840191505092915050565b60006135998261436c565b6135a381856143ed565b93506135b38185602086016144c4565b80840191505092915050565b60006135ca82614377565b6135d481856143f8565b93506135e48185602086016144c4565b6135ed816144f7565b840191505092915050565b600061360382614377565b61360d8185614409565b935061361d8185602086016144c4565b613626816144f7565b840191505092915050565b600061363c82614377565b613646818561441a565b93506136568185602086016144c4565b80840191505092915050565b600061366f602283614409565b91507f456e756d657261626c655365743a20696e646578206f7574206f6620626f756e60008301527f64730000000000000000000000000000000000000000000000000000000000006020830152604082019050919050565b60006136d5603283614409565b91507f4552433732313a207472616e7366657220746f206e6f6e20455243373231526560008301527f63656976657220696d706c656d656e74657200000000000000000000000000006020830152604082019050919050565b600061373b601c83614409565b91507f4552433732313a20746f6b656e20616c7265616479206d696e746564000000006000830152602082019050919050565b600061377b602483614409565b91507f4552433732313a207472616e7366657220746f20746865207a65726f2061646460008301527f72657373000000000000000000000000000000000000000000000000000000006020830152604082019050919050565b60006137e1601983614409565b91507f4552433732313a20617070726f766520746f2063616c6c6572000000000000006000830152602082019050919050565b6000613821602683614409565b91507f416464726573733a20696e73756666696369656e742062616c616e636520666f60008301527f722063616c6c00000000000000000000000000000000000000000000000000006020830152604082019050919050565b6000613887602c83614409565b91507f4552433732313a206f70657261746f7220717565727920666f72206e6f6e657860008301527f697374656e7420746f6b656e00000000000000000000000000000000000000006020830152604082019050919050565b60006138ed603883614409565b91507f4552433732313a20617070726f76652063616c6c6572206973206e6f74206f7760008301527f6e6572206e6f7220617070726f76656420666f7220616c6c00000000000000006020830152604082019050919050565b6000613953602a83614409565b91507f4552433732313a2062616c616e636520717565727920666f7220746865207a6560008301527f726f2061646472657373000000000000000000000000000000000000000000006020830152604082019050919050565b60006139b9602283614409565b91507f456e756d657261626c654d61703a20696e646578206f7574206f6620626f756e60008301527f64730000000000000000000000000000000000000000000000000000000000006020830152604082019050919050565b6000613a1f602083614409565b91507f4552433732313a206d696e7420746f20746865207a65726f20616464726573736000830152602082019050919050565b6000613a5f602c83614409565b91507f4552433732313a20617070726f76656420717565727920666f72206e6f6e657860008301527f697374656e7420746f6b656e00000000000000000000000000000000000000006020830152604082019050919050565b6000613ac5602c83614409565b91507f4552433732314d657461646174613a2055524920736574206f66206e6f6e657860008301527f697374656e7420746f6b656e00000000000000000000000000000000000000006020830152604082019050919050565b6000613b2b602983614409565b91507f4552433732313a207472616e73666572206f6620746f6b656e2074686174206960008301527f73206e6f74206f776e00000000000000000000000000000000000000000000006020830152604082019050919050565b6000613b91601283614409565b91507f4164647265737320696e636f72726563746f00000000000000000000000000006000830152602082019050919050565b6000613bd1602f83614409565b91507f4552433732314d657461646174613a2055524920717565727920666f72206e6f60008301527f6e6578697374656e7420746f6b656e00000000000000000000000000000000006020830152604082019050919050565b6000613c37602183614409565b91507f4552433732313a20617070726f76616c20746f2063757272656e74206f776e6560008301527f72000000000000000000000000000000000000000000000000000000000000006020830152604082019050919050565b6000613c9d603183614409565b91507f4552433732313a207472616e736665722063616c6c6572206973206e6f74206f60008301527f776e6572206e6f7220617070726f7665640000000000000000000000000000006020830152604082019050919050565b6000613d03601d83614409565b91507f416464726573733a2063616c6c20746f206e6f6e2d636f6e74726163740000006000830152602082019050919050565b6000610100830160008301518482036000860152613d5482826135bf565b9150506020830151613d696020860182613df4565b506040830151613d7c6040860182613df4565b506060830151613d8f60608601826133c2565b506080830151613da26080860182613537565b5060a083015184820360a0860152613dba82826135bf565b91505060c083015184820360c0860152613dd482826135bf565b91505060e0830151613de960e0860182613df4565b508091505092915050565b613dfd816144ab565b82525050565b613e0c816144ab565b82525050565b6000613e1e828461358e565b915081905092915050565b6000613e358284613631565b915081905092915050565b6000613e4c8285613631565b9150613e588284613631565b91508190509392505050565b6000602082019050613e7960008301846133d1565b92915050565b6000602082019050613e9460008301846133b3565b92915050565b6000608082019050613eaf60008301876133b3565b613ebc60208301866133d1565b613ec96040830185613e03565b8181036060830152613edb8184613555565b905095945050505050565b60006020820190508181036000830152613f0081846133e0565b905092915050565b60006020820190508181036000830152613f228184613455565b905092915050565b60006040820190508181036000830152613f4481856134ca565b9050613f536020830184613528565b9392505050565b6000602082019050613f6f6000830184613528565b92915050565b60006020820190508181036000830152613f8f81846135f8565b905092915050565b600060e0820190508181036000830152613fb1818a6135f8565b9050613fc06020830189613e03565b613fcd60408301886133d1565b613fda6060830187613546565b8181036080830152613fec81866135f8565b905081810360a083015261400081856135f8565b905061400f60c0830184613e03565b98975050505050505050565b6000602082019050818103600083015261403481613662565b9050919050565b60006020820190508181036000830152614054816136c8565b9050919050565b600060208201905081810360008301526140748161372e565b9050919050565b600060208201905081810360008301526140948161376e565b9050919050565b600060208201905081810360008301526140b4816137d4565b9050919050565b600060208201905081810360008301526140d481613814565b9050919050565b600060208201905081810360008301526140f48161387a565b9050919050565b60006020820190508181036000830152614114816138e0565b9050919050565b6000602082019050818103600083015261413481613946565b9050919050565b60006020820190508181036000830152614154816139ac565b9050919050565b6000602082019050818103600083015261417481613a12565b9050919050565b6000602082019050818103600083015261419481613a52565b9050919050565b600060208201905081810360008301526141b481613ab8565b9050919050565b600060208201905081810360008301526141d481613b1e565b9050919050565b600060208201905081810360008301526141f481613b84565b9050919050565b6000602082019050818103600083015261421481613bc4565b9050919050565b6000602082019050818103600083015261423481613c2a565b9050919050565b6000602082019050818103600083015261425481613c90565b9050919050565b6000602082019050818103600083015261427481613cf6565b9050919050565b60006020820190506142906000830184613e03565b92915050565b6000604051905081810181811067ffffffffffffffff821117156142b957600080fd5b8060405250919050565b600067ffffffffffffffff8211156142da57600080fd5b601f19601f8301169050602081019050919050565b600067ffffffffffffffff82111561430657600080fd5b601f19601f8301169050602081019050919050565b6000819050602082019050919050565b6000819050602082019050919050565b6000819050602082019050919050565b600081519050919050565b600081519050919050565b600081519050919050565b600081519050919050565b600081519050919050565b6000602082019050919050565b6000602082019050919050565b6000602082019050919050565b600082825260208201905092915050565b600082825260208201905092915050565b600082825260208201905092915050565b600082825260208201905092915050565b600081905092915050565b600082825260208201905092915050565b600082825260208201905092915050565b600081905092915050565b60006144308261448b565b9050919050565b60006144428261448b565b9050919050565b60008115159050919050565b6000819050919050565b60007fffffffff0000000000000000000000000000000000000000000000000000000082169050919050565b600073ffffffffffffffffffffffffffffffffffffffff82169050919050565b6000819050919050565b82818337600083830152505050565b60005b838110156144e25780820151818401526020810190506144c7565b838111156144f1576000848401525b50505050565b6000601f19601f8301169050919050565b61451181614425565b811461451c57600080fd5b50565b61452881614449565b811461453357600080fd5b50565b61453f8161445f565b811461454a57600080fd5b50565b614556816144ab565b811461456157600080fd5b5056fe4552433732313a207472616e7366657220746f206e6f6e20455243373231526563656976657220696d706c656d656e7465724552433732313a206f776e657220717565727920666f72206e6f6e6578697374656e7420746f6b656ea2646970667358221220abcc24d6868dd2b1a58689a28f0b5b00047bdc9d7c8ef924bf2ff86eea9fc3de64736f6c634300060c0033",
  "immutableReferences": {},
  "source": "// contracts/GameItem.sol\r\n// SPDX-License-Identifier: MIT\r\npragma solidity <0.9.0;\r\npragma experimental ABIEncoderV2;\r\n\r\nimport \"@openzeppelin/contracts/token/ERC721/ERC721.sol\";\r\nimport \"@openzeppelin/contracts/utils/Counters.sol\";\r\n\r\ncontract Valid is ERC721 {\r\n    using Counters for Counters.Counter;\r\n    Counters.Counter private _tokenIds;\r\n    address payable public ownerbalance;\r\n   \r\n    mapping(uint => Metadata) public metadata;\r\n    \r\n    struct Metadata {\r\n        string hash;\r\n        uint _date;\r\n        address _owner;\r\n        bytes32 _blockhash;\r\n        string _fileName;\r\n        string _explorerUrl;\r\n        uint _blocknumber;\r\n    }\r\n\r\n\r\n    function createItem(string calldata tokenURI, string calldata fileName, string calldata explorerUrl) external payable {\r\n        _tokenIds.increment();\r\n        _mint(msg.sender, _tokenIds.current());\r\n        _setTokenURI(_tokenIds.current(), tokenURI);\r\n        metadata[_tokenIds.current()] = Metadata(\r\n            tokenURI, //hash\r\n            now, // time\r\n            ownerbalance, // owner\r\n            blockhash(0), \r\n            fileName, \r\n            explorerUrl, \r\n            block.number\r\n            );\r\n    }\r\n\r\n    struct documentData {\r\n        string hash;\r\n        uint256 tokenid;\r\n        uint _date;\r\n        address _owner;\r\n        bytes32 _blockhash;\r\n        string _fileName;\r\n        string _explorerUrl;\r\n        uint _blocknumber;\r\n    }\r\n\r\n    modifier onlyOwner() {\r\n        require(msg.sender == ownerbalance);\r\n        _;\r\n    }\r\n\r\n    constructor() public ERC721(\"VALID\", \"VLD\") {\r\n        ownerbalance = msg.sender;\r\n    }\r\n\r\n    function smbalance() public view returns (uint256) {\r\n        return address(this).balance;\r\n    }\r\n\r\n    function withdraw() public onlyOwner() {\r\n        ownerbalance.transfer(address(this).balance);\r\n    }\r\n\r\n    function IsHashed(string memory ipfshash)\r\n        public\r\n        view\r\n        returns (bool hashed)\r\n    {\r\n        //obtener cuantos tokens tiene el sm\r\n        uint256 nTokens = totalSupply();\r\n        if (nTokens == 0) {\r\n            return false;\r\n        }\r\n        bool exist = false;\r\n        //buscar si existe ese hash\r\n        for (uint256 i = 0; i < nTokens; i++) {\r\n            if (\r\n                keccak256(abi.encodePacked((ipfshash))) ==\r\n                keccak256(abi.encodePacked(tokenURI(tokenByIndex(i))))\r\n            ) {\r\n                exist = true;\r\n                break;\r\n            }\r\n        }\r\n        return (exist);\r\n    }\r\n\r\n    function documentsOF(address owner)\r\n        public\r\n        view\r\n        returns (documentData[] memory documents)\r\n    {\r\n        //revisar que no sea el address para quemar tokens\r\n        require(owner != address(0), \"Address incorrecto\");\r\n        //numero de tokens\r\n        uint256 nTokens = balanceOf(owner);\r\n        if (nTokens == 0) {\r\n            return (new documentData[](nTokens));\r\n        }\r\n        //arreglo con los documentos 2\r\n        documentData[] memory dochashes = new documentData[](nTokens);\r\n        for (uint256 i = 0; i < nTokens; i++) {\r\n            dochashes[i].hash = tokenURI(tokenOfOwnerByIndex(owner, i));\r\n            dochashes[i].tokenid = tokenOfOwnerByIndex(owner, i);\r\n\r\n            dochashes[i]._date = metadata[dochashes[i].tokenid]._date;\r\n            dochashes[i]._owner = metadata[dochashes[i].tokenid]._owner;\r\n            dochashes[i]._fileName = metadata[dochashes[i].tokenid]._fileName;\r\n            dochashes[i]._explorerUrl = metadata[dochashes[i].tokenid]._explorerUrl;\r\n            dochashes[i]._blockhash = metadata[dochashes[i].tokenid]._blockhash;\r\n            dochashes[i]._blocknumber = metadata[dochashes[i].tokenid]._blocknumber;\r\n        }\r\n        return (dochashes);\r\n    }\r\n\r\n    \r\n\r\n    function getAllHashes() public view returns (string[] memory tokens) {\r\n        //obtener cuantos tokens tiene el sm\r\n        uint256 nTokens = totalSupply();\r\n        if (nTokens == 0) {\r\n            return new string[](nTokens);\r\n        }\r\n        //arreglo con los documentos\r\n        string[] memory dochashes = new string[](nTokens);\r\n        for (uint256 i = 0; i < nTokens; i++) {\r\n            dochashes[i] = tokenURI(tokenByIndex(i));\r\n        }\r\n        return (dochashes);\r\n    }\r\n\r\n    function tokensOf(address owner)\r\n        public\r\n        view\r\n        returns (uint256[] memory tokens, bool success)\r\n    {\r\n        //revisar que no sea el address para quemar tokens\r\n        require(owner != address(0), \"Address incorrecto\");\r\n        //numero de tokens\r\n        uint256 nTokens = balanceOf(owner);\r\n        if (nTokens == 0) {\r\n            return (new uint256[](nTokens), false);\r\n        }\r\n        //require(nTokens != 0, \"no cuentas con tokens\");\r\n        //arreglo de tokens\r\n        uint256[] memory tokensOfowner = new uint256[](nTokens);\r\n        //hacer el arreglo de tokens del owner\r\n        for (uint256 i = 0; i < nTokens; i++) {\r\n            tokensOfowner[i] = tokenOfOwnerByIndex(owner, i);\r\n        }\r\n        return (tokensOfowner, true);\r\n    }\r\n}\r\n",
  "sourcePath": "C:\\Users\\William\\Documents\\cloudMex\\validafy\\validafy\\SContracts\\contracts\\Valid.sol",
  "compiler": {
    "name": "solc",
    "version": "0.6.12+commit.27d51765.Emscripten.clang"
  },
  "schemaVersion": "3.4.3",
  "updatedAt": "2021-09-14T04:45:21.573Z",
  "networkType": "ethereum",
  "devdoc": {
    "kind": "dev",
    "methods": {
      "approve(address,uint256)": {
        "details": "See {IERC721-approve}."
      },
      "balanceOf(address)": {
        "details": "See {IERC721-balanceOf}."
      },
      "baseURI()": {
        "details": "Returns the base URI set via {_setBaseURI}. This will be automatically added as a prefix in {tokenURI} to each token's URI, or to the token ID if no specific URI is set for that token ID."
      },
      "getApproved(uint256)": {
        "details": "See {IERC721-getApproved}."
      },
      "isApprovedForAll(address,address)": {
        "details": "See {IERC721-isApprovedForAll}."
      },
      "name()": {
        "details": "See {IERC721Metadata-name}."
      },
      "ownerOf(uint256)": {
        "details": "See {IERC721-ownerOf}."
      },
      "safeTransferFrom(address,address,uint256)": {
        "details": "See {IERC721-safeTransferFrom}."
      },
      "safeTransferFrom(address,address,uint256,bytes)": {
        "details": "See {IERC721-safeTransferFrom}."
      },
      "setApprovalForAll(address,bool)": {
        "details": "See {IERC721-setApprovalForAll}."
      },
      "supportsInterface(bytes4)": {
        "details": "See {IERC165-supportsInterface}. Time complexity O(1), guaranteed to always use less than 30 000 gas."
      },
      "symbol()": {
        "details": "See {IERC721Metadata-symbol}."
      },
      "tokenByIndex(uint256)": {
        "details": "See {IERC721Enumerable-tokenByIndex}."
      },
      "tokenOfOwnerByIndex(address,uint256)": {
        "details": "See {IERC721Enumerable-tokenOfOwnerByIndex}."
      },
      "tokenURI(uint256)": {
        "details": "See {IERC721Metadata-tokenURI}."
      },
      "totalSupply()": {
        "details": "See {IERC721Enumerable-totalSupply}."
      },
      "transferFrom(address,address,uint256)": {
        "details": "See {IERC721-transferFrom}."
      }
    },
    "version": 1
  },
  "userdoc": {
    "kind": "user",
    "methods": {},
    "version": 1
  }
}