{
  "contractName": "Valid",
  "abi": [
    {
      "inputs": [],
      "stateMutability": "nonpayable",
      "type": "constructor"
    },
    {
      "anonymous": false,
      "inputs": [
        {
          "indexed": true,
          "internalType": "address",
          "name": "owner",
          "type": "address"
        },
        {
          "indexed": true,
          "internalType": "address",
          "name": "approved",
          "type": "address"
        },
        {
          "indexed": true,
          "internalType": "uint256",
          "name": "tokenId",
          "type": "uint256"
        }
      ],
      "name": "Approval",
      "type": "event"
    },
    {
      "anonymous": false,
      "inputs": [
        {
          "indexed": true,
          "internalType": "address",
          "name": "owner",
          "type": "address"
        },
        {
          "indexed": true,
          "internalType": "address",
          "name": "operator",
          "type": "address"
        },
        {
          "indexed": false,
          "internalType": "bool",
          "name": "approved",
          "type": "bool"
        }
      ],
      "name": "ApprovalForAll",
      "type": "event"
    },
    {
      "anonymous": false,
      "inputs": [
        {
          "indexed": true,
          "internalType": "address",
          "name": "from",
          "type": "address"
        },
        {
          "indexed": true,
          "internalType": "address",
          "name": "to",
          "type": "address"
        },
        {
          "indexed": true,
          "internalType": "uint256",
          "name": "tokenId",
          "type": "uint256"
        }
      ],
      "name": "Transfer",
      "type": "event"
    },
    {
      "inputs": [
        {
          "internalType": "address",
          "name": "to",
          "type": "address"
        },
        {
          "internalType": "uint256",
          "name": "tokenId",
          "type": "uint256"
        }
      ],
      "name": "approve",
      "outputs": [],
      "stateMutability": "nonpayable",
      "type": "function"
    },
    {
      "inputs": [
        {
          "internalType": "address",
          "name": "owner",
          "type": "address"
        }
      ],
      "name": "balanceOf",
      "outputs": [
        {
          "internalType": "uint256",
          "name": "",
          "type": "uint256"
        }
      ],
      "stateMutability": "view",
      "type": "function",
      "constant": true
    },
    {
      "inputs": [],
      "name": "baseURI",
      "outputs": [
        {
          "internalType": "string",
          "name": "",
          "type": "string"
        }
      ],
      "stateMutability": "view",
      "type": "function",
      "constant": true
    },
    {
      "inputs": [
        {
          "internalType": "uint256",
          "name": "tokenId",
          "type": "uint256"
        }
      ],
      "name": "getApproved",
      "outputs": [
        {
          "internalType": "address",
          "name": "",
          "type": "address"
        }
      ],
      "stateMutability": "view",
      "type": "function",
      "constant": true
    },
    {
      "inputs": [
        {
          "internalType": "address",
          "name": "owner",
          "type": "address"
        },
        {
          "internalType": "address",
          "name": "operator",
          "type": "address"
        }
      ],
      "name": "isApprovedForAll",
      "outputs": [
        {
          "internalType": "bool",
          "name": "",
          "type": "bool"
        }
      ],
      "stateMutability": "view",
      "type": "function",
      "constant": true
    },
    {
      "inputs": [
        {
          "internalType": "uint256",
          "name": "",
          "type": "uint256"
        }
      ],
      "name": "metadata",
      "outputs": [
        {
          "internalType": "string",
          "name": "hash",
          "type": "string"
        },
        {
          "internalType": "string",
          "name": "_data",
          "type": "string"
        }
      ],
      "stateMutability": "view",
      "type": "function",
      "constant": true
    },
    {
      "inputs": [],
      "name": "name",
      "outputs": [
        {
          "internalType": "string",
          "name": "",
          "type": "string"
        }
      ],
      "stateMutability": "view",
      "type": "function",
      "constant": true
    },
    {
      "inputs": [
        {
          "internalType": "uint256",
          "name": "tokenId",
          "type": "uint256"
        }
      ],
      "name": "ownerOf",
      "outputs": [
        {
          "internalType": "address",
          "name": "",
          "type": "address"
        }
      ],
      "stateMutability": "view",
      "type": "function",
      "constant": true
    },
    {
      "inputs": [],
      "name": "ownerbalance",
      "outputs": [
        {
          "internalType": "address payable",
          "name": "",
          "type": "address"
        }
      ],
      "stateMutability": "view",
      "type": "function",
      "constant": true
    },
    {
      "inputs": [
        {
          "internalType": "address",
          "name": "from",
          "type": "address"
        },
        {
          "internalType": "address",
          "name": "to",
          "type": "address"
        },
        {
          "internalType": "uint256",
          "name": "tokenId",
          "type": "uint256"
        }
      ],
      "name": "safeTransferFrom",
      "outputs": [],
      "stateMutability": "nonpayable",
      "type": "function"
    },
    {
      "inputs": [
        {
          "internalType": "address",
          "name": "from",
          "type": "address"
        },
        {
          "internalType": "address",
          "name": "to",
          "type": "address"
        },
        {
          "internalType": "uint256",
          "name": "tokenId",
          "type": "uint256"
        },
        {
          "internalType": "bytes",
          "name": "_data",
          "type": "bytes"
        }
      ],
      "name": "safeTransferFrom",
      "outputs": [],
      "stateMutability": "nonpayable",
      "type": "function"
    },
    {
      "inputs": [
        {
          "internalType": "address",
          "name": "operator",
          "type": "address"
        },
        {
          "internalType": "bool",
          "name": "approved",
          "type": "bool"
        }
      ],
      "name": "setApprovalForAll",
      "outputs": [],
      "stateMutability": "nonpayable",
      "type": "function"
    },
    {
      "inputs": [
        {
          "internalType": "bytes4",
          "name": "interfaceId",
          "type": "bytes4"
        }
      ],
      "name": "supportsInterface",
      "outputs": [
        {
          "internalType": "bool",
          "name": "",
          "type": "bool"
        }
      ],
      "stateMutability": "view",
      "type": "function",
      "constant": true
    },
    {
      "inputs": [],
      "name": "symbol",
      "outputs": [
        {
          "internalType": "string",
          "name": "",
          "type": "string"
        }
      ],
      "stateMutability": "view",
      "type": "function",
      "constant": true
    },
    {
      "inputs": [
        {
          "internalType": "uint256",
          "name": "index",
          "type": "uint256"
        }
      ],
      "name": "tokenByIndex",
      "outputs": [
        {
          "internalType": "uint256",
          "name": "",
          "type": "uint256"
        }
      ],
      "stateMutability": "view",
      "type": "function",
      "constant": true
    },
    {
      "inputs": [
        {
          "internalType": "address",
          "name": "owner",
          "type": "address"
        },
        {
          "internalType": "uint256",
          "name": "index",
          "type": "uint256"
        }
      ],
      "name": "tokenOfOwnerByIndex",
      "outputs": [
        {
          "internalType": "uint256",
          "name": "",
          "type": "uint256"
        }
      ],
      "stateMutability": "view",
      "type": "function",
      "constant": true
    },
    {
      "inputs": [
        {
          "internalType": "uint256",
          "name": "tokenId",
          "type": "uint256"
        }
      ],
      "name": "tokenURI",
      "outputs": [
        {
          "internalType": "string",
          "name": "",
          "type": "string"
        }
      ],
      "stateMutability": "view",
      "type": "function",
      "constant": true
    },
    {
      "inputs": [],
      "name": "totalSupply",
      "outputs": [
        {
          "internalType": "uint256",
          "name": "",
          "type": "uint256"
        }
      ],
      "stateMutability": "view",
      "type": "function",
      "constant": true
    },
    {
      "inputs": [
        {
          "internalType": "address",
          "name": "from",
          "type": "address"
        },
        {
          "internalType": "address",
          "name": "to",
          "type": "address"
        },
        {
          "internalType": "uint256",
          "name": "tokenId",
          "type": "uint256"
        }
      ],
      "name": "transferFrom",
      "outputs": [],
      "stateMutability": "nonpayable",
      "type": "function"
    },
    {
      "inputs": [
        {
          "internalType": "string",
          "name": "tokenURI",
          "type": "string"
        },
        {
          "internalType": "string",
          "name": "_data",
          "type": "string"
        }
      ],
      "name": "createItem",
      "outputs": [],
      "stateMutability": "payable",
      "type": "function",
      "payable": true
    },
    {
      "inputs": [],
      "name": "smbalance",
      "outputs": [
        {
          "internalType": "uint256",
          "name": "",
          "type": "uint256"
        }
      ],
      "stateMutability": "view",
      "type": "function",
      "constant": true
    },
    {
      "inputs": [],
      "name": "withdraw",
      "outputs": [],
      "stateMutability": "nonpayable",
      "type": "function"
    },
    {
      "inputs": [
        {
          "internalType": "string",
          "name": "ipfshash",
          "type": "string"
        }
      ],
      "name": "IsHashed",
      "outputs": [
        {
          "internalType": "bool",
          "name": "hashed",
          "type": "bool"
        }
      ],
      "stateMutability": "view",
      "type": "function",
      "constant": true
    },
    {
      "inputs": [
        {
          "internalType": "address",
          "name": "owner",
          "type": "address"
        }
      ],
      "name": "documentsOF",
      "outputs": [
        {
          "components": [
            {
              "internalType": "string",
              "name": "hash",
              "type": "string"
            },
            {
              "internalType": "uint256",
              "name": "tokenid",
              "type": "uint256"
            },
            {
              "internalType": "string",
              "name": "data",
              "type": "string"
            }
          ],
          "internalType": "struct Valid.documentData[]",
          "name": "documents",
          "type": "tuple[]"
        }
      ],
      "stateMutability": "view",
      "type": "function",
      "constant": true
    },
    {
      "inputs": [],
      "name": "getAllHashes",
      "outputs": [
        {
          "internalType": "string[]",
          "name": "tokens",
          "type": "string[]"
        }
      ],
      "stateMutability": "view",
      "type": "function",
      "constant": true
    },
    {
      "inputs": [
        {
          "internalType": "address",
          "name": "owner",
          "type": "address"
        }
      ],
      "name": "tokensOf",
      "outputs": [
        {
          "internalType": "uint256[]",
          "name": "tokens",
          "type": "uint256[]"
        },
        {
          "internalType": "bool",
          "name": "success",
          "type": "bool"
        }
      ],
      "stateMutability": "view",
      "type": "function",
      "constant": true
    }
  ],
  "bytecode": "0x60806040523480156200001157600080fd5b506040518060400160405280600581526020017f56414c49440000000000000000000000000000000000000000000000000000008152506040518060400160405280600381526020017f564c440000000000000000000000000000000000000000000000000000000000815250620000966301ffc9a760e01b6200015960201b60201c565b8160069080519060200190620000ae92919062000231565b508060079080519060200190620000c792919062000231565b50620000e06380ac58cd60e01b6200015960201b60201c565b620000f8635b5e139f60e01b6200015960201b60201c565b6200011063780e9d6360e01b6200015960201b60201c565b505033600b60006101000a81548173ffffffffffffffffffffffffffffffffffffffff021916908373ffffffffffffffffffffffffffffffffffffffff1602179055506200034c565b63ffffffff60e01b817bffffffffffffffffffffffffffffffffffffffffffffffffffffffff19161415620001c5576040517f08c379a0000000000000000000000000000000000000000000000000000000008152600401620001bc9062000319565b60405180910390fd5b6001600080837bffffffffffffffffffffffffffffffffffffffffffffffffffffffff19167bffffffffffffffffffffffffffffffffffffffffffffffffffffffff1916815260200190815260200160002060006101000a81548160ff02191690831515021790555050565b828054600181600116156101000203166002900490600052602060002090601f016020900481019282601f106200027457805160ff1916838001178555620002a5565b82800160010185558215620002a5579182015b82811115620002a457825182559160200191906001019062000287565b5b509050620002b49190620002b8565b5090565b5b80821115620002d3576000816000905550600101620002b9565b5090565b6000620002e6601c836200033b565b91507f4552433136353a20696e76616c696420696e74657266616365206964000000006000830152602082019050919050565b600060208201905081810360008301526200033481620002d7565b9050919050565b600082825260208201905092915050565b614038806200035c6000396000f3fe6080604052600436106101815760003560e01c80636c0360eb116100d1578063c87b56dd1161008a578063e3684e3911610064578063e3684e39146105c0578063e985e9c5146105fe578063fa221e661461063b578063fe99f7421461066657610181565b8063c87b56dd1461052a578063e02ddea414610567578063e03fd74c146105a457610181565b80636c0360eb1461041a57806370a082311461044557806395d89b4114610482578063a22cb465146104ad578063b88d4fde146104d6578063c38d39a5146104ff57610181565b806323b872dd1161013e57806342842e0e1161011857806342842e0e146103395780634f6ccce7146103625780635a3f26721461039f5780636352211e146103dd57610181565b806323b872dd146102bc5780632f745c59146102e55780633ccfd60b1461032257610181565b806301ffc9a71461018657806306fdde03146101c3578063081812fc146101ee578063095ea7b31461022b57806318160ddd146102545780631c4d1d311461027f575b600080fd5b34801561019257600080fd5b506101ad60048036038101906101a89190612d70565b610691565b6040516101ba91906139f4565b60405180910390f35b3480156101cf57600080fd5b506101d86106f8565b6040516101e59190613a0f565b60405180910390f35b3480156101fa57600080fd5b5061021560048036038101906102109190612e78565b61079a565b60405161022291906138fe565b60405180910390f35b34801561023757600080fd5b50610252600480360381019061024d9190612d34565b61081f565b005b34801561026057600080fd5b50610269610937565b6040516102769190613cc8565b60405180910390f35b34801561028b57600080fd5b506102a660048036038101906102a19190612e37565b610948565b6040516102b391906139f4565b60405180910390f35b3480156102c857600080fd5b506102e360048036038101906102de9190612c2e565b6109fa565b005b3480156102f157600080fd5b5061030c60048036038101906103079190612d34565b610a5a565b6040516103199190613cc8565b60405180910390f35b34801561032e57600080fd5b50610337610ab5565b005b34801561034557600080fd5b50610360600480360381019061035b9190612c2e565b610b7a565b005b34801561036e57600080fd5b5061038960048036038101906103849190612e78565b610b9a565b6040516103969190613cc8565b60405180910390f35b3480156103ab57600080fd5b506103c660048036038101906103c19190612bc9565b610bbd565b6040516103d49291906139c4565b60405180910390f35b3480156103e957600080fd5b5061040460048036038101906103ff9190612e78565b610d2e565b60405161041191906138fe565b60405180910390f35b34801561042657600080fd5b5061042f610d65565b60405161043c9190613a0f565b60405180910390f35b34801561045157600080fd5b5061046c60048036038101906104679190612bc9565b610e07565b6040516104799190613cc8565b60405180910390f35b34801561048e57600080fd5b50610497610ec6565b6040516104a49190613a0f565b60405180910390f35b3480156104b957600080fd5b506104d460048036038101906104cf9190612cf8565b610f68565b005b3480156104e257600080fd5b506104fd60048036038101906104f89190612c7d565b6110e9565b005b34801561050b57600080fd5b5061051461114b565b6040516105219190613919565b60405180910390f35b34801561053657600080fd5b50610551600480360381019061054c9190612e78565b611171565b60405161055e9190613a0f565b60405180910390f35b34801561057357600080fd5b5061058e60048036038101906105899190612bc9565b6112f4565b60405161059b91906139a2565b60405180910390f35b6105be60048036038101906105b99190612dc2565b611570565b005b3480156105cc57600080fd5b506105e760048036038101906105e29190612e78565b6116e0565b6040516105f5929190613a31565b60405180910390f35b34801561060a57600080fd5b5061062560048036038101906106209190612bf2565b611834565b60405161063291906139f4565b60405180910390f35b34801561064757600080fd5b506106506118c8565b60405161065d9190613cc8565b60405180910390f35b34801561067257600080fd5b5061067b6118d0565b6040516106889190613980565b60405180910390f35b6000806000837bffffffffffffffffffffffffffffffffffffffffffffffffffffffff19167bffffffffffffffffffffffffffffffffffffffffffffffffffffffff1916815260200190815260200160002060009054906101000a900460ff169050919050565b606060068054600181600116156101000203166002900480601f0160208091040260200160405190810160405280929190818152602001828054600181600116156101000203166002900480156107905780601f1061076557610100808354040283529160200191610790565b820191906000526020600020905b81548152906001019060200180831161077357829003601f168201915b5050505050905090565b60006107a5826119d5565b6107e4576040517f08c379a00000000000000000000000000000000000000000000000000000000081526004016107db90613bc8565b60405180910390fd5b6004600083815260200190815260200160002060009054906101000a900473ffffffffffffffffffffffffffffffffffffffff169050919050565b600061082a82610d2e565b90508073ffffffffffffffffffffffffffffffffffffffff168373ffffffffffffffffffffffffffffffffffffffff16141561089b576040517f08c379a000000000000000000000000000000000000000000000000000000000815260040161089290613c68565b60405180910390fd5b8073ffffffffffffffffffffffffffffffffffffffff166108ba6119f2565b73ffffffffffffffffffffffffffffffffffffffff1614806108e957506108e8816108e36119f2565b611834565b5b610928576040517f08c379a000000000000000000000000000000000000000000000000000000000815260040161091f90613b48565b60405180910390fd5b61093283836119fa565b505050565b60006109436002611ab3565b905090565b600080610953610937565b905060008114156109685760009150506109f5565b6000805b828110156109ee5761098561098082610b9a565b611171565b60405160200161099591906138c3565b60405160208183030381529060405280519060200120856040516020016109bc91906138c3565b6040516020818303038152906040528051906020012014156109e157600191506109ee565b808060010191505061096c565b5080925050505b919050565b610a0b610a056119f2565b82611ac8565b610a4a576040517f08c379a0000000000000000000000000000000000000000000000000000000008152600401610a4190613c88565b60405180910390fd5b610a55838383611ba6565b505050565b6000610aad82600160008673ffffffffffffffffffffffffffffffffffffffff1673ffffffffffffffffffffffffffffffffffffffff168152602001908152602001600020611dbd90919063ffffffff16565b905092915050565b600b60009054906101000a900473ffffffffffffffffffffffffffffffffffffffff1673ffffffffffffffffffffffffffffffffffffffff163373ffffffffffffffffffffffffffffffffffffffff1614610b0f57600080fd5b600b60009054906101000a900473ffffffffffffffffffffffffffffffffffffffff1673ffffffffffffffffffffffffffffffffffffffff166108fc479081150290604051600060405180830381858888f19350505050158015610b77573d6000803e3d6000fd5b50565b610b95838383604051806020016040528060008152506110e9565b505050565b600080610bb1836002611dd790919063ffffffff16565b50905080915050919050565b606060008073ffffffffffffffffffffffffffffffffffffffff168373ffffffffffffffffffffffffffffffffffffffff161415610c30576040517f08c379a0000000000000000000000000000000000000000000000000000000008152600401610c2790613c28565b60405180910390fd5b6000610c3b84610e07565b90506000811415610c99578067ffffffffffffffff81118015610c5d57600080fd5b50604051908082528060200260200182016040528015610c8c5781602001602082028036833780820191505090505b5060009250925050610d29565b60608167ffffffffffffffff81118015610cb257600080fd5b50604051908082528060200260200182016040528015610ce15781602001602082028036833780820191505090505b50905060005b82811015610d1e57610cf98682610a5a565b828281518110610d0557fe5b6020026020010181815250508080600101915050610ce7565b508060019350935050505b915091565b6000610d5e82604051806060016040528060298152602001613fda602991396002611e039092919063ffffffff16565b9050919050565b606060098054600181600116156101000203166002900480601f016020809104026020016040519081016040528092919081815260200182805460018160011615610100020316600290048015610dfd5780601f10610dd257610100808354040283529160200191610dfd565b820191906000526020600020905b815481529060010190602001808311610de057829003601f168201915b5050505050905090565b60008073ffffffffffffffffffffffffffffffffffffffff168273ffffffffffffffffffffffffffffffffffffffff161415610e78576040517f08c379a0000000000000000000000000000000000000000000000000000000008152600401610e6f90613b68565b60405180910390fd5b610ebf600160008473ffffffffffffffffffffffffffffffffffffffff1673ffffffffffffffffffffffffffffffffffffffff168152602001908152602001600020611e22565b9050919050565b606060078054600181600116156101000203166002900480601f016020809104026020016040519081016040528092919081815260200182805460018160011615610100020316600290048015610f5e5780601f10610f3357610100808354040283529160200191610f5e565b820191906000526020600020905b815481529060010190602001808311610f4157829003601f168201915b5050505050905090565b610f706119f2565b73ffffffffffffffffffffffffffffffffffffffff168273ffffffffffffffffffffffffffffffffffffffff161415610fde576040517f08c379a0000000000000000000000000000000000000000000000000000000008152600401610fd590613ae8565b60405180910390fd5b8060056000610feb6119f2565b73ffffffffffffffffffffffffffffffffffffffff1673ffffffffffffffffffffffffffffffffffffffff16815260200190815260200160002060008473ffffffffffffffffffffffffffffffffffffffff1673ffffffffffffffffffffffffffffffffffffffff16815260200190815260200160002060006101000a81548160ff0219169083151502179055508173ffffffffffffffffffffffffffffffffffffffff166110986119f2565b73ffffffffffffffffffffffffffffffffffffffff167f17307eab39ab6107e8899845ad3d59bd9653f200f220920489ca2b5937696c31836040516110dd91906139f4565b60405180910390a35050565b6110fa6110f46119f2565b83611ac8565b611139576040517f08c379a000000000000000000000000000000000000000000000000000000000815260040161113090613c88565b60405180910390fd5b61114584848484611e37565b50505050565b600b60009054906101000a900473ffffffffffffffffffffffffffffffffffffffff1681565b606061117c826119d5565b6111bb576040517f08c379a00000000000000000000000000000000000000000000000000000000081526004016111b290613c48565b60405180910390fd5b6060600860008481526020019081526020016000208054600181600116156101000203166002900480601f0160208091040260200160405190810160405280929190818152602001828054600181600116156101000203166002900480156112645780601f1061123957610100808354040283529160200191611264565b820191906000526020600020905b81548152906001019060200180831161124757829003601f168201915b505050505090506060611275610d65565b905060008151141561128b5781925050506112ef565b6000825111156112c05780826040516020016112a89291906138da565b604051602081830303815290604052925050506112ef565b806112ca85611e93565b6040516020016112db9291906138da565b604051602081830303815290604052925050505b919050565b6060600073ffffffffffffffffffffffffffffffffffffffff168273ffffffffffffffffffffffffffffffffffffffff161415611366576040517f08c379a000000000000000000000000000000000000000000000000000000000815260040161135d90613c28565b60405180910390fd5b600061137183610e07565b905060008114156113d6578067ffffffffffffffff8111801561139357600080fd5b506040519080825280602002602001820160405280156113cd57816020015b6113ba6129b0565b8152602001906001900390816113b25790505b5091505061156b565b60608167ffffffffffffffff811180156113ef57600080fd5b5060405190808252806020026020018201604052801561142957816020015b6114166129b0565b81526020019060019003908161140e5790505b50905060005b82811015611564576114496114448683610a5a565b611171565b82828151811061145557fe5b60200260200101516000018190525061146e8582610a5a565b82828151811061147a57fe5b60200260200101516020018181525050600c60006001830181526020019081526020016000206001018054600181600116156101000203166002900480601f0160208091040260200160405190810160405280929190818152602001828054600181600116156101000203166002900480156115375780601f1061150c57610100808354040283529160200191611537565b820191906000526020600020905b81548152906001019060200180831161151a57829003601f168201915b505050505082828151811061154857fe5b602002602001015160400181905250808060010191505061142f565b5080925050505b919050565b61157a600a611fda565b61158d33611588600a611ff0565b611ffe565b6115e461159a600a611ff0565b85858080601f016020809104026020016040519081016040528093929190818152602001838380828437600081840152601f19601f8201169050808301925050505050505061218c565b604051806040016040528085858080601f016020809104026020016040519081016040528093929190818152602001838380828437600081840152601f19601f82011690508083019250505050505050815260200183838080601f016020809104026020016040519081016040528093929190818152602001838380828437600081840152601f19601f82011690508083019250505050505050815250600c600061168f600a611ff0565b815260200190815260200160002060008201518160000190805190602001906116b99291906129d1565b5060208201518160010190805190602001906116d69291906129d1565b5090505050505050565b600c602052806000526040600020600091509050806000018054600181600116156101000203166002900480601f01602080910402602001604051908101604052809291908181526020018280546001816001161561010002031660029004801561178c5780601f106117615761010080835404028352916020019161178c565b820191906000526020600020905b81548152906001019060200180831161176f57829003601f168201915b505050505090806001018054600181600116156101000203166002900480601f01602080910402602001604051908101604052809291908181526020018280546001816001161561010002031660029004801561182a5780601f106117ff5761010080835404028352916020019161182a565b820191906000526020600020905b81548152906001019060200180831161180d57829003601f168201915b5050505050905082565b6000600560008473ffffffffffffffffffffffffffffffffffffffff1673ffffffffffffffffffffffffffffffffffffffff16815260200190815260200160002060008373ffffffffffffffffffffffffffffffffffffffff1673ffffffffffffffffffffffffffffffffffffffff16815260200190815260200160002060009054906101000a900460ff16905092915050565b600047905090565b606060006118dc610937565b9050600081141561193b578067ffffffffffffffff811180156118fe57600080fd5b5060405190808252806020026020018201604052801561193257816020015b606081526020019060019003908161191d5790505b509150506119d2565b60608167ffffffffffffffff8111801561195457600080fd5b5060405190808252806020026020018201604052801561198857816020015b60608152602001906001900390816119735790505b50905060005b828110156119cb576119a76119a282610b9a565b611171565b8282815181106119b357fe5b6020026020010181905250808060010191505061198e565b5080925050505b90565b60006119eb82600261220090919063ffffffff16565b9050919050565b600033905090565b816004600083815260200190815260200160002060006101000a81548173ffffffffffffffffffffffffffffffffffffffff021916908373ffffffffffffffffffffffffffffffffffffffff160217905550808273ffffffffffffffffffffffffffffffffffffffff16611a6d83610d2e565b73ffffffffffffffffffffffffffffffffffffffff167f8c5be1e5ebec7d5bd14f71427d1e84f3dd0314c0f7b2291e5b200ac8c7c3b92560405160405180910390a45050565b6000611ac18260000161221a565b9050919050565b6000611ad3826119d5565b611b12576040517f08c379a0000000000000000000000000000000000000000000000000000000008152600401611b0990613b28565b60405180910390fd5b6000611b1d83610d2e565b90508073ffffffffffffffffffffffffffffffffffffffff168473ffffffffffffffffffffffffffffffffffffffff161480611b8c57508373ffffffffffffffffffffffffffffffffffffffff16611b748461079a565b73ffffffffffffffffffffffffffffffffffffffff16145b80611b9d5750611b9c8185611834565b5b91505092915050565b8273ffffffffffffffffffffffffffffffffffffffff16611bc682610d2e565b73ffffffffffffffffffffffffffffffffffffffff1614611c1c576040517f08c379a0000000000000000000000000000000000000000000000000000000008152600401611c1390613c08565b60405180910390fd5b600073ffffffffffffffffffffffffffffffffffffffff168273ffffffffffffffffffffffffffffffffffffffff161415611c8c576040517f08c379a0000000000000000000000000000000000000000000000000000000008152600401611c8390613ac8565b60405180910390fd5b611c9783838361222b565b611ca26000826119fa565b611cf381600160008673ffffffffffffffffffffffffffffffffffffffff1673ffffffffffffffffffffffffffffffffffffffff16815260200190815260200160002061223090919063ffffffff16565b50611d4581600160008573ffffffffffffffffffffffffffffffffffffffff1673ffffffffffffffffffffffffffffffffffffffff16815260200190815260200160002061224a90919063ffffffff16565b50611d5c818360026122649092919063ffffffff16565b50808273ffffffffffffffffffffffffffffffffffffffff168473ffffffffffffffffffffffffffffffffffffffff167fddf252ad1be2c89b69c2b068fc378daa952ba7f163c4a11628f55a4df523b3ef60405160405180910390a4505050565b6000611dcc8360000183612299565b60001c905092915050565b600080600080611dea8660000186612306565b915091508160001c8160001c9350935050509250929050565b6000611e16846000018460001b84612389565b60001c90509392505050565b6000611e308260000161241a565b9050919050565b611e42848484611ba6565b611e4e8484848461242b565b611e8d576040517f08c379a0000000000000000000000000000000000000000000000000000000008152600401611e8490613a88565b60405180910390fd5b50505050565b60606000821415611edb576040518060400160405280600181526020017f30000000000000000000000000000000000000000000000000000000000000008152509050611fd5565b600082905060005b60008214611f05578080600101915050600a8281611efd57fe5b049150611ee3565b60608167ffffffffffffffff81118015611f1e57600080fd5b506040519080825280601f01601f191660200182016040528015611f515781602001600182028036833780820191505090505b50905060006001830390508593505b60008414611fcd57600a8481611f7257fe5b0660300160f81b82828060019003935081518110611f8c57fe5b60200101907effffffffffffffffffffffffffffffffffffffffffffffffffffffffffffff1916908160001a905350600a8481611fc557fe5b049350611f60565b819450505050505b919050565b6001816000016000828254019250508190555050565b600081600001549050919050565b600073ffffffffffffffffffffffffffffffffffffffff168273ffffffffffffffffffffffffffffffffffffffff16141561206e576040517f08c379a000000000000000000000000000000000000000000000000000000000815260040161206590613ba8565b60405180910390fd5b612077816119d5565b156120b7576040517f08c379a00000000000000000000000000000000000000000000000000000000081526004016120ae90613aa8565b60405180910390fd5b6120c36000838361222b565b61211481600160008573ffffffffffffffffffffffffffffffffffffffff1673ffffffffffffffffffffffffffffffffffffffff16815260200190815260200160002061224a90919063ffffffff16565b5061212b818360026122649092919063ffffffff16565b50808273ffffffffffffffffffffffffffffffffffffffff16600073ffffffffffffffffffffffffffffffffffffffff167fddf252ad1be2c89b69c2b068fc378daa952ba7f163c4a11628f55a4df523b3ef60405160405180910390a45050565b612195826119d5565b6121d4576040517f08c379a00000000000000000000000000000000000000000000000000000000081526004016121cb90613be8565b60405180910390fd5b806008600084815260200190815260200160002090805190602001906121fb9291906129d1565b505050565b6000612212836000018360001b61258f565b905092915050565b600081600001805490509050919050565b505050565b6000612242836000018360001b6125b2565b905092915050565b600061225c836000018360001b61269a565b905092915050565b6000612290846000018460001b8473ffffffffffffffffffffffffffffffffffffffff1660001b61270a565b90509392505050565b6000818360000180549050116122e4576040517f08c379a00000000000000000000000000000000000000000000000000000000081526004016122db90613a68565b60405180910390fd5b8260000182815481106122f357fe5b9060005260206000200154905092915050565b60008082846000018054905011612352576040517f08c379a000000000000000000000000000000000000000000000000000000000815260040161234990613b88565b60405180910390fd5b600084600001848154811061236357fe5b906000526020600020906002020190508060000154816001015492509250509250929050565b600080846001016000858152602001908152602001600020549050600081141583906123eb576040517f08c379a00000000000000000000000000000000000000000000000000000000081526004016123e29190613a0f565b60405180910390fd5b508460000160018203815481106123fe57fe5b9060005260206000209060020201600101549150509392505050565b600081600001805490509050919050565b600061244c8473ffffffffffffffffffffffffffffffffffffffff166127e6565b6124595760019050612587565b606061252063150b7a0260e01b61246e6119f2565b8887876040516024016124849493929190613934565b604051602081830303815290604052907bffffffffffffffffffffffffffffffffffffffffffffffffffffffff19166020820180517bffffffffffffffffffffffffffffffffffffffffffffffffffffffff8381831617835250505050604051806060016040528060328152602001613fa8603291398773ffffffffffffffffffffffffffffffffffffffff166127f99092919063ffffffff16565b90506000818060200190518101906125389190612d99565b905063150b7a0260e01b7bffffffffffffffffffffffffffffffffffffffffffffffffffffffff1916817bffffffffffffffffffffffffffffffffffffffffffffffffffffffff191614925050505b949350505050565b600080836001016000848152602001908152602001600020541415905092915050565b6000808360010160008481526020019081526020016000205490506000811461268e57600060018203905060006001866000018054905003905060008660000182815481106125fd57fe5b906000526020600020015490508087600001848154811061261a57fe5b906000526020600020018190555060018301876001016000838152602001908152602001600020819055508660000180548061265257fe5b60019003818190600052602060002001600090559055866001016000878152602001908152602001600020600090556001945050505050612694565b60009150505b92915050565b60006126a68383612811565b6126ff578260000182908060018154018082558091505060019003906000526020600020016000909190919091505582600001805490508360010160008481526020019081526020016000208190555060019050612704565b600090505b92915050565b60008084600101600085815260200190815260200160002054905060008114156127b1578460000160405180604001604052808681526020018581525090806001815401808255809150506001900390600052602060002090600202016000909190919091506000820151816000015560208201518160010155505084600001805490508560010160008681526020019081526020016000208190555060019150506127df565b828560000160018303815481106127c457fe5b90600052602060002090600202016001018190555060009150505b9392505050565b600080823b905060008111915050919050565b60606128088484600085612834565b90509392505050565b600080836001016000848152602001908152602001600020541415905092915050565b606082471015612879576040517f08c379a000000000000000000000000000000000000000000000000000000000815260040161287090613b08565b60405180910390fd5b612882856127e6565b6128c1576040517f08c379a00000000000000000000000000000000000000000000000000000000081526004016128b890613ca8565b60405180910390fd5b600060608673ffffffffffffffffffffffffffffffffffffffff1685876040516128eb91906138ac565b60006040518083038185875af1925050503d8060008114612928576040519150601f19603f3d011682016040523d82523d6000602084013e61292d565b606091505b509150915061293d828286612949565b92505050949350505050565b60608315612959578290506129a9565b60008351111561296c5782518084602001fd5b816040517f08c379a00000000000000000000000000000000000000000000000000000000081526004016129a09190613a0f565b60405180910390fd5b9392505050565b60405180606001604052806060815260200160008152602001606081525090565b828054600181600116156101000203166002900490600052602060002090601f016020900481019282601f10612a1257805160ff1916838001178555612a40565b82800160010185558215612a40579182015b82811115612a3f578251825591602001919060010190612a24565b5b509050612a4d9190612a51565b5090565b5b80821115612a6a576000816000905550600101612a52565b5090565b600081359050612a7d81613f4b565b92915050565b600081359050612a9281613f62565b92915050565b600081359050612aa781613f79565b92915050565b600081519050612abc81613f79565b92915050565b600082601f830112612ad357600080fd5b8135612ae6612ae182613d10565b613ce3565b91508082526020830160208301858383011115612b0257600080fd5b612b0d838284613ef8565b50505092915050565b60008083601f840112612b2857600080fd5b8235905067ffffffffffffffff811115612b4157600080fd5b602083019150836001820283011115612b5957600080fd5b9250929050565b600082601f830112612b7157600080fd5b8135612b84612b7f82613d3c565b613ce3565b91508082526020830160208301858383011115612ba057600080fd5b612bab838284613ef8565b50505092915050565b600081359050612bc381613f90565b92915050565b600060208284031215612bdb57600080fd5b6000612be984828501612a6e565b91505092915050565b60008060408385031215612c0557600080fd5b6000612c1385828601612a6e565b9250506020612c2485828601612a6e565b9150509250929050565b600080600060608486031215612c4357600080fd5b6000612c5186828701612a6e565b9350506020612c6286828701612a6e565b9250506040612c7386828701612bb4565b9150509250925092565b60008060008060808587031215612c9357600080fd5b6000612ca187828801612a6e565b9450506020612cb287828801612a6e565b9350506040612cc387828801612bb4565b925050606085013567ffffffffffffffff811115612ce057600080fd5b612cec87828801612ac2565b91505092959194509250565b60008060408385031215612d0b57600080fd5b6000612d1985828601612a6e565b9250506020612d2a85828601612a83565b9150509250929050565b60008060408385031215612d4757600080fd5b6000612d5585828601612a6e565b9250506020612d6685828601612bb4565b9150509250929050565b600060208284031215612d8257600080fd5b6000612d9084828501612a98565b91505092915050565b600060208284031215612dab57600080fd5b6000612db984828501612aad565b91505092915050565b60008060008060408587031215612dd857600080fd5b600085013567ffffffffffffffff811115612df257600080fd5b612dfe87828801612b16565b9450945050602085013567ffffffffffffffff811115612e1d57600080fd5b612e2987828801612b16565b925092505092959194509250565b600060208284031215612e4957600080fd5b600082013567ffffffffffffffff811115612e6357600080fd5b612e6f84828501612b60565b91505092915050565b600060208284031215612e8a57600080fd5b6000612e9884828501612bb4565b91505092915050565b6000612ead83836130c0565b905092915050565b6000612ec18383613837565b905092915050565b6000612ed5838361388e565b60208301905092915050565b612eea81613e84565b82525050565b612ef981613e72565b82525050565b6000612f0a82613d98565b612f148185613df6565b935083602082028501612f2685613d68565b8060005b85811015612f625784840389528151612f438582612ea1565b9450612f4e83613dcf565b925060208a01995050600181019050612f2a565b50829750879550505050505092915050565b6000612f7f82613da3565b612f898185613e07565b935083602082028501612f9b85613d78565b8060005b85811015612fd75784840389528151612fb88582612eb5565b9450612fc383613ddc565b925060208a01995050600181019050612f9f565b50829750879550505050505092915050565b6000612ff482613dae565b612ffe8185613e18565b935061300983613d88565b8060005b8381101561303a5781516130218882612ec9565b975061302c83613de9565b92505060018101905061300d565b5085935050505092915050565b61305081613e96565b82525050565b600061306182613db9565b61306b8185613e29565b935061307b818560208601613f07565b61308481613f3a565b840191505092915050565b600061309a82613db9565b6130a48185613e3a565b93506130b4818560208601613f07565b80840191505092915050565b60006130cb82613dc4565b6130d58185613e45565b93506130e5818560208601613f07565b6130ee81613f3a565b840191505092915050565b600061310482613dc4565b61310e8185613e56565b935061311e818560208601613f07565b61312781613f3a565b840191505092915050565b600061313d82613dc4565b6131478185613e67565b9350613157818560208601613f07565b80840191505092915050565b6000613170602283613e56565b91507f456e756d657261626c655365743a20696e646578206f7574206f6620626f756e60008301527f64730000000000000000000000000000000000000000000000000000000000006020830152604082019050919050565b60006131d6603283613e56565b91507f4552433732313a207472616e7366657220746f206e6f6e20455243373231526560008301527f63656976657220696d706c656d656e74657200000000000000000000000000006020830152604082019050919050565b600061323c601c83613e56565b91507f4552433732313a20746f6b656e20616c7265616479206d696e746564000000006000830152602082019050919050565b600061327c602483613e56565b91507f4552433732313a207472616e7366657220746f20746865207a65726f2061646460008301527f72657373000000000000000000000000000000000000000000000000000000006020830152604082019050919050565b60006132e2601983613e56565b91507f4552433732313a20617070726f766520746f2063616c6c6572000000000000006000830152602082019050919050565b6000613322602683613e56565b91507f416464726573733a20696e73756666696369656e742062616c616e636520666f60008301527f722063616c6c00000000000000000000000000000000000000000000000000006020830152604082019050919050565b6000613388602c83613e56565b91507f4552433732313a206f70657261746f7220717565727920666f72206e6f6e657860008301527f697374656e7420746f6b656e00000000000000000000000000000000000000006020830152604082019050919050565b60006133ee603883613e56565b91507f4552433732313a20617070726f76652063616c6c6572206973206e6f74206f7760008301527f6e6572206e6f7220617070726f76656420666f7220616c6c00000000000000006020830152604082019050919050565b6000613454602a83613e56565b91507f4552433732313a2062616c616e636520717565727920666f7220746865207a6560008301527f726f2061646472657373000000000000000000000000000000000000000000006020830152604082019050919050565b60006134ba602283613e56565b91507f456e756d657261626c654d61703a20696e646578206f7574206f6620626f756e60008301527f64730000000000000000000000000000000000000000000000000000000000006020830152604082019050919050565b6000613520602083613e56565b91507f4552433732313a206d696e7420746f20746865207a65726f20616464726573736000830152602082019050919050565b6000613560602c83613e56565b91507f4552433732313a20617070726f76656420717565727920666f72206e6f6e657860008301527f697374656e7420746f6b656e00000000000000000000000000000000000000006020830152604082019050919050565b60006135c6602c83613e56565b91507f4552433732314d657461646174613a2055524920736574206f66206e6f6e657860008301527f697374656e7420746f6b656e00000000000000000000000000000000000000006020830152604082019050919050565b600061362c602983613e56565b91507f4552433732313a207472616e73666572206f6620746f6b656e2074686174206960008301527f73206e6f74206f776e00000000000000000000000000000000000000000000006020830152604082019050919050565b6000613692601283613e56565b91507f4164647265737320696e636f72726563746f00000000000000000000000000006000830152602082019050919050565b60006136d2602f83613e56565b91507f4552433732314d657461646174613a2055524920717565727920666f72206e6f60008301527f6e6578697374656e7420746f6b656e00000000000000000000000000000000006020830152604082019050919050565b6000613738602183613e56565b91507f4552433732313a20617070726f76616c20746f2063757272656e74206f776e6560008301527f72000000000000000000000000000000000000000000000000000000000000006020830152604082019050919050565b600061379e603183613e56565b91507f4552433732313a207472616e736665722063616c6c6572206973206e6f74206f60008301527f776e6572206e6f7220617070726f7665640000000000000000000000000000006020830152604082019050919050565b6000613804601d83613e56565b91507f416464726573733a2063616c6c20746f206e6f6e2d636f6e74726163740000006000830152602082019050919050565b6000606083016000830151848203600086015261385482826130c0565b9150506020830151613869602086018261388e565b506040830151848203604086015261388182826130c0565b9150508091505092915050565b61389781613eee565b82525050565b6138a681613eee565b82525050565b60006138b8828461308f565b915081905092915050565b60006138cf8284613132565b915081905092915050565b60006138e68285613132565b91506138f28284613132565b91508190509392505050565b60006020820190506139136000830184612ef0565b92915050565b600060208201905061392e6000830184612ee1565b92915050565b60006080820190506139496000830187612ee1565b6139566020830186612ef0565b613963604083018561389d565b81810360608301526139758184613056565b905095945050505050565b6000602082019050818103600083015261399a8184612eff565b905092915050565b600060208201905081810360008301526139bc8184612f74565b905092915050565b600060408201905081810360008301526139de8185612fe9565b90506139ed6020830184613047565b9392505050565b6000602082019050613a096000830184613047565b92915050565b60006020820190508181036000830152613a2981846130f9565b905092915050565b60006040820190508181036000830152613a4b81856130f9565b90508181036020830152613a5f81846130f9565b90509392505050565b60006020820190508181036000830152613a8181613163565b9050919050565b60006020820190508181036000830152613aa1816131c9565b9050919050565b60006020820190508181036000830152613ac18161322f565b9050919050565b60006020820190508181036000830152613ae18161326f565b9050919050565b60006020820190508181036000830152613b01816132d5565b9050919050565b60006020820190508181036000830152613b2181613315565b9050919050565b60006020820190508181036000830152613b418161337b565b9050919050565b60006020820190508181036000830152613b61816133e1565b9050919050565b60006020820190508181036000830152613b8181613447565b9050919050565b60006020820190508181036000830152613ba1816134ad565b9050919050565b60006020820190508181036000830152613bc181613513565b9050919050565b60006020820190508181036000830152613be181613553565b9050919050565b60006020820190508181036000830152613c01816135b9565b9050919050565b60006020820190508181036000830152613c218161361f565b9050919050565b60006020820190508181036000830152613c4181613685565b9050919050565b60006020820190508181036000830152613c61816136c5565b9050919050565b60006020820190508181036000830152613c818161372b565b9050919050565b60006020820190508181036000830152613ca181613791565b9050919050565b60006020820190508181036000830152613cc1816137f7565b9050919050565b6000602082019050613cdd600083018461389d565b92915050565b6000604051905081810181811067ffffffffffffffff82111715613d0657600080fd5b8060405250919050565b600067ffffffffffffffff821115613d2757600080fd5b601f19601f8301169050602081019050919050565b600067ffffffffffffffff821115613d5357600080fd5b601f19601f8301169050602081019050919050565b6000819050602082019050919050565b6000819050602082019050919050565b6000819050602082019050919050565b600081519050919050565b600081519050919050565b600081519050919050565b600081519050919050565b600081519050919050565b6000602082019050919050565b6000602082019050919050565b6000602082019050919050565b600082825260208201905092915050565b600082825260208201905092915050565b600082825260208201905092915050565b600082825260208201905092915050565b600081905092915050565b600082825260208201905092915050565b600082825260208201905092915050565b600081905092915050565b6000613e7d82613ece565b9050919050565b6000613e8f82613ece565b9050919050565b60008115159050919050565b60007fffffffff0000000000000000000000000000000000000000000000000000000082169050919050565b600073ffffffffffffffffffffffffffffffffffffffff82169050919050565b6000819050919050565b82818337600083830152505050565b60005b83811015613f25578082015181840152602081019050613f0a565b83811115613f34576000848401525b50505050565b6000601f19601f8301169050919050565b613f5481613e72565b8114613f5f57600080fd5b50565b613f6b81613e96565b8114613f7657600080fd5b50565b613f8281613ea2565b8114613f8d57600080fd5b50565b613f9981613eee565b8114613fa457600080fd5b5056fe4552433732313a207472616e7366657220746f206e6f6e20455243373231526563656976657220696d706c656d656e7465724552433732313a206f776e657220717565727920666f72206e6f6e6578697374656e7420746f6b656ea26469706673582212208995fd765dfc545fe99774ae211ea5ebd2c656ebe60af3b8baa5bd327bdec10864736f6c634300060c0033",
  "immutableReferences": {},
  "source": "// contracts/GameItem.sol\r\n// SPDX-License-Identifier: MIT\r\npragma solidity <0.9.0;\r\npragma experimental ABIEncoderV2;\r\n\r\nimport \"@openzeppelin/contracts/token/ERC721/ERC721.sol\";\r\nimport \"@openzeppelin/contracts/utils/Counters.sol\";\r\n\r\ncontract Valid is ERC721 {\r\n    using Counters for Counters.Counter;\r\n    Counters.Counter private _tokenIds;\r\n    address payable public ownerbalance;\r\n   \r\n    mapping(uint => Metadata) public metadata;\r\n    \r\n    struct Metadata {\r\n        string hash;\r\n        string _data;\r\n    }\r\n\r\n\r\n    function createItem(string calldata tokenURI, string calldata _data) external payable {\r\n        _tokenIds.increment();\r\n        _mint(msg.sender, _tokenIds.current());\r\n        _setTokenURI(_tokenIds.current(), tokenURI);\r\n        metadata[_tokenIds.current()] = Metadata(tokenURI, _data);\r\n    }\r\n\r\n    struct documentData {\r\n        string hash;\r\n        uint256 tokenid;\r\n        string data;\r\n    }\r\n\r\n    modifier onlyOwner() {\r\n        require(msg.sender == ownerbalance);\r\n        _;\r\n    }\r\n\r\n    constructor() public ERC721(\"VALID\", \"VLD\") {\r\n        ownerbalance = msg.sender;\r\n    }\r\n\r\n    function smbalance() public view returns (uint256) {\r\n        return address(this).balance;\r\n    }\r\n\r\n    function withdraw() public onlyOwner() {\r\n        ownerbalance.transfer(address(this).balance);\r\n    }\r\n\r\n    function IsHashed(string memory ipfshash)\r\n        public\r\n        view\r\n        returns (bool hashed)\r\n    {\r\n        //obtener cuantos tokens tiene el sm\r\n        uint256 nTokens = totalSupply();\r\n        if (nTokens == 0) {\r\n            return false;\r\n        }\r\n        bool exist = false;\r\n        //buscar si existe ese hash\r\n        for (uint256 i = 0; i < nTokens; i++) {\r\n            if (\r\n                keccak256(abi.encodePacked((ipfshash))) ==\r\n                keccak256(abi.encodePacked(tokenURI(tokenByIndex(i))))\r\n            ) {\r\n                exist = true;\r\n                break;\r\n            }\r\n        }\r\n        return (exist);\r\n    }\r\n\r\n    function documentsOF(address owner)\r\n        public\r\n        view\r\n        returns (documentData[] memory documents)\r\n    {\r\n        //revisar que no sea el address para quemar tokens\r\n        require(owner != address(0), \"Address incorrecto\");\r\n        //numero de tokens\r\n        uint256 nTokens = balanceOf(owner);\r\n        if (nTokens == 0) {\r\n            return (new documentData[](nTokens));\r\n        }\r\n        //arreglo con los documentos 2\r\n        documentData[] memory dochashes = new documentData[](nTokens);\r\n        for (uint256 i = 0; i < nTokens; i++) {\r\n            dochashes[i].hash = tokenURI(tokenOfOwnerByIndex(owner, i));\r\n            dochashes[i].tokenid = tokenOfOwnerByIndex(owner, i);\r\n            dochashes[i].data = metadata[i+1]._data;\r\n        }\r\n        return (dochashes);\r\n    }\r\n\r\n    \r\n\r\n    function getAllHashes() public view returns (string[] memory tokens) {\r\n        //obtener cuantos tokens tiene el sm\r\n        uint256 nTokens = totalSupply();\r\n        if (nTokens == 0) {\r\n            return new string[](nTokens);\r\n        }\r\n        //arreglo con los documentos\r\n        string[] memory dochashes = new string[](nTokens);\r\n        for (uint256 i = 0; i < nTokens; i++) {\r\n            dochashes[i] = tokenURI(tokenByIndex(i));\r\n        }\r\n        return (dochashes);\r\n    }\r\n\r\n    function tokensOf(address owner)\r\n        public\r\n        view\r\n        returns (uint256[] memory tokens, bool success)\r\n    {\r\n        //revisar que no sea el address para quemar tokens\r\n        require(owner != address(0), \"Address incorrecto\");\r\n        //numero de tokens\r\n        uint256 nTokens = balanceOf(owner);\r\n        if (nTokens == 0) {\r\n            return (new uint256[](nTokens), false);\r\n        }\r\n        //require(nTokens != 0, \"no cuentas con tokens\");\r\n        //arreglo de tokens\r\n        uint256[] memory tokensOfowner = new uint256[](nTokens);\r\n        //hacer el arreglo de tokens del owner\r\n        for (uint256 i = 0; i < nTokens; i++) {\r\n            tokensOfowner[i] = tokenOfOwnerByIndex(owner, i);\r\n        }\r\n        return (tokensOfowner, true);\r\n    }\r\n}\r\n",
  "sourcePath": "C:\\Users\\William\\Documents\\cloudMex\\validafy\\validafy\\SContracts\\contracts\\Valid.sol",
  "compiler": {
    "name": "solc",
    "version": "0.6.12+commit.27d51765.Emscripten.clang"
  },
  "schemaVersion": "3.4.3",
  "updatedAt": "2021-09-10T23:23:00.806Z",
  "networkType": "ethereum",
  "devdoc": {
    "kind": "dev",
    "methods": {
      "approve(address,uint256)": {
        "details": "See {IERC721-approve}."
      },
      "balanceOf(address)": {
        "details": "See {IERC721-balanceOf}."
      },
      "baseURI()": {
        "details": "Returns the base URI set via {_setBaseURI}. This will be automatically added as a prefix in {tokenURI} to each token's URI, or to the token ID if no specific URI is set for that token ID."
      },
      "getApproved(uint256)": {
        "details": "See {IERC721-getApproved}."
      },
      "isApprovedForAll(address,address)": {
        "details": "See {IERC721-isApprovedForAll}."
      },
      "name()": {
        "details": "See {IERC721Metadata-name}."
      },
      "ownerOf(uint256)": {
        "details": "See {IERC721-ownerOf}."
      },
      "safeTransferFrom(address,address,uint256)": {
        "details": "See {IERC721-safeTransferFrom}."
      },
      "safeTransferFrom(address,address,uint256,bytes)": {
        "details": "See {IERC721-safeTransferFrom}."
      },
      "setApprovalForAll(address,bool)": {
        "details": "See {IERC721-setApprovalForAll}."
      },
      "supportsInterface(bytes4)": {
        "details": "See {IERC165-supportsInterface}. Time complexity O(1), guaranteed to always use less than 30 000 gas."
      },
      "symbol()": {
        "details": "See {IERC721Metadata-symbol}."
      },
      "tokenByIndex(uint256)": {
        "details": "See {IERC721Enumerable-tokenByIndex}."
      },
      "tokenOfOwnerByIndex(address,uint256)": {
        "details": "See {IERC721Enumerable-tokenOfOwnerByIndex}."
      },
      "tokenURI(uint256)": {
        "details": "See {IERC721Metadata-tokenURI}."
      },
      "totalSupply()": {
        "details": "See {IERC721Enumerable-totalSupply}."
      },
      "transferFrom(address,address,uint256)": {
        "details": "See {IERC721-transferFrom}."
      }
    },
    "version": 1
  },
  "userdoc": {
    "kind": "user",
    "methods": {},
    "version": 1
  }
}