{
  "contractName": "Valid",
  "abi": [
    {
      "inputs": [],
      "stateMutability": "nonpayable",
      "type": "constructor"
    },
    {
      "anonymous": false,
      "inputs": [
        {
          "indexed": true,
          "internalType": "address",
          "name": "owner",
          "type": "address"
        },
        {
          "indexed": true,
          "internalType": "address",
          "name": "approved",
          "type": "address"
        },
        {
          "indexed": true,
          "internalType": "uint256",
          "name": "tokenId",
          "type": "uint256"
        }
      ],
      "name": "Approval",
      "type": "event"
    },
    {
      "anonymous": false,
      "inputs": [
        {
          "indexed": true,
          "internalType": "address",
          "name": "owner",
          "type": "address"
        },
        {
          "indexed": true,
          "internalType": "address",
          "name": "operator",
          "type": "address"
        },
        {
          "indexed": false,
          "internalType": "bool",
          "name": "approved",
          "type": "bool"
        }
      ],
      "name": "ApprovalForAll",
      "type": "event"
    },
    {
      "anonymous": false,
      "inputs": [
        {
          "indexed": true,
          "internalType": "address",
          "name": "from",
          "type": "address"
        },
        {
          "indexed": true,
          "internalType": "address",
          "name": "to",
          "type": "address"
        },
        {
          "indexed": true,
          "internalType": "uint256",
          "name": "tokenId",
          "type": "uint256"
        }
      ],
      "name": "Transfer",
      "type": "event"
    },
    {
      "inputs": [
        {
          "internalType": "address",
          "name": "to",
          "type": "address"
        },
        {
          "internalType": "uint256",
          "name": "tokenId",
          "type": "uint256"
        }
      ],
      "name": "approve",
      "outputs": [],
      "stateMutability": "nonpayable",
      "type": "function"
    },
    {
      "inputs": [
        {
          "internalType": "address",
          "name": "owner",
          "type": "address"
        }
      ],
      "name": "balanceOf",
      "outputs": [
        {
          "internalType": "uint256",
          "name": "",
          "type": "uint256"
        }
      ],
      "stateMutability": "view",
      "type": "function",
      "constant": true
    },
    {
      "inputs": [],
      "name": "baseURI",
      "outputs": [
        {
          "internalType": "string",
          "name": "",
          "type": "string"
        }
      ],
      "stateMutability": "view",
      "type": "function",
      "constant": true
    },
    {
      "inputs": [
        {
          "internalType": "uint256",
          "name": "tokenId",
          "type": "uint256"
        }
      ],
      "name": "getApproved",
      "outputs": [
        {
          "internalType": "address",
          "name": "",
          "type": "address"
        }
      ],
      "stateMutability": "view",
      "type": "function",
      "constant": true
    },
    {
      "inputs": [
        {
          "internalType": "address",
          "name": "owner",
          "type": "address"
        },
        {
          "internalType": "address",
          "name": "operator",
          "type": "address"
        }
      ],
      "name": "isApprovedForAll",
      "outputs": [
        {
          "internalType": "bool",
          "name": "",
          "type": "bool"
        }
      ],
      "stateMutability": "view",
      "type": "function",
      "constant": true
    },
    {
      "inputs": [],
      "name": "name",
      "outputs": [
        {
          "internalType": "string",
          "name": "",
          "type": "string"
        }
      ],
      "stateMutability": "view",
      "type": "function",
      "constant": true
    },
    {
      "inputs": [
        {
          "internalType": "uint256",
          "name": "tokenId",
          "type": "uint256"
        }
      ],
      "name": "ownerOf",
      "outputs": [
        {
          "internalType": "address",
          "name": "",
          "type": "address"
        }
      ],
      "stateMutability": "view",
      "type": "function",
      "constant": true
    },
    {
      "inputs": [
        {
          "internalType": "address",
          "name": "from",
          "type": "address"
        },
        {
          "internalType": "address",
          "name": "to",
          "type": "address"
        },
        {
          "internalType": "uint256",
          "name": "tokenId",
          "type": "uint256"
        }
      ],
      "name": "safeTransferFrom",
      "outputs": [],
      "stateMutability": "nonpayable",
      "type": "function"
    },
    {
      "inputs": [
        {
          "internalType": "address",
          "name": "from",
          "type": "address"
        },
        {
          "internalType": "address",
          "name": "to",
          "type": "address"
        },
        {
          "internalType": "uint256",
          "name": "tokenId",
          "type": "uint256"
        },
        {
          "internalType": "bytes",
          "name": "_data",
          "type": "bytes"
        }
      ],
      "name": "safeTransferFrom",
      "outputs": [],
      "stateMutability": "nonpayable",
      "type": "function"
    },
    {
      "inputs": [
        {
          "internalType": "address",
          "name": "operator",
          "type": "address"
        },
        {
          "internalType": "bool",
          "name": "approved",
          "type": "bool"
        }
      ],
      "name": "setApprovalForAll",
      "outputs": [],
      "stateMutability": "nonpayable",
      "type": "function"
    },
    {
      "inputs": [
        {
          "internalType": "bytes4",
          "name": "interfaceId",
          "type": "bytes4"
        }
      ],
      "name": "supportsInterface",
      "outputs": [
        {
          "internalType": "bool",
          "name": "",
          "type": "bool"
        }
      ],
      "stateMutability": "view",
      "type": "function",
      "constant": true
    },
    {
      "inputs": [],
      "name": "symbol",
      "outputs": [
        {
          "internalType": "string",
          "name": "",
          "type": "string"
        }
      ],
      "stateMutability": "view",
      "type": "function",
      "constant": true
    },
    {
      "inputs": [
        {
          "internalType": "uint256",
          "name": "index",
          "type": "uint256"
        }
      ],
      "name": "tokenByIndex",
      "outputs": [
        {
          "internalType": "uint256",
          "name": "",
          "type": "uint256"
        }
      ],
      "stateMutability": "view",
      "type": "function",
      "constant": true
    },
    {
      "inputs": [
        {
          "internalType": "address",
          "name": "owner",
          "type": "address"
        },
        {
          "internalType": "uint256",
          "name": "index",
          "type": "uint256"
        }
      ],
      "name": "tokenOfOwnerByIndex",
      "outputs": [
        {
          "internalType": "uint256",
          "name": "",
          "type": "uint256"
        }
      ],
      "stateMutability": "view",
      "type": "function",
      "constant": true
    },
    {
      "inputs": [
        {
          "internalType": "uint256",
          "name": "tokenId",
          "type": "uint256"
        }
      ],
      "name": "tokenURI",
      "outputs": [
        {
          "internalType": "string",
          "name": "",
          "type": "string"
        }
      ],
      "stateMutability": "view",
      "type": "function",
      "constant": true
    },
    {
      "inputs": [],
      "name": "totalSupply",
      "outputs": [
        {
          "internalType": "uint256",
          "name": "",
          "type": "uint256"
        }
      ],
      "stateMutability": "view",
      "type": "function",
      "constant": true
    },
    {
      "inputs": [
        {
          "internalType": "address",
          "name": "from",
          "type": "address"
        },
        {
          "internalType": "address",
          "name": "to",
          "type": "address"
        },
        {
          "internalType": "uint256",
          "name": "tokenId",
          "type": "uint256"
        }
      ],
      "name": "transferFrom",
      "outputs": [],
      "stateMutability": "nonpayable",
      "type": "function"
    },
    {
      "inputs": [
        {
          "internalType": "address",
          "name": "owner",
          "type": "address"
        },
        {
          "internalType": "string",
          "name": "tokenURI",
          "type": "string"
        }
      ],
      "name": "createItem",
      "outputs": [
        {
          "internalType": "uint256",
          "name": "",
          "type": "uint256"
        }
      ],
      "stateMutability": "nonpayable",
      "type": "function"
    },
    {
      "inputs": [
        {
          "internalType": "string",
          "name": "ipfshash",
          "type": "string"
        }
      ],
      "name": "IsHashed",
      "outputs": [
        {
          "internalType": "bool",
          "name": "hashed",
          "type": "bool"
        }
      ],
      "stateMutability": "view",
      "type": "function",
      "constant": true
    },
    {
      "inputs": [
        {
          "internalType": "address",
          "name": "owner",
          "type": "address"
        }
      ],
      "name": "documentsOF",
      "outputs": [
        {
          "components": [
            {
              "internalType": "string",
              "name": "hash",
              "type": "string"
            },
            {
              "internalType": "uint256",
              "name": "tokenid",
              "type": "uint256"
            }
          ],
          "internalType": "struct Valid.documentData[]",
          "name": "documents",
          "type": "tuple[]"
        }
      ],
      "stateMutability": "view",
      "type": "function",
      "constant": true
    },
    {
      "inputs": [],
      "name": "getAllHashes",
      "outputs": [
        {
          "internalType": "string[]",
          "name": "tokens",
          "type": "string[]"
        }
      ],
      "stateMutability": "view",
      "type": "function",
      "constant": true
    },
    {
      "inputs": [
        {
          "internalType": "address",
          "name": "owner",
          "type": "address"
        }
      ],
      "name": "tokensOf",
      "outputs": [
        {
          "internalType": "uint256[]",
          "name": "tokens",
          "type": "uint256[]"
        },
        {
          "internalType": "bool",
          "name": "success",
          "type": "bool"
        }
      ],
      "stateMutability": "view",
      "type": "function",
      "constant": true
    }
  ],
  "bytecode": "0x60806040523480156200001157600080fd5b506040518060400160405280600581526020017f56414c49440000000000000000000000000000000000000000000000000000008152506040518060400160405280600381526020017f564c440000000000000000000000000000000000000000000000000000000000815250620000966301ffc9a760e01b6200011860201b60201c565b8160069080519060200190620000ae929190620001f0565b508060079080519060200190620000c7929190620001f0565b50620000e06380ac58cd60e01b6200011860201b60201c565b620000f8635b5e139f60e01b6200011860201b60201c565b6200011063780e9d6360e01b6200011860201b60201c565b50506200030b565b63ffffffff60e01b817bffffffffffffffffffffffffffffffffffffffffffffffffffffffff1916141562000184576040517f08c379a00000000000000000000000000000000000000000000000000000000081526004016200017b90620002d8565b60405180910390fd5b6001600080837bffffffffffffffffffffffffffffffffffffffffffffffffffffffff19167bffffffffffffffffffffffffffffffffffffffffffffffffffffffff1916815260200190815260200160002060006101000a81548160ff02191690831515021790555050565b828054600181600116156101000203166002900490600052602060002090601f016020900481019282601f106200023357805160ff191683800117855562000264565b8280016001018555821562000264579182015b828111156200026357825182559160200191906001019062000246565b5b50905062000273919062000277565b5090565b5b808211156200029257600081600090555060010162000278565b5090565b6000620002a5601c83620002fa565b91507f4552433136353a20696e76616c696420696e74657266616365206964000000006000830152602082019050919050565b60006020820190508181036000830152620002f38162000296565b9050919050565b600082825260208201905092915050565b613927806200031b6000396000f3fe608060405234801561001057600080fd5b50600436106101425760003560e01c80635a3f2672116100b8578063a22cb4651161007c578063a22cb465146103c4578063b88d4fde146103e0578063c87b56dd146103fc578063e02ddea41461042c578063e985e9c51461045c578063fe99f7421461048c57610142565b80635a3f2672146102f75780636352211e146103285780636c0360eb1461035857806370a082311461037657806395d89b41146103a657610142565b80631c4d1d311161010a5780631c4d1d31146101ff57806323b872dd1461022f57806326fb76c21461024b5780632f745c591461027b57806342842e0e146102ab5780634f6ccce7146102c757610142565b806301ffc9a71461014757806306fdde0314610177578063081812fc14610195578063095ea7b3146101c557806318160ddd146101e1575b600080fd5b610161600480360381019061015c9190612740565b6104aa565b60405161016e919061331a565b60405180910390f35b61017f610511565b60405161018c9190613335565b60405180910390f35b6101af60048036038101906101aa91906127d3565b6105b3565b6040516101bc919061323f565b60405180910390f35b6101df60048036038101906101da9190612704565b610638565b005b6101e9610750565b6040516101f691906135b7565b60405180910390f35b61021960048036038101906102149190612792565b610761565b604051610226919061331a565b60405180910390f35b610249600480360381019061024491906125aa565b610813565b005b610265600480360381019061026091906126b0565b610873565b60405161027291906135b7565b60405180910390f35b61029560048036038101906102909190612704565b6108ab565b6040516102a291906135b7565b60405180910390f35b6102c560048036038101906102c091906125aa565b610906565b005b6102e160048036038101906102dc91906127d3565b610926565b6040516102ee91906135b7565b60405180910390f35b610311600480360381019061030c9190612545565b610949565b60405161031f9291906132ea565b60405180910390f35b610342600480360381019061033d91906127d3565b610aba565b60405161034f919061323f565b60405180910390f35b610360610af1565b60405161036d9190613335565b60405180910390f35b610390600480360381019061038b9190612545565b610b93565b60405161039d91906135b7565b60405180910390f35b6103ae610c52565b6040516103bb9190613335565b60405180910390f35b6103de60048036038101906103d99190612674565b610cf4565b005b6103fa60048036038101906103f591906125f9565b610e75565b005b610416600480360381019061041191906127d3565b610ed7565b6040516104239190613335565b60405180910390f35b61044660048036038101906104419190612545565b61105a565b60405161045391906132c8565b60405180910390f35b6104766004803603810190610471919061256e565b611209565b604051610483919061331a565b60405180910390f35b61049461129d565b6040516104a191906132a6565b60405180910390f35b6000806000837bffffffffffffffffffffffffffffffffffffffffffffffffffffffff19167bffffffffffffffffffffffffffffffffffffffffffffffffffffffff1916815260200190815260200160002060009054906101000a900460ff169050919050565b606060068054600181600116156101000203166002900480601f0160208091040260200160405190810160405280929190818152602001828054600181600116156101000203166002900480156105a95780601f1061057e576101008083540402835291602001916105a9565b820191906000526020600020905b81548152906001019060200180831161058c57829003601f168201915b5050505050905090565b60006105be826113a2565b6105fd576040517f08c379a00000000000000000000000000000000000000000000000000000000081526004016105f4906134b7565b60405180910390fd5b6004600083815260200190815260200160002060009054906101000a900473ffffffffffffffffffffffffffffffffffffffff169050919050565b600061064382610aba565b90508073ffffffffffffffffffffffffffffffffffffffff168373ffffffffffffffffffffffffffffffffffffffff1614156106b4576040517f08c379a00000000000000000000000000000000000000000000000000000000081526004016106ab90613557565b60405180910390fd5b8073ffffffffffffffffffffffffffffffffffffffff166106d36113bf565b73ffffffffffffffffffffffffffffffffffffffff1614806107025750610701816106fc6113bf565b611209565b5b610741576040517f08c379a000000000000000000000000000000000000000000000000000000000815260040161073890613437565b60405180910390fd5b61074b83836113c7565b505050565b600061075c6002611480565b905090565b60008061076c610750565b9050600081141561078157600091505061080e565b6000805b828110156108075761079e61079982610926565b610ed7565b6040516020016107ae9190613204565b60405160208183030381529060405280519060200120856040516020016107d59190613204565b6040516020818303038152906040528051906020012014156107fa5760019150610807565b8080600101915050610785565b5080925050505b919050565b61082461081e6113bf565b82611495565b610863576040517f08c379a000000000000000000000000000000000000000000000000000000000815260040161085a90613577565b60405180910390fd5b61086e838383611573565b505050565b600061087f600a61178a565b600061088b600a6117a0565b905061089784826117ae565b6108a1818461193c565b8091505092915050565b60006108fe82600160008673ffffffffffffffffffffffffffffffffffffffff1673ffffffffffffffffffffffffffffffffffffffff1681526020019081526020016000206119b090919063ffffffff16565b905092915050565b61092183838360405180602001604052806000815250610e75565b505050565b60008061093d8360026119ca90919063ffffffff16565b50905080915050919050565b606060008073ffffffffffffffffffffffffffffffffffffffff168373ffffffffffffffffffffffffffffffffffffffff1614156109bc576040517f08c379a00000000000000000000000000000000000000000000000000000000081526004016109b390613517565b60405180910390fd5b60006109c784610b93565b90506000811415610a25578067ffffffffffffffff811180156109e957600080fd5b50604051908082528060200260200182016040528015610a185781602001602082028036833780820191505090505b5060009250925050610ab5565b60608167ffffffffffffffff81118015610a3e57600080fd5b50604051908082528060200260200182016040528015610a6d5781602001602082028036833780820191505090505b50905060005b82811015610aaa57610a8586826108ab565b828281518110610a9157fe5b6020026020010181815250508080600101915050610a73565b508060019350935050505b915091565b6000610aea826040518060600160405280602981526020016138c96029913960026119f69092919063ffffffff16565b9050919050565b606060098054600181600116156101000203166002900480601f016020809104026020016040519081016040528092919081815260200182805460018160011615610100020316600290048015610b895780601f10610b5e57610100808354040283529160200191610b89565b820191906000526020600020905b815481529060010190602001808311610b6c57829003601f168201915b5050505050905090565b60008073ffffffffffffffffffffffffffffffffffffffff168273ffffffffffffffffffffffffffffffffffffffff161415610c04576040517f08c379a0000000000000000000000000000000000000000000000000000000008152600401610bfb90613457565b60405180910390fd5b610c4b600160008473ffffffffffffffffffffffffffffffffffffffff1673ffffffffffffffffffffffffffffffffffffffff168152602001908152602001600020611a15565b9050919050565b606060078054600181600116156101000203166002900480601f016020809104026020016040519081016040528092919081815260200182805460018160011615610100020316600290048015610cea5780601f10610cbf57610100808354040283529160200191610cea565b820191906000526020600020905b815481529060010190602001808311610ccd57829003601f168201915b5050505050905090565b610cfc6113bf565b73ffffffffffffffffffffffffffffffffffffffff168273ffffffffffffffffffffffffffffffffffffffff161415610d6a576040517f08c379a0000000000000000000000000000000000000000000000000000000008152600401610d61906133d7565b60405180910390fd5b8060056000610d776113bf565b73ffffffffffffffffffffffffffffffffffffffff1673ffffffffffffffffffffffffffffffffffffffff16815260200190815260200160002060008473ffffffffffffffffffffffffffffffffffffffff1673ffffffffffffffffffffffffffffffffffffffff16815260200190815260200160002060006101000a81548160ff0219169083151502179055508173ffffffffffffffffffffffffffffffffffffffff16610e246113bf565b73ffffffffffffffffffffffffffffffffffffffff167f17307eab39ab6107e8899845ad3d59bd9653f200f220920489ca2b5937696c3183604051610e69919061331a565b60405180910390a35050565b610e86610e806113bf565b83611495565b610ec5576040517f08c379a0000000000000000000000000000000000000000000000000000000008152600401610ebc90613577565b60405180910390fd5b610ed184848484611a2a565b50505050565b6060610ee2826113a2565b610f21576040517f08c379a0000000000000000000000000000000000000000000000000000000008152600401610f1890613537565b60405180910390fd5b6060600860008481526020019081526020016000208054600181600116156101000203166002900480601f016020809104026020016040519081016040528092919081815260200182805460018160011615610100020316600290048015610fca5780601f10610f9f57610100808354040283529160200191610fca565b820191906000526020600020905b815481529060010190602001808311610fad57829003601f168201915b505050505090506060610fdb610af1565b9050600081511415610ff1578192505050611055565b60008251111561102657808260405160200161100e92919061321b565b60405160208183030381529060405292505050611055565b8061103085611a86565b60405160200161104192919061321b565b604051602081830303815290604052925050505b919050565b6060600073ffffffffffffffffffffffffffffffffffffffff168273ffffffffffffffffffffffffffffffffffffffff1614156110cc576040517f08c379a00000000000000000000000000000000000000000000000000000000081526004016110c390613517565b60405180910390fd5b60006110d783610b93565b9050600081141561113c578067ffffffffffffffff811180156110f957600080fd5b5060405190808252806020026020018201604052801561113357816020015b61112061237d565b8152602001906001900390816111185790505b50915050611204565b60608167ffffffffffffffff8111801561115557600080fd5b5060405190808252806020026020018201604052801561118f57816020015b61117c61237d565b8152602001906001900390816111745790505b50905060005b828110156111fd576111af6111aa86836108ab565b610ed7565b8282815181106111bb57fe5b6020026020010151600001819052506111d485826108ab565b8282815181106111e057fe5b602002602001015160200181815250508080600101915050611195565b5080925050505b919050565b6000600560008473ffffffffffffffffffffffffffffffffffffffff1673ffffffffffffffffffffffffffffffffffffffff16815260200190815260200160002060008373ffffffffffffffffffffffffffffffffffffffff1673ffffffffffffffffffffffffffffffffffffffff16815260200190815260200160002060009054906101000a900460ff16905092915050565b606060006112a9610750565b90506000811415611308578067ffffffffffffffff811180156112cb57600080fd5b506040519080825280602002602001820160405280156112ff57816020015b60608152602001906001900390816112ea5790505b5091505061139f565b60608167ffffffffffffffff8111801561132157600080fd5b5060405190808252806020026020018201604052801561135557816020015b60608152602001906001900390816113405790505b50905060005b828110156113985761137461136f82610926565b610ed7565b82828151811061138057fe5b6020026020010181905250808060010191505061135b565b5080925050505b90565b60006113b8826002611bcd90919063ffffffff16565b9050919050565b600033905090565b816004600083815260200190815260200160002060006101000a81548173ffffffffffffffffffffffffffffffffffffffff021916908373ffffffffffffffffffffffffffffffffffffffff160217905550808273ffffffffffffffffffffffffffffffffffffffff1661143a83610aba565b73ffffffffffffffffffffffffffffffffffffffff167f8c5be1e5ebec7d5bd14f71427d1e84f3dd0314c0f7b2291e5b200ac8c7c3b92560405160405180910390a45050565b600061148e82600001611be7565b9050919050565b60006114a0826113a2565b6114df576040517f08c379a00000000000000000000000000000000000000000000000000000000081526004016114d690613417565b60405180910390fd5b60006114ea83610aba565b90508073ffffffffffffffffffffffffffffffffffffffff168473ffffffffffffffffffffffffffffffffffffffff16148061155957508373ffffffffffffffffffffffffffffffffffffffff16611541846105b3565b73ffffffffffffffffffffffffffffffffffffffff16145b8061156a57506115698185611209565b5b91505092915050565b8273ffffffffffffffffffffffffffffffffffffffff1661159382610aba565b73ffffffffffffffffffffffffffffffffffffffff16146115e9576040517f08c379a00000000000000000000000000000000000000000000000000000000081526004016115e0906134f7565b60405180910390fd5b600073ffffffffffffffffffffffffffffffffffffffff168273ffffffffffffffffffffffffffffffffffffffff161415611659576040517f08c379a0000000000000000000000000000000000000000000000000000000008152600401611650906133b7565b60405180910390fd5b611664838383611bf8565b61166f6000826113c7565b6116c081600160008673ffffffffffffffffffffffffffffffffffffffff1673ffffffffffffffffffffffffffffffffffffffff168152602001908152602001600020611bfd90919063ffffffff16565b5061171281600160008573ffffffffffffffffffffffffffffffffffffffff1673ffffffffffffffffffffffffffffffffffffffff168152602001908152602001600020611c1790919063ffffffff16565b5061172981836002611c319092919063ffffffff16565b50808273ffffffffffffffffffffffffffffffffffffffff168473ffffffffffffffffffffffffffffffffffffffff167fddf252ad1be2c89b69c2b068fc378daa952ba7f163c4a11628f55a4df523b3ef60405160405180910390a4505050565b6001816000016000828254019250508190555050565b600081600001549050919050565b600073ffffffffffffffffffffffffffffffffffffffff168273ffffffffffffffffffffffffffffffffffffffff16141561181e576040517f08c379a000000000000000000000000000000000000000000000000000000000815260040161181590613497565b60405180910390fd5b611827816113a2565b15611867576040517f08c379a000000000000000000000000000000000000000000000000000000000815260040161185e90613397565b60405180910390fd5b61187360008383611bf8565b6118c481600160008573ffffffffffffffffffffffffffffffffffffffff1673ffffffffffffffffffffffffffffffffffffffff168152602001908152602001600020611c1790919063ffffffff16565b506118db81836002611c319092919063ffffffff16565b50808273ffffffffffffffffffffffffffffffffffffffff16600073ffffffffffffffffffffffffffffffffffffffff167fddf252ad1be2c89b69c2b068fc378daa952ba7f163c4a11628f55a4df523b3ef60405160405180910390a45050565b611945826113a2565b611984576040517f08c379a000000000000000000000000000000000000000000000000000000000815260040161197b906134d7565b60405180910390fd5b806008600084815260200190815260200160002090805190602001906119ab929190612397565b505050565b60006119bf8360000183611c66565b60001c905092915050565b6000806000806119dd8660000186611cd3565b915091508160001c8160001c9350935050509250929050565b6000611a09846000018460001b84611d56565b60001c90509392505050565b6000611a2382600001611de7565b9050919050565b611a35848484611573565b611a4184848484611df8565b611a80576040517f08c379a0000000000000000000000000000000000000000000000000000000008152600401611a7790613377565b60405180910390fd5b50505050565b60606000821415611ace576040518060400160405280600181526020017f30000000000000000000000000000000000000000000000000000000000000008152509050611bc8565b600082905060005b60008214611af8578080600101915050600a8281611af057fe5b049150611ad6565b60608167ffffffffffffffff81118015611b1157600080fd5b506040519080825280601f01601f191660200182016040528015611b445781602001600182028036833780820191505090505b50905060006001830390508593505b60008414611bc057600a8481611b6557fe5b0660300160f81b82828060019003935081518110611b7f57fe5b60200101907effffffffffffffffffffffffffffffffffffffffffffffffffffffffffffff1916908160001a905350600a8481611bb857fe5b049350611b53565b819450505050505b919050565b6000611bdf836000018360001b611f5c565b905092915050565b600081600001805490509050919050565b505050565b6000611c0f836000018360001b611f7f565b905092915050565b6000611c29836000018360001b612067565b905092915050565b6000611c5d846000018460001b8473ffffffffffffffffffffffffffffffffffffffff1660001b6120d7565b90509392505050565b600081836000018054905011611cb1576040517f08c379a0000000000000000000000000000000000000000000000000000000008152600401611ca890613357565b60405180910390fd5b826000018281548110611cc057fe5b9060005260206000200154905092915050565b60008082846000018054905011611d1f576040517f08c379a0000000000000000000000000000000000000000000000000000000008152600401611d1690613477565b60405180910390fd5b6000846000018481548110611d3057fe5b906000526020600020906002020190508060000154816001015492509250509250929050565b60008084600101600085815260200190815260200160002054905060008114158390611db8576040517f08c379a0000000000000000000000000000000000000000000000000000000008152600401611daf9190613335565b60405180910390fd5b50846000016001820381548110611dcb57fe5b9060005260206000209060020201600101549150509392505050565b600081600001805490509050919050565b6000611e198473ffffffffffffffffffffffffffffffffffffffff166121b3565b611e265760019050611f54565b6060611eed63150b7a0260e01b611e3b6113bf565b888787604051602401611e51949392919061325a565b604051602081830303815290604052907bffffffffffffffffffffffffffffffffffffffffffffffffffffffff19166020820180517bffffffffffffffffffffffffffffffffffffffffffffffffffffffff8381831617835250505050604051806060016040528060328152602001613897603291398773ffffffffffffffffffffffffffffffffffffffff166121c69092919063ffffffff16565b9050600081806020019051810190611f059190612769565b905063150b7a0260e01b7bffffffffffffffffffffffffffffffffffffffffffffffffffffffff1916817bffffffffffffffffffffffffffffffffffffffffffffffffffffffff191614925050505b949350505050565b600080836001016000848152602001908152602001600020541415905092915050565b6000808360010160008481526020019081526020016000205490506000811461205b5760006001820390506000600186600001805490500390506000866000018281548110611fca57fe5b9060005260206000200154905080876000018481548110611fe757fe5b906000526020600020018190555060018301876001016000838152602001908152602001600020819055508660000180548061201f57fe5b60019003818190600052602060002001600090559055866001016000878152602001908152602001600020600090556001945050505050612061565b60009150505b92915050565b600061207383836121de565b6120cc5782600001829080600181540180825580915050600190039060005260206000200160009091909190915055826000018054905083600101600084815260200190815260200160002081905550600190506120d1565b600090505b92915050565b600080846001016000858152602001908152602001600020549050600081141561217e578460000160405180604001604052808681526020018581525090806001815401808255809150506001900390600052602060002090600202016000909190919091506000820151816000015560208201518160010155505084600001805490508560010160008681526020019081526020016000208190555060019150506121ac565b8285600001600183038154811061219157fe5b90600052602060002090600202016001018190555060009150505b9392505050565b600080823b905060008111915050919050565b60606121d58484600085612201565b90509392505050565b600080836001016000848152602001908152602001600020541415905092915050565b606082471015612246576040517f08c379a000000000000000000000000000000000000000000000000000000000815260040161223d906133f7565b60405180910390fd5b61224f856121b3565b61228e576040517f08c379a000000000000000000000000000000000000000000000000000000000815260040161228590613597565b60405180910390fd5b600060608673ffffffffffffffffffffffffffffffffffffffff1685876040516122b891906131ed565b60006040518083038185875af1925050503d80600081146122f5576040519150601f19603f3d011682016040523d82523d6000602084013e6122fa565b606091505b509150915061230a828286612316565b92505050949350505050565b6060831561232657829050612376565b6000835111156123395782518084602001fd5b816040517f08c379a000000000000000000000000000000000000000000000000000000000815260040161236d9190613335565b60405180910390fd5b9392505050565b604051806040016040528060608152602001600081525090565b828054600181600116156101000203166002900490600052602060002090601f016020900481019282601f106123d857805160ff1916838001178555612406565b82800160010185558215612406579182015b828111156124055782518255916020019190600101906123ea565b5b5090506124139190612417565b5090565b5b80821115612430576000816000905550600101612418565b5090565b6000813590506124438161383a565b92915050565b60008135905061245881613851565b92915050565b60008135905061246d81613868565b92915050565b60008151905061248281613868565b92915050565b600082601f83011261249957600080fd5b81356124ac6124a7826135ff565b6135d2565b915080825260208301602083018583830111156124c857600080fd5b6124d38382846137e7565b50505092915050565b600082601f8301126124ed57600080fd5b81356125006124fb8261362b565b6135d2565b9150808252602083016020830185838301111561251c57600080fd5b6125278382846137e7565b50505092915050565b60008135905061253f8161387f565b92915050565b60006020828403121561255757600080fd5b600061256584828501612434565b91505092915050565b6000806040838503121561258157600080fd5b600061258f85828601612434565b92505060206125a085828601612434565b9150509250929050565b6000806000606084860312156125bf57600080fd5b60006125cd86828701612434565b93505060206125de86828701612434565b92505060406125ef86828701612530565b9150509250925092565b6000806000806080858703121561260f57600080fd5b600061261d87828801612434565b945050602061262e87828801612434565b935050604061263f87828801612530565b925050606085013567ffffffffffffffff81111561265c57600080fd5b61266887828801612488565b91505092959194509250565b6000806040838503121561268757600080fd5b600061269585828601612434565b92505060206126a685828601612449565b9150509250929050565b600080604083850312156126c357600080fd5b60006126d185828601612434565b925050602083013567ffffffffffffffff8111156126ee57600080fd5b6126fa858286016124dc565b9150509250929050565b6000806040838503121561271757600080fd5b600061272585828601612434565b925050602061273685828601612530565b9150509250929050565b60006020828403121561275257600080fd5b60006127608482850161245e565b91505092915050565b60006020828403121561277b57600080fd5b600061278984828501612473565b91505092915050565b6000602082840312156127a457600080fd5b600082013567ffffffffffffffff8111156127be57600080fd5b6127ca848285016124dc565b91505092915050565b6000602082840312156127e557600080fd5b60006127f384828501612530565b91505092915050565b60006128088383612a1b565b905092915050565b600061281c8383613192565b905092915050565b600061283083836131cf565b60208301905092915050565b61284581613773565b82525050565b61285481613761565b82525050565b600061286582613687565b61286f81856136e5565b93508360208202850161288185613657565b8060005b858110156128bd578484038952815161289e85826127fc565b94506128a9836136be565b925060208a01995050600181019050612885565b50829750879550505050505092915050565b60006128da82613692565b6128e481856136f6565b9350836020820285016128f685613667565b8060005b8581101561293257848403895281516129138582612810565b945061291e836136cb565b925060208a019950506001810190506128fa565b50829750879550505050505092915050565b600061294f8261369d565b6129598185613707565b935061296483613677565b8060005b8381101561299557815161297c8882612824565b9750612987836136d8565b925050600181019050612968565b5085935050505092915050565b6129ab81613785565b82525050565b60006129bc826136a8565b6129c68185613718565b93506129d68185602086016137f6565b6129df81613829565b840191505092915050565b60006129f5826136a8565b6129ff8185613729565b9350612a0f8185602086016137f6565b80840191505092915050565b6000612a26826136b3565b612a308185613734565b9350612a408185602086016137f6565b612a4981613829565b840191505092915050565b6000612a5f826136b3565b612a698185613745565b9350612a798185602086016137f6565b612a8281613829565b840191505092915050565b6000612a98826136b3565b612aa28185613756565b9350612ab28185602086016137f6565b80840191505092915050565b6000612acb602283613745565b91507f456e756d657261626c655365743a20696e646578206f7574206f6620626f756e60008301527f64730000000000000000000000000000000000000000000000000000000000006020830152604082019050919050565b6000612b31603283613745565b91507f4552433732313a207472616e7366657220746f206e6f6e20455243373231526560008301527f63656976657220696d706c656d656e74657200000000000000000000000000006020830152604082019050919050565b6000612b97601c83613745565b91507f4552433732313a20746f6b656e20616c7265616479206d696e746564000000006000830152602082019050919050565b6000612bd7602483613745565b91507f4552433732313a207472616e7366657220746f20746865207a65726f2061646460008301527f72657373000000000000000000000000000000000000000000000000000000006020830152604082019050919050565b6000612c3d601983613745565b91507f4552433732313a20617070726f766520746f2063616c6c6572000000000000006000830152602082019050919050565b6000612c7d602683613745565b91507f416464726573733a20696e73756666696369656e742062616c616e636520666f60008301527f722063616c6c00000000000000000000000000000000000000000000000000006020830152604082019050919050565b6000612ce3602c83613745565b91507f4552433732313a206f70657261746f7220717565727920666f72206e6f6e657860008301527f697374656e7420746f6b656e00000000000000000000000000000000000000006020830152604082019050919050565b6000612d49603883613745565b91507f4552433732313a20617070726f76652063616c6c6572206973206e6f74206f7760008301527f6e6572206e6f7220617070726f76656420666f7220616c6c00000000000000006020830152604082019050919050565b6000612daf602a83613745565b91507f4552433732313a2062616c616e636520717565727920666f7220746865207a6560008301527f726f2061646472657373000000000000000000000000000000000000000000006020830152604082019050919050565b6000612e15602283613745565b91507f456e756d657261626c654d61703a20696e646578206f7574206f6620626f756e60008301527f64730000000000000000000000000000000000000000000000000000000000006020830152604082019050919050565b6000612e7b602083613745565b91507f4552433732313a206d696e7420746f20746865207a65726f20616464726573736000830152602082019050919050565b6000612ebb602c83613745565b91507f4552433732313a20617070726f76656420717565727920666f72206e6f6e657860008301527f697374656e7420746f6b656e00000000000000000000000000000000000000006020830152604082019050919050565b6000612f21602c83613745565b91507f4552433732314d657461646174613a2055524920736574206f66206e6f6e657860008301527f697374656e7420746f6b656e00000000000000000000000000000000000000006020830152604082019050919050565b6000612f87602983613745565b91507f4552433732313a207472616e73666572206f6620746f6b656e2074686174206960008301527f73206e6f74206f776e00000000000000000000000000000000000000000000006020830152604082019050919050565b6000612fed601283613745565b91507f4164647265737320696e636f72726563746f00000000000000000000000000006000830152602082019050919050565b600061302d602f83613745565b91507f4552433732314d657461646174613a2055524920717565727920666f72206e6f60008301527f6e6578697374656e7420746f6b656e00000000000000000000000000000000006020830152604082019050919050565b6000613093602183613745565b91507f4552433732313a20617070726f76616c20746f2063757272656e74206f776e6560008301527f72000000000000000000000000000000000000000000000000000000000000006020830152604082019050919050565b60006130f9603183613745565b91507f4552433732313a207472616e736665722063616c6c6572206973206e6f74206f60008301527f776e6572206e6f7220617070726f7665640000000000000000000000000000006020830152604082019050919050565b600061315f601d83613745565b91507f416464726573733a2063616c6c20746f206e6f6e2d636f6e74726163740000006000830152602082019050919050565b600060408301600083015184820360008601526131af8282612a1b565b91505060208301516131c460208601826131cf565b508091505092915050565b6131d8816137dd565b82525050565b6131e7816137dd565b82525050565b60006131f982846129ea565b915081905092915050565b60006132108284612a8d565b915081905092915050565b60006132278285612a8d565b91506132338284612a8d565b91508190509392505050565b6000602082019050613254600083018461284b565b92915050565b600060808201905061326f600083018761283c565b61327c602083018661284b565b61328960408301856131de565b818103606083015261329b81846129b1565b905095945050505050565b600060208201905081810360008301526132c0818461285a565b905092915050565b600060208201905081810360008301526132e281846128cf565b905092915050565b600060408201905081810360008301526133048185612944565b905061331360208301846129a2565b9392505050565b600060208201905061332f60008301846129a2565b92915050565b6000602082019050818103600083015261334f8184612a54565b905092915050565b6000602082019050818103600083015261337081612abe565b9050919050565b6000602082019050818103600083015261339081612b24565b9050919050565b600060208201905081810360008301526133b081612b8a565b9050919050565b600060208201905081810360008301526133d081612bca565b9050919050565b600060208201905081810360008301526133f081612c30565b9050919050565b6000602082019050818103600083015261341081612c70565b9050919050565b6000602082019050818103600083015261343081612cd6565b9050919050565b6000602082019050818103600083015261345081612d3c565b9050919050565b6000602082019050818103600083015261347081612da2565b9050919050565b6000602082019050818103600083015261349081612e08565b9050919050565b600060208201905081810360008301526134b081612e6e565b9050919050565b600060208201905081810360008301526134d081612eae565b9050919050565b600060208201905081810360008301526134f081612f14565b9050919050565b6000602082019050818103600083015261351081612f7a565b9050919050565b6000602082019050818103600083015261353081612fe0565b9050919050565b6000602082019050818103600083015261355081613020565b9050919050565b6000602082019050818103600083015261357081613086565b9050919050565b60006020820190508181036000830152613590816130ec565b9050919050565b600060208201905081810360008301526135b081613152565b9050919050565b60006020820190506135cc60008301846131de565b92915050565b6000604051905081810181811067ffffffffffffffff821117156135f557600080fd5b8060405250919050565b600067ffffffffffffffff82111561361657600080fd5b601f19601f8301169050602081019050919050565b600067ffffffffffffffff82111561364257600080fd5b601f19601f8301169050602081019050919050565b6000819050602082019050919050565b6000819050602082019050919050565b6000819050602082019050919050565b600081519050919050565b600081519050919050565b600081519050919050565b600081519050919050565b600081519050919050565b6000602082019050919050565b6000602082019050919050565b6000602082019050919050565b600082825260208201905092915050565b600082825260208201905092915050565b600082825260208201905092915050565b600082825260208201905092915050565b600081905092915050565b600082825260208201905092915050565b600082825260208201905092915050565b600081905092915050565b600061376c826137bd565b9050919050565b600061377e826137bd565b9050919050565b60008115159050919050565b60007fffffffff0000000000000000000000000000000000000000000000000000000082169050919050565b600073ffffffffffffffffffffffffffffffffffffffff82169050919050565b6000819050919050565b82818337600083830152505050565b60005b838110156138145780820151818401526020810190506137f9565b83811115613823576000848401525b50505050565b6000601f19601f8301169050919050565b61384381613761565b811461384e57600080fd5b50565b61385a81613785565b811461386557600080fd5b50565b61387181613791565b811461387c57600080fd5b50565b613888816137dd565b811461389357600080fd5b5056fe4552433732313a207472616e7366657220746f206e6f6e20455243373231526563656976657220696d706c656d656e7465724552433732313a206f776e657220717565727920666f72206e6f6e6578697374656e7420746f6b656ea26469706673582212204f1f8850b98c223d1b4e67468fbf600e83c4ade52b76bc36b3ec1bd72356cac964736f6c634300060c0033",
  "immutableReferences": {},
  "source": "// contracts/GameItem.sol\r\n// SPDX-License-Identifier: MIT\r\npragma solidity <0.9.0;\r\npragma experimental ABIEncoderV2;\r\n\r\nimport \"@openzeppelin/contracts/token/ERC721/ERC721.sol\";\r\nimport \"@openzeppelin/contracts/utils/Counters.sol\";\r\n\r\ncontract Valid is ERC721 {\r\n    using Counters for Counters.Counter;\r\n    Counters.Counter private _tokenIds;\r\n\r\n    struct documentData {\r\n        string hash;\r\n        uint256 tokenid;\r\n    }\r\n\r\n    constructor() public ERC721(\"VALID\", \"VLD\") {}\r\n\r\n    function createItem(address owner, string memory tokenURI)\r\n        public\r\n        returns (uint256)\r\n    {\r\n        _tokenIds.increment();\r\n\r\n        uint256 newItemId = _tokenIds.current();\r\n        _mint(owner, newItemId);\r\n        _setTokenURI(newItemId, tokenURI);\r\n\r\n        return newItemId;\r\n    }\r\n\r\n    function IsHashed(string memory ipfshash)\r\n        public\r\n        view\r\n        returns (bool hashed)\r\n    {\r\n        //obtener cuantos tokens tiene el sm\r\n        uint256 nTokens = totalSupply();\r\n        if (nTokens == 0) {\r\n            return false;\r\n        }\r\n        bool exist = false;\r\n        //buscar si existe ese hash\r\n        for (uint256 i = 0; i < nTokens; i++) {\r\n            if (\r\n                keccak256(abi.encodePacked((ipfshash))) ==\r\n                keccak256(abi.encodePacked(tokenURI(tokenByIndex(i))))\r\n            ) {\r\n                exist = true;\r\n                break;\r\n            }\r\n        }\r\n        return (exist);\r\n    }\r\n\r\n    function documentsOF(address owner)\r\n        public\r\n        view\r\n        returns (documentData[] memory documents)\r\n    {\r\n        //revisar que no sea el address para quemar tokens\r\n        require(owner != address(0), \"Address incorrecto\");\r\n        //numero de tokens\r\n        uint256 nTokens = balanceOf(owner);\r\n        if (nTokens == 0) {\r\n            return (new documentData[](nTokens));\r\n        }\r\n        //arreglo con los documentos\r\n        documentData[] memory dochashes = new documentData[](nTokens);\r\n        for (uint256 i = 0; i < nTokens; i++) {\r\n            dochashes[i].hash = tokenURI(tokenOfOwnerByIndex(owner, i));\r\n            dochashes[i].tokenid = tokenOfOwnerByIndex(owner, i);\r\n        }\r\n        return (dochashes);\r\n    }\r\n\r\n    function getAllHashes() public view returns (string[] memory tokens) {\r\n        //obtener cuantos tokens tiene el sm\r\n        uint256 nTokens = totalSupply();\r\n        if (nTokens == 0) {\r\n            return new string[](nTokens);\r\n        }\r\n        //arreglo con los documentos\r\n        string[] memory dochashes = new string[](nTokens);\r\n        for (uint256 i = 0; i < nTokens; i++) {\r\n            dochashes[i] = tokenURI(tokenByIndex(i));\r\n        }\r\n        return (dochashes);\r\n    }\r\n\r\n    function tokensOf(address owner)\r\n        public\r\n        view\r\n        returns (uint256[] memory tokens, bool success)\r\n    {\r\n        //revisar que no sea el address para quemar tokens\r\n        require(owner != address(0), \"Address incorrecto\");\r\n        //numero de tokens\r\n        uint256 nTokens = balanceOf(owner);\r\n        if (nTokens == 0) {\r\n            return (new uint256[](nTokens), false);\r\n        }\r\n        //require(nTokens != 0, \"no cuentas con tokens\");\r\n        //arreglo de tokens\r\n        uint256[] memory tokensOfowner = new uint256[](nTokens);\r\n        //hacer el arreglo de tokens del owner\r\n        for (uint256 i = 0; i < nTokens; i++) {\r\n            tokensOfowner[i] = tokenOfOwnerByIndex(owner, i);\r\n        }\r\n        return (tokensOfowner, true);\r\n    }\r\n\r\n    function uint2str(uint256 _i)\r\n        internal\r\n        pure\r\n        returns (string memory _uintAsString)\r\n    {\r\n        if (_i == 0) {\r\n            return \"0\";\r\n        }\r\n        uint256 j = _i;\r\n        uint256 len;\r\n        while (j != 0) {\r\n            len++;\r\n            j /= 10;\r\n        }\r\n        bytes memory bstr = new bytes(len);\r\n        uint256 k = len - 1;\r\n        while (_i != 0) {\r\n            bstr[k--] = bytes1(uint8(48 + (_i % 10)));\r\n            _i /= 10;\r\n        }\r\n        return string(bstr);\r\n    }\r\n}\r\n",
  "sourcePath": "C:/Users/yeyei/OneDrive/Documentos/estampado/validafy-frontend/SContracts/contracts/Valid.sol",
  "compiler": {
    "name": "solc",
    "version": "0.6.12+commit.27d51765.Emscripten.clang"
  },
  "schemaVersion": "3.3.3",
  "updatedAt": "2021-05-11T17:53:28.341Z",
  "networkType": "ethereum",
  "devdoc": {
    "kind": "dev",
    "methods": {
      "approve(address,uint256)": {
        "details": "See {IERC721-approve}."
      },
      "balanceOf(address)": {
        "details": "See {IERC721-balanceOf}."
      },
      "baseURI()": {
        "details": "Returns the base URI set via {_setBaseURI}. This will be automatically added as a prefix in {tokenURI} to each token's URI, or to the token ID if no specific URI is set for that token ID."
      },
      "getApproved(uint256)": {
        "details": "See {IERC721-getApproved}."
      },
      "isApprovedForAll(address,address)": {
        "details": "See {IERC721-isApprovedForAll}."
      },
      "name()": {
        "details": "See {IERC721Metadata-name}."
      },
      "ownerOf(uint256)": {
        "details": "See {IERC721-ownerOf}."
      },
      "safeTransferFrom(address,address,uint256)": {
        "details": "See {IERC721-safeTransferFrom}."
      },
      "safeTransferFrom(address,address,uint256,bytes)": {
        "details": "See {IERC721-safeTransferFrom}."
      },
      "setApprovalForAll(address,bool)": {
        "details": "See {IERC721-setApprovalForAll}."
      },
      "supportsInterface(bytes4)": {
        "details": "See {IERC165-supportsInterface}. Time complexity O(1), guaranteed to always use less than 30 000 gas."
      },
      "symbol()": {
        "details": "See {IERC721Metadata-symbol}."
      },
      "tokenByIndex(uint256)": {
        "details": "See {IERC721Enumerable-tokenByIndex}."
      },
      "tokenOfOwnerByIndex(address,uint256)": {
        "details": "See {IERC721Enumerable-tokenOfOwnerByIndex}."
      },
      "tokenURI(uint256)": {
        "details": "See {IERC721Metadata-tokenURI}."
      },
      "totalSupply()": {
        "details": "See {IERC721Enumerable-totalSupply}."
      },
      "transferFrom(address,address,uint256)": {
        "details": "See {IERC721-transferFrom}."
      }
    },
    "version": 1
  },
  "userdoc": {
    "kind": "user",
    "methods": {},
    "version": 1
  }
}