{
  "contractName": "Valid",
  "abi": [
    {
      "inputs": [],
      "stateMutability": "nonpayable",
      "type": "constructor"
    },
    {
      "anonymous": false,
      "inputs": [
        {
          "indexed": true,
          "internalType": "address",
          "name": "owner",
          "type": "address"
        },
        {
          "indexed": true,
          "internalType": "address",
          "name": "approved",
          "type": "address"
        },
        {
          "indexed": true,
          "internalType": "uint256",
          "name": "tokenId",
          "type": "uint256"
        }
      ],
      "name": "Approval",
      "type": "event"
    },
    {
      "anonymous": false,
      "inputs": [
        {
          "indexed": true,
          "internalType": "address",
          "name": "owner",
          "type": "address"
        },
        {
          "indexed": true,
          "internalType": "address",
          "name": "operator",
          "type": "address"
        },
        {
          "indexed": false,
          "internalType": "bool",
          "name": "approved",
          "type": "bool"
        }
      ],
      "name": "ApprovalForAll",
      "type": "event"
    },
    {
      "anonymous": false,
      "inputs": [
        {
          "indexed": true,
          "internalType": "address",
          "name": "from",
          "type": "address"
        },
        {
          "indexed": true,
          "internalType": "address",
          "name": "to",
          "type": "address"
        },
        {
          "indexed": true,
          "internalType": "uint256",
          "name": "tokenId",
          "type": "uint256"
        }
      ],
      "name": "Transfer",
      "type": "event"
    },
    {
      "inputs": [
        {
          "internalType": "address",
          "name": "to",
          "type": "address"
        },
        {
          "internalType": "uint256",
          "name": "tokenId",
          "type": "uint256"
        }
      ],
      "name": "approve",
      "outputs": [],
      "stateMutability": "nonpayable",
      "type": "function"
    },
    {
      "inputs": [
        {
          "internalType": "address",
          "name": "owner",
          "type": "address"
        }
      ],
      "name": "balanceOf",
      "outputs": [
        {
          "internalType": "uint256",
          "name": "",
          "type": "uint256"
        }
      ],
      "stateMutability": "view",
      "type": "function",
      "constant": true
    },
    {
      "inputs": [],
      "name": "baseURI",
      "outputs": [
        {
          "internalType": "string",
          "name": "",
          "type": "string"
        }
      ],
      "stateMutability": "view",
      "type": "function",
      "constant": true
    },
    {
      "inputs": [
        {
          "internalType": "uint256",
          "name": "tokenId",
          "type": "uint256"
        }
      ],
      "name": "getApproved",
      "outputs": [
        {
          "internalType": "address",
          "name": "",
          "type": "address"
        }
      ],
      "stateMutability": "view",
      "type": "function",
      "constant": true
    },
    {
      "inputs": [
        {
          "internalType": "address",
          "name": "owner",
          "type": "address"
        },
        {
          "internalType": "address",
          "name": "operator",
          "type": "address"
        }
      ],
      "name": "isApprovedForAll",
      "outputs": [
        {
          "internalType": "bool",
          "name": "",
          "type": "bool"
        }
      ],
      "stateMutability": "view",
      "type": "function",
      "constant": true
    },
    {
      "inputs": [],
      "name": "name",
      "outputs": [
        {
          "internalType": "string",
          "name": "",
          "type": "string"
        }
      ],
      "stateMutability": "view",
      "type": "function",
      "constant": true
    },
    {
      "inputs": [
        {
          "internalType": "uint256",
          "name": "tokenId",
          "type": "uint256"
        }
      ],
      "name": "ownerOf",
      "outputs": [
        {
          "internalType": "address",
          "name": "",
          "type": "address"
        }
      ],
      "stateMutability": "view",
      "type": "function",
      "constant": true
    },
    {
      "inputs": [
        {
          "internalType": "address",
          "name": "from",
          "type": "address"
        },
        {
          "internalType": "address",
          "name": "to",
          "type": "address"
        },
        {
          "internalType": "uint256",
          "name": "tokenId",
          "type": "uint256"
        }
      ],
      "name": "safeTransferFrom",
      "outputs": [],
      "stateMutability": "nonpayable",
      "type": "function"
    },
    {
      "inputs": [
        {
          "internalType": "address",
          "name": "from",
          "type": "address"
        },
        {
          "internalType": "address",
          "name": "to",
          "type": "address"
        },
        {
          "internalType": "uint256",
          "name": "tokenId",
          "type": "uint256"
        },
        {
          "internalType": "bytes",
          "name": "_data",
          "type": "bytes"
        }
      ],
      "name": "safeTransferFrom",
      "outputs": [],
      "stateMutability": "nonpayable",
      "type": "function"
    },
    {
      "inputs": [
        {
          "internalType": "address",
          "name": "operator",
          "type": "address"
        },
        {
          "internalType": "bool",
          "name": "approved",
          "type": "bool"
        }
      ],
      "name": "setApprovalForAll",
      "outputs": [],
      "stateMutability": "nonpayable",
      "type": "function"
    },
    {
      "inputs": [
        {
          "internalType": "bytes4",
          "name": "interfaceId",
          "type": "bytes4"
        }
      ],
      "name": "supportsInterface",
      "outputs": [
        {
          "internalType": "bool",
          "name": "",
          "type": "bool"
        }
      ],
      "stateMutability": "view",
      "type": "function",
      "constant": true
    },
    {
      "inputs": [],
      "name": "symbol",
      "outputs": [
        {
          "internalType": "string",
          "name": "",
          "type": "string"
        }
      ],
      "stateMutability": "view",
      "type": "function",
      "constant": true
    },
    {
      "inputs": [
        {
          "internalType": "uint256",
          "name": "index",
          "type": "uint256"
        }
      ],
      "name": "tokenByIndex",
      "outputs": [
        {
          "internalType": "uint256",
          "name": "",
          "type": "uint256"
        }
      ],
      "stateMutability": "view",
      "type": "function",
      "constant": true
    },
    {
      "inputs": [
        {
          "internalType": "address",
          "name": "owner",
          "type": "address"
        },
        {
          "internalType": "uint256",
          "name": "index",
          "type": "uint256"
        }
      ],
      "name": "tokenOfOwnerByIndex",
      "outputs": [
        {
          "internalType": "uint256",
          "name": "",
          "type": "uint256"
        }
      ],
      "stateMutability": "view",
      "type": "function",
      "constant": true
    },
    {
      "inputs": [
        {
          "internalType": "uint256",
          "name": "tokenId",
          "type": "uint256"
        }
      ],
      "name": "tokenURI",
      "outputs": [
        {
          "internalType": "string",
          "name": "",
          "type": "string"
        }
      ],
      "stateMutability": "view",
      "type": "function",
      "constant": true
    },
    {
      "inputs": [],
      "name": "totalSupply",
      "outputs": [
        {
          "internalType": "uint256",
          "name": "",
          "type": "uint256"
        }
      ],
      "stateMutability": "view",
      "type": "function",
      "constant": true
    },
    {
      "inputs": [
        {
          "internalType": "address",
          "name": "from",
          "type": "address"
        },
        {
          "internalType": "address",
          "name": "to",
          "type": "address"
        },
        {
          "internalType": "uint256",
          "name": "tokenId",
          "type": "uint256"
        }
      ],
      "name": "transferFrom",
      "outputs": [],
      "stateMutability": "nonpayable",
      "type": "function"
    },
    {
      "inputs": [
        {
          "internalType": "address",
          "name": "owner",
          "type": "address"
        },
        {
          "internalType": "string",
          "name": "tokenURI",
          "type": "string"
        }
      ],
      "name": "createItem",
      "outputs": [
        {
          "internalType": "uint256",
          "name": "",
          "type": "uint256"
        }
      ],
      "stateMutability": "nonpayable",
      "type": "function"
    },
    {
      "inputs": [
        {
          "internalType": "address",
          "name": "owner",
          "type": "address"
        }
      ],
      "name": "tokensOf",
      "outputs": [
        {
          "internalType": "uint256[]",
          "name": "tokens",
          "type": "uint256[]"
        },
        {
          "internalType": "bool",
          "name": "success",
          "type": "bool"
        }
      ],
      "stateMutability": "view",
      "type": "function",
      "constant": true
    }
  ],
  "bytecode": "0x60806040523480156200001157600080fd5b506040518060400160405280600581526020017f56616c69640000000000000000000000000000000000000000000000000000008152506040518060400160405280600381526020017f564c440000000000000000000000000000000000000000000000000000000000815250620000966301ffc9a760e01b6200011860201b60201c565b8160069080519060200190620000ae92919062000221565b508060079080519060200190620000c792919062000221565b50620000e06380ac58cd60e01b6200011860201b60201c565b620000f8635b5e139f60e01b6200011860201b60201c565b6200011063780e9d6360e01b6200011860201b60201c565b5050620002c7565b63ffffffff60e01b817bffffffffffffffffffffffffffffffffffffffffffffffffffffffff19161415620001b5576040517f08c379a000000000000000000000000000000000000000000000000000000000815260040180806020018281038252601c8152602001807f4552433136353a20696e76616c696420696e746572666163652069640000000081525060200191505060405180910390fd5b6001600080837bffffffffffffffffffffffffffffffffffffffffffffffffffffffff19167bffffffffffffffffffffffffffffffffffffffffffffffffffffffff1916815260200190815260200160002060006101000a81548160ff02191690831515021790555050565b828054600181600116156101000203166002900490600052602060002090601f016020900481019282601f106200026457805160ff191683800117855562000295565b8280016001018555821562000295579182015b828111156200029457825182559160200191906001019062000277565b5b509050620002a49190620002a8565b5090565b5b80821115620002c3576000816000905550600101620002a9565b5090565b61301c80620002d76000396000f3fe608060405234801561001057600080fd5b50600436106101215760003560e01c80634f6ccce7116100ad57806395d89b411161007157806395d89b4114610714578063a22cb46514610797578063b88d4fde146107e7578063c87b56dd146108ec578063e985e9c51461099357610121565b80634f6ccce7146104fd5780635a3f26721461053f5780636352211e146105e15780636c0360eb1461063957806370a08231146106bc57610121565b806318160ddd116100f457806318160ddd146102b257806323b872dd146102d057806326fb76c21461033e5780632f745c591461042d57806342842e0e1461048f57610121565b806301ffc9a71461012657806306fdde0314610189578063081812fc1461020c578063095ea7b314610264575b600080fd5b6101716004803603602081101561013c57600080fd5b8101908080357bffffffffffffffffffffffffffffffffffffffffffffffffffffffff19169060200190929190505050610a0d565b60405180821515815260200191505060405180910390f35b610191610a74565b6040518080602001828103825283818151815260200191508051906020019080838360005b838110156101d15780820151818401526020810190506101b6565b50505050905090810190601f1680156101fe5780820380516001836020036101000a031916815260200191505b509250505060405180910390f35b6102386004803603602081101561022257600080fd5b8101908080359060200190929190505050610b16565b604051808273ffffffffffffffffffffffffffffffffffffffff16815260200191505060405180910390f35b6102b06004803603604081101561027a57600080fd5b81019080803573ffffffffffffffffffffffffffffffffffffffff16906020019092919080359060200190929190505050610bb1565b005b6102ba610cf5565b6040518082815260200191505060405180910390f35b61033c600480360360608110156102e657600080fd5b81019080803573ffffffffffffffffffffffffffffffffffffffff169060200190929190803573ffffffffffffffffffffffffffffffffffffffff16906020019092919080359060200190929190505050610d06565b005b6104176004803603604081101561035457600080fd5b81019080803573ffffffffffffffffffffffffffffffffffffffff1690602001909291908035906020019064010000000081111561039157600080fd5b8201836020820111156103a357600080fd5b803590602001918460018302840111640100000000831117156103c557600080fd5b91908080601f016020809104026020016040519081016040528093929190818152602001838380828437600081840152601f19601f820116905080830192505050505050509192919290505050610d7c565b6040518082815260200191505060405180910390f35b6104796004803603604081101561044357600080fd5b81019080803573ffffffffffffffffffffffffffffffffffffffff16906020019092919080359060200190929190505050610e79565b6040518082815260200191505060405180910390f35b6104fb600480360360608110156104a557600080fd5b81019080803573ffffffffffffffffffffffffffffffffffffffff169060200190929190803573ffffffffffffffffffffffffffffffffffffffff16906020019092919080359060200190929190505050610ed4565b005b6105296004803603602081101561051357600080fd5b8101908080359060200190929190505050610ef4565b6040518082815260200191505060405180910390f35b6105816004803603602081101561055557600080fd5b81019080803573ffffffffffffffffffffffffffffffffffffffff169060200190929190505050610f17565b60405180806020018315158152602001828103825284818151815260200191508051906020019060200280838360005b838110156105cc5780820151818401526020810190506105b1565b50505050905001935050505060405180910390f35b61060d600480360360208110156105f757600080fd5b81019080803590602001909291905050506110bb565b604051808273ffffffffffffffffffffffffffffffffffffffff16815260200191505060405180910390f35b6106416110f2565b6040518080602001828103825283818151815260200191508051906020019080838360005b83811015610681578082015181840152602081019050610666565b50505050905090810190601f1680156106ae5780820380516001836020036101000a031916815260200191505b509250505060405180910390f35b6106fe600480360360208110156106d257600080fd5b81019080803573ffffffffffffffffffffffffffffffffffffffff169060200190929190505050611194565b6040518082815260200191505060405180910390f35b61071c611269565b6040518080602001828103825283818151815260200191508051906020019080838360005b8381101561075c578082015181840152602081019050610741565b50505050905090810190601f1680156107895780820380516001836020036101000a031916815260200191505b509250505060405180910390f35b6107e5600480360360408110156107ad57600080fd5b81019080803573ffffffffffffffffffffffffffffffffffffffff16906020019092919080351515906020019092919050505061130b565b005b6108ea600480360360808110156107fd57600080fd5b81019080803573ffffffffffffffffffffffffffffffffffffffff169060200190929190803573ffffffffffffffffffffffffffffffffffffffff169060200190929190803590602001909291908035906020019064010000000081111561086457600080fd5b82018360208201111561087657600080fd5b8035906020019184600183028401116401000000008311171561089857600080fd5b91908080601f016020809104026020016040519081016040528093929190818152602001838380828437600081840152601f19601f8201169050808301925050505050505091929192905050506114c1565b005b6109186004803603602081101561090257600080fd5b8101908080359060200190929190505050611539565b6040518080602001828103825283818151815260200191508051906020019080838360005b8381101561095857808201518184015260208101905061093d565b50505050905090810190601f1680156109855780820380516001836020036101000a031916815260200191505b509250505060405180910390f35b6109f5600480360360408110156109a957600080fd5b81019080803573ffffffffffffffffffffffffffffffffffffffff169060200190929190803573ffffffffffffffffffffffffffffffffffffffff16906020019092919050505061180a565b60405180821515815260200191505060405180910390f35b6000806000837bffffffffffffffffffffffffffffffffffffffffffffffffffffffff19167bffffffffffffffffffffffffffffffffffffffffffffffffffffffff1916815260200190815260200160002060009054906101000a900460ff169050919050565b606060068054600181600116156101000203166002900480601f016020809104026020016040519081016040528092919081815260200182805460018160011615610100020316600290048015610b0c5780601f10610ae157610100808354040283529160200191610b0c565b820191906000526020600020905b815481529060010190602001808311610aef57829003601f168201915b5050505050905090565b6000610b218261189e565b610b76576040517f08c379a000000000000000000000000000000000000000000000000000000000815260040180806020018281038252602c815260200180612ee5602c913960400191505060405180910390fd5b6004600083815260200190815260200160002060009054906101000a900473ffffffffffffffffffffffffffffffffffffffff169050919050565b6000610bbc826110bb565b90508073ffffffffffffffffffffffffffffffffffffffff168373ffffffffffffffffffffffffffffffffffffffff161415610c43576040517f08c379a0000000000000000000000000000000000000000000000000000000008152600401808060200182810382526021815260200180612f956021913960400191505060405180910390fd5b8073ffffffffffffffffffffffffffffffffffffffff16610c626118bb565b73ffffffffffffffffffffffffffffffffffffffff161480610c915750610c9081610c8b6118bb565b61180a565b5b610ce6576040517f08c379a0000000000000000000000000000000000000000000000000000000008152600401808060200182810382526038815260200180612e386038913960400191505060405180910390fd5b610cf083836118c3565b505050565b6000610d01600261197c565b905090565b610d17610d116118bb565b82611991565b610d6c576040517f08c379a0000000000000000000000000000000000000000000000000000000008152600401808060200182810382526031815260200180612fb66031913960400191505060405180910390fd5b610d77838383611a85565b505050565b6000610d88600a611cc8565b6000610d94600a611cde565b9050610da08482611cec565b610e6f8184610dae84611ee0565b6040516020018083805190602001908083835b60208310610de45780518252602082019150602081019050602083039250610dc1565b6001836020036101000a03801982511681845116808217855250505050505090500182805190602001908083835b60208310610e355780518252602082019150602081019050602083039250610e12565b6001836020036101000a03801982511681845116808217855250505050505090500192505050604051602081830303815290604052612024565b8091505092915050565b6000610ecc82600160008673ffffffffffffffffffffffffffffffffffffffff1673ffffffffffffffffffffffffffffffffffffffff1681526020019081526020016000206120ae90919063ffffffff16565b905092915050565b610eef838383604051806020016040528060008152506114c1565b505050565b600080610f0b8360026120c890919063ffffffff16565b50905080915050919050565b606060008073ffffffffffffffffffffffffffffffffffffffff168373ffffffffffffffffffffffffffffffffffffffff161415610fbd576040517f08c379a00000000000000000000000000000000000000000000000000000000081526004018080602001828103825260128152602001807f4164647265737320696e636f72726563746f000000000000000000000000000081525060200191505060405180910390fd5b6000610fc884611194565b90506000811415611026578067ffffffffffffffff81118015610fea57600080fd5b506040519080825280602002602001820160405280156110195781602001602082028036833780820191505090505b50600092509250506110b6565b60608167ffffffffffffffff8111801561103f57600080fd5b5060405190808252806020026020018201604052801561106e5781602001602082028036833780820191505090505b50905060005b828110156110ab576110868682610e79565b82828151811061109257fe5b6020026020010181815250508080600101915050611074565b508060019350935050505b915091565b60006110eb82604051806060016040528060298152602001612e9a6029913960026120f49092919063ffffffff16565b9050919050565b606060098054600181600116156101000203166002900480601f01602080910402602001604051908101604052809291908181526020018280546001816001161561010002031660029004801561118a5780601f1061115f5761010080835404028352916020019161118a565b820191906000526020600020905b81548152906001019060200180831161116d57829003601f168201915b5050505050905090565b60008073ffffffffffffffffffffffffffffffffffffffff168273ffffffffffffffffffffffffffffffffffffffff16141561121b576040517f08c379a000000000000000000000000000000000000000000000000000000000815260040180806020018281038252602a815260200180612e70602a913960400191505060405180910390fd5b611262600160008473ffffffffffffffffffffffffffffffffffffffff1673ffffffffffffffffffffffffffffffffffffffff168152602001908152602001600020612113565b9050919050565b606060078054600181600116156101000203166002900480601f0160208091040260200160405190810160405280929190818152602001828054600181600116156101000203166002900480156113015780601f106112d657610100808354040283529160200191611301565b820191906000526020600020905b8154815290600101906020018083116112e457829003601f168201915b5050505050905090565b6113136118bb565b73ffffffffffffffffffffffffffffffffffffffff168273ffffffffffffffffffffffffffffffffffffffff1614156113b4576040517f08c379a00000000000000000000000000000000000000000000000000000000081526004018080602001828103825260198152602001807f4552433732313a20617070726f766520746f2063616c6c65720000000000000081525060200191505060405180910390fd5b80600560006113c16118bb565b73ffffffffffffffffffffffffffffffffffffffff1673ffffffffffffffffffffffffffffffffffffffff16815260200190815260200160002060008473ffffffffffffffffffffffffffffffffffffffff1673ffffffffffffffffffffffffffffffffffffffff16815260200190815260200160002060006101000a81548160ff0219169083151502179055508173ffffffffffffffffffffffffffffffffffffffff1661146e6118bb565b73ffffffffffffffffffffffffffffffffffffffff167f17307eab39ab6107e8899845ad3d59bd9653f200f220920489ca2b5937696c318360405180821515815260200191505060405180910390a35050565b6114d26114cc6118bb565b83611991565b611527576040517f08c379a0000000000000000000000000000000000000000000000000000000008152600401808060200182810382526031815260200180612fb66031913960400191505060405180910390fd5b61153384848484612128565b50505050565b60606115448261189e565b611599576040517f08c379a000000000000000000000000000000000000000000000000000000000815260040180806020018281038252602f815260200180612f66602f913960400191505060405180910390fd5b6060600860008481526020019081526020016000208054600181600116156101000203166002900480601f0160208091040260200160405190810160405280929190818152602001828054600181600116156101000203166002900480156116425780601f1061161757610100808354040283529160200191611642565b820191906000526020600020905b81548152906001019060200180831161162557829003601f168201915b5050505050905060606116536110f2565b9050600081511415611669578192505050611805565b60008251111561173a5780826040516020018083805190602001908083835b602083106116ab5780518252602082019150602081019050602083039250611688565b6001836020036101000a03801982511681845116808217855250505050505090500182805190602001908083835b602083106116fc57805182526020820191506020810190506020830392506116d9565b6001836020036101000a0380198251168184511680821785525050505050509050019250505060405160208183030381529060405292505050611805565b806117448561219a565b6040516020018083805190602001908083835b6020831061177a5780518252602082019150602081019050602083039250611757565b6001836020036101000a03801982511681845116808217855250505050505090500182805190602001908083835b602083106117cb57805182526020820191506020810190506020830392506117a8565b6001836020036101000a03801982511681845116808217855250505050505090500192505050604051602081830303815290604052925050505b919050565b6000600560008473ffffffffffffffffffffffffffffffffffffffff1673ffffffffffffffffffffffffffffffffffffffff16815260200190815260200160002060008373ffffffffffffffffffffffffffffffffffffffff1673ffffffffffffffffffffffffffffffffffffffff16815260200190815260200160002060009054906101000a900460ff16905092915050565b60006118b48260026122e190919063ffffffff16565b9050919050565b600033905090565b816004600083815260200190815260200160002060006101000a81548173ffffffffffffffffffffffffffffffffffffffff021916908373ffffffffffffffffffffffffffffffffffffffff160217905550808273ffffffffffffffffffffffffffffffffffffffff16611936836110bb565b73ffffffffffffffffffffffffffffffffffffffff167f8c5be1e5ebec7d5bd14f71427d1e84f3dd0314c0f7b2291e5b200ac8c7c3b92560405160405180910390a45050565b600061198a826000016122fb565b9050919050565b600061199c8261189e565b6119f1576040517f08c379a000000000000000000000000000000000000000000000000000000000815260040180806020018281038252602c815260200180612e0c602c913960400191505060405180910390fd5b60006119fc836110bb565b90508073ffffffffffffffffffffffffffffffffffffffff168473ffffffffffffffffffffffffffffffffffffffff161480611a6b57508373ffffffffffffffffffffffffffffffffffffffff16611a5384610b16565b73ffffffffffffffffffffffffffffffffffffffff16145b80611a7c5750611a7b818561180a565b5b91505092915050565b8273ffffffffffffffffffffffffffffffffffffffff16611aa5826110bb565b73ffffffffffffffffffffffffffffffffffffffff1614611b11576040517f08c379a0000000000000000000000000000000000000000000000000000000008152600401808060200182810382526029815260200180612f3d6029913960400191505060405180910390fd5b600073ffffffffffffffffffffffffffffffffffffffff168273ffffffffffffffffffffffffffffffffffffffff161415611b97576040517f08c379a0000000000000000000000000000000000000000000000000000000008152600401808060200182810382526024815260200180612dc26024913960400191505060405180910390fd5b611ba283838361230c565b611bad6000826118c3565b611bfe81600160008673ffffffffffffffffffffffffffffffffffffffff1673ffffffffffffffffffffffffffffffffffffffff16815260200190815260200160002061231190919063ffffffff16565b50611c5081600160008573ffffffffffffffffffffffffffffffffffffffff1673ffffffffffffffffffffffffffffffffffffffff16815260200190815260200160002061232b90919063ffffffff16565b50611c67818360026123459092919063ffffffff16565b50808273ffffffffffffffffffffffffffffffffffffffff168473ffffffffffffffffffffffffffffffffffffffff167fddf252ad1be2c89b69c2b068fc378daa952ba7f163c4a11628f55a4df523b3ef60405160405180910390a4505050565b6001816000016000828254019250508190555050565b600081600001549050919050565b600073ffffffffffffffffffffffffffffffffffffffff168273ffffffffffffffffffffffffffffffffffffffff161415611d8f576040517f08c379a00000000000000000000000000000000000000000000000000000000081526004018080602001828103825260208152602001807f4552433732313a206d696e7420746f20746865207a65726f206164647265737381525060200191505060405180910390fd5b611d988161189e565b15611e0b576040517f08c379a000000000000000000000000000000000000000000000000000000000815260040180806020018281038252601c8152602001807f4552433732313a20746f6b656e20616c7265616479206d696e7465640000000081525060200191505060405180910390fd5b611e176000838361230c565b611e6881600160008573ffffffffffffffffffffffffffffffffffffffff1673ffffffffffffffffffffffffffffffffffffffff16815260200190815260200160002061232b90919063ffffffff16565b50611e7f818360026123459092919063ffffffff16565b50808273ffffffffffffffffffffffffffffffffffffffff16600073ffffffffffffffffffffffffffffffffffffffff167fddf252ad1be2c89b69c2b068fc378daa952ba7f163c4a11628f55a4df523b3ef60405160405180910390a45050565b60606000821415611f28576040518060400160405280600181526020017f3000000000000000000000000000000000000000000000000000000000000000815250905061201f565b600082905060005b60008214611f52578080600101915050600a8281611f4a57fe5b049150611f30565b60608167ffffffffffffffff81118015611f6b57600080fd5b506040519080825280601f01601f191660200182016040528015611f9e5781602001600182028036833780820191505090505b50905060006001830390505b6000861461201757600a8681611fbc57fe5b0660300160f81b82828060019003935081518110611fd657fe5b60200101907effffffffffffffffffffffffffffffffffffffffffffffffffffffffffffff1916908160001a905350600a868161200f57fe5b049550611faa565b819450505050505b919050565b61202d8261189e565b612082576040517f08c379a000000000000000000000000000000000000000000000000000000000815260040180806020018281038252602c815260200180612f11602c913960400191505060405180910390fd5b806008600084815260200190815260200160002090805190602001906120a9929190612cd0565b505050565b60006120bd836000018361237a565b60001c905092915050565b6000806000806120db86600001866123fd565b915091508160001c8160001c9350935050509250929050565b6000612107846000018460001b84612496565b60001c90509392505050565b60006121218260000161258c565b9050919050565b612133848484611a85565b61213f8484848461259d565b612194576040517f08c379a0000000000000000000000000000000000000000000000000000000008152600401808060200182810382526032815260200180612d906032913960400191505060405180910390fd5b50505050565b606060008214156121e2576040518060400160405280600181526020017f300000000000000000000000000000000000000000000000000000000000000081525090506122dc565b600082905060005b6000821461220c578080600101915050600a828161220457fe5b0491506121ea565b60608167ffffffffffffffff8111801561222557600080fd5b506040519080825280601f01601f1916602001820160405280156122585781602001600182028036833780820191505090505b50905060006001830390508593505b600084146122d457600a848161227957fe5b0660300160f81b8282806001900393508151811061229357fe5b60200101907effffffffffffffffffffffffffffffffffffffffffffffffffffffffffffff1916908160001a905350600a84816122cc57fe5b049350612267565b819450505050505b919050565b60006122f3836000018360001b6127b6565b905092915050565b600081600001805490509050919050565b505050565b6000612323836000018360001b6127d9565b905092915050565b600061233d836000018360001b6128c1565b905092915050565b6000612371846000018460001b8473ffffffffffffffffffffffffffffffffffffffff1660001b612931565b90509392505050565b6000818360000180549050116123db576040517f08c379a0000000000000000000000000000000000000000000000000000000008152600401808060200182810382526022815260200180612d6e6022913960400191505060405180910390fd5b8260000182815481106123ea57fe5b9060005260206000200154905092915050565b6000808284600001805490501161245f576040517f08c379a0000000000000000000000000000000000000000000000000000000008152600401808060200182810382526022815260200180612ec36022913960400191505060405180910390fd5b600084600001848154811061247057fe5b906000526020600020906002020190508060000154816001015492509250509250929050565b6000808460010160008581526020019081526020016000205490506000811415839061255d576040517f08c379a00000000000000000000000000000000000000000000000000000000081526004018080602001828103825283818151815260200191508051906020019080838360005b83811015612522578082015181840152602081019050612507565b50505050905090810190601f16801561254f5780820380516001836020036101000a031916815260200191505b509250505060405180910390fd5b5084600001600182038154811061257057fe5b9060005260206000209060020201600101549150509392505050565b600081600001805490509050919050565b60006125be8473ffffffffffffffffffffffffffffffffffffffff16612a0d565b6125cb57600190506127ae565b606061273563150b7a0260e01b6125e06118bb565b888787604051602401808573ffffffffffffffffffffffffffffffffffffffff1681526020018473ffffffffffffffffffffffffffffffffffffffff16815260200183815260200180602001828103825283818151815260200191508051906020019080838360005b83811015612664578082015181840152602081019050612649565b50505050905090810190601f1680156126915780820380516001836020036101000a031916815260200191505b5095505050505050604051602081830303815290604052907bffffffffffffffffffffffffffffffffffffffffffffffffffffffff19166020820180517bffffffffffffffffffffffffffffffffffffffffffffffffffffffff8381831617835250505050604051806060016040528060328152602001612d90603291398773ffffffffffffffffffffffffffffffffffffffff16612a209092919063ffffffff16565b9050600081806020019051602081101561274e57600080fd5b8101908080519060200190929190505050905063150b7a0260e01b7bffffffffffffffffffffffffffffffffffffffffffffffffffffffff1916817bffffffffffffffffffffffffffffffffffffffffffffffffffffffff191614925050505b949350505050565b600080836001016000848152602001908152602001600020541415905092915050565b600080836001016000848152602001908152602001600020549050600081146128b5576000600182039050600060018660000180549050039050600086600001828154811061282457fe5b906000526020600020015490508087600001848154811061284157fe5b906000526020600020018190555060018301876001016000838152602001908152602001600020819055508660000180548061287957fe5b600190038181906000526020600020016000905590558660010160008781526020019081526020016000206000905560019450505050506128bb565b60009150505b92915050565b60006128cd8383612a38565b61292657826000018290806001815401808255809150506001900390600052602060002001600090919091909150558260000180549050836001016000848152602001908152602001600020819055506001905061292b565b600090505b92915050565b60008084600101600085815260200190815260200160002054905060008114156129d857846000016040518060400160405280868152602001858152509080600181540180825580915050600190039060005260206000209060020201600090919091909150600082015181600001556020820151816001015550508460000180549050856001016000868152602001908152602001600020819055506001915050612a06565b828560000160018303815481106129eb57fe5b90600052602060002090600202016001018190555060009150505b9392505050565b600080823b905060008111915050919050565b6060612a2f8484600085612a5b565b90509392505050565b600080836001016000848152602001908152602001600020541415905092915050565b606082471015612ab6576040517f08c379a0000000000000000000000000000000000000000000000000000000008152600401808060200182810382526026815260200180612de66026913960400191505060405180910390fd5b612abf85612a0d565b612b31576040517f08c379a000000000000000000000000000000000000000000000000000000000815260040180806020018281038252601d8152602001807f416464726573733a2063616c6c20746f206e6f6e2d636f6e747261637400000081525060200191505060405180910390fd5b600060608673ffffffffffffffffffffffffffffffffffffffff1685876040518082805190602001908083835b60208310612b815780518252602082019150602081019050602083039250612b5e565b6001836020036101000a03801982511681845116808217855250505050505090500191505060006040518083038185875af1925050503d8060008114612be3576040519150601f19603f3d011682016040523d82523d6000602084013e612be8565b606091505b5091509150612bf8828286612c04565b92505050949350505050565b60608315612c1457829050612cc9565b600083511115612c275782518084602001fd5b816040517f08c379a00000000000000000000000000000000000000000000000000000000081526004018080602001828103825283818151815260200191508051906020019080838360005b83811015612c8e578082015181840152602081019050612c73565b50505050905090810190601f168015612cbb5780820380516001836020036101000a031916815260200191505b509250505060405180910390fd5b9392505050565b828054600181600116156101000203166002900490600052602060002090601f016020900481019282601f10612d1157805160ff1916838001178555612d3f565b82800160010185558215612d3f579182015b82811115612d3e578251825591602001919060010190612d23565b5b509050612d4c9190612d50565b5090565b5b80821115612d69576000816000905550600101612d51565b509056fe456e756d657261626c655365743a20696e646578206f7574206f6620626f756e64734552433732313a207472616e7366657220746f206e6f6e20455243373231526563656976657220696d706c656d656e7465724552433732313a207472616e7366657220746f20746865207a65726f2061646472657373416464726573733a20696e73756666696369656e742062616c616e636520666f722063616c6c4552433732313a206f70657261746f7220717565727920666f72206e6f6e6578697374656e7420746f6b656e4552433732313a20617070726f76652063616c6c6572206973206e6f74206f776e6572206e6f7220617070726f76656420666f7220616c6c4552433732313a2062616c616e636520717565727920666f7220746865207a65726f20616464726573734552433732313a206f776e657220717565727920666f72206e6f6e6578697374656e7420746f6b656e456e756d657261626c654d61703a20696e646578206f7574206f6620626f756e64734552433732313a20617070726f76656420717565727920666f72206e6f6e6578697374656e7420746f6b656e4552433732314d657461646174613a2055524920736574206f66206e6f6e6578697374656e7420746f6b656e4552433732313a207472616e73666572206f6620746f6b656e2074686174206973206e6f74206f776e4552433732314d657461646174613a2055524920717565727920666f72206e6f6e6578697374656e7420746f6b656e4552433732313a20617070726f76616c20746f2063757272656e74206f776e65724552433732313a207472616e736665722063616c6c6572206973206e6f74206f776e6572206e6f7220617070726f766564a26469706673582212207fc0c806e6eb6ebd7ce9c94432cea8bfa7852e6f6be9fe72260791f082ee89a864736f6c634300060c0033",
  "immutableReferences": {},
  "source": "// contracts/GameItem.sol\r\n// SPDX-License-Identifier: MIT\r\npragma solidity <0.9.0;\r\n\r\nimport \"@openzeppelin/contracts/token/ERC721/ERC721.sol\";\r\nimport \"@openzeppelin/contracts/utils/Counters.sol\";\r\n\r\ncontract Valid is ERC721 {\r\n    using Counters for Counters.Counter;\r\n    Counters.Counter private _tokenIds;\r\n\r\n    constructor() public ERC721(\"Valid\", \"VLD\") {}\r\n\r\n    function createItem(address owner, string memory tokenURI)\r\n        public\r\n        returns (uint256)\r\n    {\r\n        _tokenIds.increment();\r\n\r\n        uint256 newItemId = _tokenIds.current();\r\n        _mint(owner, newItemId);\r\n        _setTokenURI(\r\n            newItemId,\r\n            string(abi.encodePacked(tokenURI, uint2str(newItemId)))\r\n        );\r\n\r\n        return newItemId;\r\n    }\r\n\r\n    function tokensOf(address owner)\r\n        public\r\n        view\r\n        returns (uint256[] memory tokens, bool success)\r\n    {\r\n        //revisar que no sea el address para quemar tokens\r\n        require(owner != address(0), \"Address incorrecto\");\r\n        //numero de tokens\r\n        uint256 nTokens = balanceOf(owner);\r\n        if (nTokens == 0) {\r\n            return (new uint256[](nTokens), false);\r\n        }\r\n        //require(nTokens != 0, \"no cuentas con tokens\");\r\n        //arreglo de tokens\r\n        uint256[] memory tokensOfowner = new uint256[](nTokens);\r\n        //hacer el arreglo de tokens del owner\r\n        for (uint256 i = 0; i < nTokens; i++) {\r\n            tokensOfowner[i] = tokenOfOwnerByIndex(owner, i);\r\n        }\r\n        return (tokensOfowner, true);\r\n    }\r\n\r\n    function uint2str(uint256 _i)\r\n        internal\r\n        pure\r\n        returns (string memory _uintAsString)\r\n    {\r\n        if (_i == 0) {\r\n            return \"0\";\r\n        }\r\n        uint256 j = _i;\r\n        uint256 len;\r\n        while (j != 0) {\r\n            len++;\r\n            j /= 10;\r\n        }\r\n        bytes memory bstr = new bytes(len);\r\n        uint256 k = len - 1;\r\n        while (_i != 0) {\r\n            bstr[k--] = bytes1(uint8(48 + (_i % 10)));\r\n            _i /= 10;\r\n        }\r\n        return string(bstr);\r\n    }\r\n}\r\n",
  "sourcePath": "C:/Users/dokxo/Documents/CLoudMex/Validify/validafy-frontend/SContracts/contracts/Valid.sol",
  "compiler": {
    "name": "solc",
    "version": "0.6.12+commit.27d51765.Emscripten.clang"
  },
  "schemaVersion": "3.3.3",
  "updatedAt": "2021-05-05T20:21:23.528Z",
  "networkType": "ethereum",
  "devdoc": {
    "kind": "dev",
    "methods": {
      "approve(address,uint256)": {
        "details": "See {IERC721-approve}."
      },
      "balanceOf(address)": {
        "details": "See {IERC721-balanceOf}."
      },
      "baseURI()": {
        "details": "Returns the base URI set via {_setBaseURI}. This will be automatically added as a prefix in {tokenURI} to each token's URI, or to the token ID if no specific URI is set for that token ID."
      },
      "getApproved(uint256)": {
        "details": "See {IERC721-getApproved}."
      },
      "isApprovedForAll(address,address)": {
        "details": "See {IERC721-isApprovedForAll}."
      },
      "name()": {
        "details": "See {IERC721Metadata-name}."
      },
      "ownerOf(uint256)": {
        "details": "See {IERC721-ownerOf}."
      },
      "safeTransferFrom(address,address,uint256)": {
        "details": "See {IERC721-safeTransferFrom}."
      },
      "safeTransferFrom(address,address,uint256,bytes)": {
        "details": "See {IERC721-safeTransferFrom}."
      },
      "setApprovalForAll(address,bool)": {
        "details": "See {IERC721-setApprovalForAll}."
      },
      "supportsInterface(bytes4)": {
        "details": "See {IERC165-supportsInterface}. Time complexity O(1), guaranteed to always use less than 30 000 gas."
      },
      "symbol()": {
        "details": "See {IERC721Metadata-symbol}."
      },
      "tokenByIndex(uint256)": {
        "details": "See {IERC721Enumerable-tokenByIndex}."
      },
      "tokenOfOwnerByIndex(address,uint256)": {
        "details": "See {IERC721Enumerable-tokenOfOwnerByIndex}."
      },
      "tokenURI(uint256)": {
        "details": "See {IERC721Metadata-tokenURI}."
      },
      "totalSupply()": {
        "details": "See {IERC721Enumerable-totalSupply}."
      },
      "transferFrom(address,address,uint256)": {
        "details": "See {IERC721-transferFrom}."
      }
    },
    "version": 1
  },
  "userdoc": {
    "kind": "user",
    "methods": {},
    "version": 1
  }
}